:1000000018350020151700001787000001170000A1
:100010000117000001170000011700000117000080
:10002000000000000000000000000000CD180000EB
:100030000117000000000000651800000117000013
:10004000AD1A0000AD1A0000AD1A0000AD1A000094
:10005000AD1A0000AD1A0000AD1A0000AD1A000084
:10006000AD1A0000AD1A0000AD1A0000AD1A000074
:10007000AD1A0000AD1A0000AD1A0000AD1A000064
:10008000AD1A0000AD1A0000AD1A0000AD1A000054
:10009000AD1A0000AD1A0000AD1A0000AD1A000044
:1000A000AD1A0000AD1A0000AD1A0000AD1A000034
:1000B000AD1A0000AD1A0000AD1A0000AD1A000024
:1000C000AD1A0000AD1A0000AD1A0000AD1A000014
:1000D000AD1A0000AD1A0000AD1A0000AD1A000004
:1000E000AD1A0000AD1A0000AD1A0000AD1A0000F4
:1000F000AD1A0000AD1A0000AD1A0000AD1A0000E4
:10010000AD1A0000AD1A0000AD1A0000AD1A0000D3
:10011000AD1A0000AD1A0000AD1A0000AD1A0000C3
:10012000AD1A0000AD1A0000AD1A0000AD1A0000B3
:10013000AD1A0000AD1A0000AD1A0000AD1A0000A3
:10014000AD1A0000AD1A0000AD1A0000AD1A000093
:10015000AD1A000053B94AB9002908BF00281CBFD6
:100160004FF0FF314FF0FF3000F00CB8ADF1080C4C
:100170006DE904CE00F008F8DDF804E0DDE90223C3
:1001800004B07047704700BF2DE9F04786468C46A3
:100190000846089E154674461946002B40F0C1805B
:1001A0008542B2FA82F245D94AB1C2F1200300FA7F
:1001B00002FC954094402EFA03F343EA0C0C4FEAFC
:1001C000154EA8B2230CBCFBFEF80EFB18CC08FBA6
:1001D00000F943EA0C43994528D9EB1808F1FF3799
:1001E00004D2994502D9A8F102072B44A3EB0903D5
:1001F000A4B2B3FBFEFC0EFB1C330CFB00F044EA84
:100200000344A04214D92C190CF1FF3304D2A042AC
:1002100002D9ACF102032C44241A43EA07401EB170
:10022000D440002334607360BDE8F0874746DDE7C3
:100230006346F1E792BB431B01214FEA154EAFB273
:10024000200CB3FBFEFC0EFB1C330CFB07F840EA52
:100250000343984561D9EB180CF1FF3004D298455F
:1002600002D9ACF102002B44A3EB0803A4B2B3FB08
:10027000FEFC0EFB1C330CFB07F744EA0344A742C9
:100280004DD92C190CF1FF3304D2A74202D9ACF19D
:1002900002032C44E41B43EA0040C0E7C2F1200300
:1002A0009540944020FA03F12EFA03F34FEA154EDD
:1002B0009040AFB20343B1FBFEFC0EFB1C10190CC7
:1002C0000CFB07F841EA0041884522D969180CF176
:1002D000FF3004D2884502D9ACF102002944A1EBD9
:1002E00008019BB2B1FBFEFC0EFB1C110CFB07F7D7
:1002F00043EA01439F420ED9EB180CF1FF3104D2BF
:100300009F4202D9ACF102012B44DB1B41EA0041C0
:1003100093E76046E3E76146F7E76046A4E7634694
:10032000B8E7834206D916B9002108467CE7C6E93A
:1003300000E0F9E7B3FA83F78FB9834201D372453E
:1003400008D8BEEB020460EB030301209C461EB9F3
:10035000002169E73846FAE7C6E9004CF8E7C7F13B
:10036000200CBB400EFA07F522FA0CF42EFA0CF121
:10037000BA401C4320FA0CF3B8404FEA1449014339
:100380001FFA84FEB3FBF9F809FB18300B0C08FBCD
:100390000EFA43EA00439A4540D9E31808F1FF30CA
:1003A00004D29A4502D9A8F102002344A3EB0A0320
:1003B00089B2B3FBF9F809FB183308FB0EFE41EADA
:1003C00003418E452CD9611808F1FF3304D28E45C4
:1003D00002D9A8F10203214443EA0040A1EB0E0137
:1003E000A0FB02984145CE46434602D306D14D4577
:1003F00004D20138B9EB020E68EB0403002EA7D03B
:10040000B5EB0E0261EB030101FA0CFC22FA07F3D3
:10041000F9404CEA0303C6E9003199E74046C5E7D5
:100420004346D9E710F8012B11F8013B012A28BFF8
:100430009A42F7D0D01A7047034613F8012B002ACE
:10044000FBD1181A01387047014805F083BE00BF80
:10045000F0010020014805F07DBE00BFE001002052
:10046000014805F077BE00BFD001002008B5074B5A
:10047000002218680D2107F0FAF8054B00221868D1
:100480001521BDE8084007F0F2B800BF600D00205C
:10049000640D002037B5204C204D23682868B3F543
:1004A0007A7F17DC0022172107F0E1F800240025ED
:1004B00041F2EC120023CDE90045194806F0D8FBC3
:1004C00041F234320023CDE90045164806F0D0FB56
:1004D00003B030BD0122172107F0C9F86368B3F5F6
:1004E000FA7FE3DBA368B3F5FA7FDFDB0E4B012273
:1004F00018680D2107F0BBF801221521286807F0C4
:10050000B6F8002200230948CDE9002340F26762D3
:10051000002306F0ADFBC9E7500D0020640D00205C
:100520000004002070040020600D0020380400202A
:100530000A4B07B558600123094900930222094B71
:10054000094802F0A7FD014628B1084803B05DF84C
:1005500004EB07F09EB803B05DF804FB1402002022
:10056000B4AD0000680D00201C02002078B100002E
:100570002DE9F04F234C244D0026A246A846234FD8
:10058000DFF88CB085B063793BB1012322799340C9
:100590007B60237C3B74637C7B7423689A68184679
:1005A00039465268019390471A4B002818601ADBAD
:1005B000142202FB06A2927ABBF8001012F0200F60
:1005C00018BF09B2019B29609B68A0791B8994F828
:1005D00010904B4303A9039302F0E8FE18B9039B64
:1005E00043FA09F32B600136032E04F1140405F1DC
:1005F0000405C8D1D8F8040005B0BDE8F04FFFF7F6
:1006000097BF00BF78AD0000500D00200002002011
:100610001C1700205C0D002070B50F4805F0E8F8AD
:100620000E4E30600E4805F0E3F80E4D172128609D
:10063000306807F00EF80D210446286807F009F825
:1006400015210546306807F004F82C434CBF4FF0E5
:10065000FF30C01770BD00BFA0B10000640D0020C6
:10066000ACB10000600D002070B503240E4D0F4E9C
:1006700055F8060C09F080FB28B115F8013C23B9A8
:100680006FF085033360012070BD55F8060C836858
:1006900029461B68984700283060F4DB013C05F1CF
:1006A0001405E5D12046EFE77EAD00005C0D00208B
:1006B000D3B5FFF7B1FF40BBFFF7D6FF044620BB21
:1006C000002600274FF4A4720023CDE900671048EC
:1006D00006F0CEFA4FF4247200230E48CDE90067ED
:1006E00006F0C6FA204602F04FF90B4C206060B9C4
:1006F0000123022200930949094B0A4802F0CAFC6F
:10070000206010B901F090F9FCE702B0D0BD00BF45
:1007100000040020700400205C0D0020B4AD000037
:10072000680D00201C020020014B1B68184700BF09
:100730003002002030B585B004460D46102200215D
:1007400068460AF0C5F802238DF80230044B2A46A9
:1007500021466846019306F021FD05B030BD00BF7B
:100760002907000080B505460E461746984606F054
:100770009BF803460AF048F90446DFF81890424611
:1007800049F8003039463046A84754F8090001F0CE
:100790003BF800BF080000002DE9F047058B044638
:1007A0002807904611D4022905F0070540F0CD80B6
:1007B000204607F028FA78B10138218B042811D897
:1007C000DFE800F0C3106D85950001290CBF45F0EE
:1007D000100545F02005258388F31188BFF36F8F3E
:1007E000BDE8F08701F0070AAA4500F0A6800027BF
:1007F000B9463E46A368002B00F0BD8041F00801D9
:10080000218388F31188BFF36F8FA168002900F05E
:10081000BB800D68002900F0B78033465246204661
:10082000D1F80480C047002D76D02B6829461D469C
:10083000F0E701F007035A1F012A1BD8002221F01C
:100840000701062B276889B2C4E9002209D13B467B
:1008500003E0628B013262831B68002BF9D141F007
:1008600002012046218307F0CEF900287BD041F019
:10087000200177E0042B0AD121F0070189B220463C
:10088000218307F0C0F910B141F020012183218BB1
:1008900001F0070AAA4550D00027B946AAE7236904
:1008A00021F0070141F00601062DD3F800902183C5
:1008B0002DD1B9F1000F40D041F00801218388F318
:1008C0001188BFF36F8F20463949C84729E021F0CE
:1008D0000701236941F0040189B2042DD3F8049083
:1008E0002183E6D000274FF0040A3E4682E721F03C
:1008F0000701236941F0050189B2052DD3F808905D
:100900002183D6D000274FF0050A3E4672E7002724
:100910004FF0060A3E466DE72B4687E7B9F1000F18
:10092000D1D14FF02003EFF3118883F31288BFF386
:100930006F8F238B23F008032383258BEA062ED5A4
:1009400025F01003238305F007056669218B002E2F
:10095000BFF66FAF00232768C4E9003321F0070119
:1009600041F001012183218B4FF0000901F0070ABA
:10097000AA457FF43FAF002F9BD041F008012183AF
:1009800088F31188BFF36F8F002FC7D03D683946B9
:1009900033465246204607F062F92F46F4E7AB068D
:1009A0007FF51AAF25F02003238305F00705FFE646
:1009B0008B7C0000044608B54FF02002EFF3118352
:1009C00082F31288BFF36F8F03F08AFC204600F099
:1009D000D1FE034806F05DFE01F026F8FCE700BFFB
:1009E000B8B10000034A13680BB9526813600020C5
:1009F000704700BF3402002030B50C460E4985B068
:100A00000291D0F8AC110546CDE9003100F1E001CA
:100A10004FF0FF33204604F0D5FC50B9012384F891
:100A20006430D5F8A83123B1204605B0BDE8304088
:100A3000184705B030BD00BFA37F000038B50C4695
:100A40001146054607F0AFFA034638B9284604496F
:100A500007F0A9FA03460020236038BD0120FBE718
:100A60009FB400002DE9F04F0123814605694668D7
:100A700085B005F55977D7E8EF2F002A03D1C7E8ED
:100A8000E13F0029F7D10CBF1A46002240F0B180A7
:100A9000B368B16A05F5E4781C1F104607F008FB3F
:100AA00084425FD8013A00F09E80B2FA82F24FF0A1
:100AB0000044D44072682046073222F00302C5F891
:100AC0006022B16A07F0F4FAC5F86402B36A4046DE
:100AD0006343033323F0030302EB4302230103EBDD
:100AE0004403093323F0030303EBC403C5F858227E
:100AF0001A440832C5F854227368C5F85C42C5F838
:100B000050323D4BC5E9A963316800F0DFF9044676
:100B100030BBD9F804A0D9F81090DAE9073409F508
:100B2000307B012B584608BF103C09F06FFB0023B7
:100B3000DAF8240031494FF4806201EB8021009300
:100B40005846234605F00CFB09F52C702C4909F09A
:100B500013FBDAF8140083685C682CB96FF0570453
:100B6000002139E0013298E74B46264ADAF818109E
:100B7000A04704460028F3D1DAF8140083681B6903
:100B8000002BEBD00122DAF8181098470446002811
:100B9000E6D11D4B2846C5F8A8311C4BC5F8AC3131
:100BA0001B4B0393D5F810320293D5F80832CDE9E8
:100BB0000083D5F86832B26AD5F8601300F04EF9B8
:100BC00004460028CCD105F1E00004F0A9FC00287F
:100BD000C5F868030ADB0221384607F019FA2046F7
:100BE00005B0BDE8F08F6FF00B04B9E76FF01504A6
:100BF000B6E76FF07704F2E7F97F000028170020CE
:100C0000DF7F0000D37F0000150C0000878100000B
:100C10004180000013B5044640B100230122CDE914
:100C20000032074BD0E9091204F080FBA36E1B6869
:100C300023B1E06E02B0BDE81040184702B010BD0D
:100C40009FB4000013B504460846216901F55971A7
:100C5000D1E8AF1F022910D193B1A0B10121CDE994
:100C600000311346D0E9091204F060FB074B9842AB
:100C700008BF6FF00B0002B010BD6FF00F00FAE775
:100C80006FF04C00F7E76FF00100F4E72EF8FFFF7C
:100C90002DE9F74388461546066906F55973D3E8EA
:100CA000AF3F022B5FD1136823B96FF0150003B07B
:100CB000BDE8F0831B78002BF7D0D6F86093B9F12C
:100CC000000F33D106F5D8774FF0FF324FF0FF33E6
:100CD000384605F00BF830462A6801A9FFF7AEFE4A
:100CE000019C1CB9384607F091F9DEE705F10803CD
:100CF000A3666B6984F86490E366E46360B1384688
:100D000007F084F921463046236E2A68FFF774FE07
:100D10000020C8F80040CAE72022296804F14000FA
:100D200009F000FE384607F071F9F1E730460F4947
:100D300007F039F904460028B7D005F108038366A7
:100D40006B69C063C366002380F864302022296881
:100D5000403009F0E7FD22460121304600F060F8FE
:100D60000028D5D0A1E76FF00F00A0E79FB40000E6
:100D700010B50C46006900F55973D3E8AF3F022B5C
:100D80000FD189B10A4900F52C7009F023FA2046E9
:100D900008F0B3FD70220021204609F099FD0020E3
:100DA00010BD6FF00F00FBE76FF00100F8E700BF28
:100DB000700D00202DE9F04F05460E4690460027A5
:100DC000D0F8B0A085B0AAF5AE7421463046FFF742
:100DD00029FBE0B9114BA4F1400B0293DAF8103073
:100DE0003246CDE9008329464FF0FF335846AAF535
:100DF000CE7904F0E7FA60B97023012203FB079370
:100E000083F86420DAF80C300BB1584698477034F8
:100E100017B105B0BDE8F08F0127D6E7B581000016
:100E20001FB5144690B18AB1012912D10A4B00F1C5
:100E3000E0010293D0F8AC31403201934FF0FF3320
:100E40002046009304F0BEFA04B010BD6FF0150008
:100E5000FAE70020F8E700BFB58100002DE9F04374
:100E600087B00E46DDE90E811446DDE910251F46E8
:100E700030B329B3DFF850C000F1E009002D08BFFE
:100E800065469EB9CDE9034400F5CE74204605962B
:100E900008F058FF03ABCDE900432A463B464146E4
:100EA000484604F063FB07B0BDE8F08300224146EA
:100EB0000E9248462A4607B0BDE8F04304F082BCD3
:100EC0006FF01500EFE700BFB50D0000F0B50E465E
:100ED000044689B000286FD001230246C363002373
:100EE000D0F89810364F403040F80C7C42F8301F54
:100EF000CDE901334FF0FF330093C36D08F0E2F901
:100F0000304A06AB92E8030083E80300184604F079
:100F10001FF90546D8B904F1340004F0FBF8054682
:100F2000A8B93946284805AA08F0A8F9054670B9B5
:100F3000059B9A6872B10C33D4F89400C4F8A030C1
:100F400007F069F9C4F8D40030B96FF00B052846F2
:100F500009B0F0BD0346EFE7D4F8940007F05BF961
:100F6000C4F8D8000028F0D0D4F88C30D4F8A01001
:100F7000C4F8A8300423C4F8AC30C4F8C430022349
:100F8000A362124BB4F89420D4F8D470C4F8B8100B
:100F9000C4F8D010D4F89010236204F1A403A4F88C
:100FA000B020C4F8A470C4F8C010A4F8C820C4F8D5
:100FB000BC00A661E362CAE76FF01505C7E700BF92
:100FC000E6B1000050AD0000F0B10000F0AD00004F
:100FD000014B0360002070471CAE00002DE9F04F6C
:100FE000002703689DB002934368DFF8BCA1039318
:100FF0008368DDE902460493C36805930369DDE96C
:1010000004BE0693436907938369DDE9062C0893C0
:10101000C36998460993089B0093CD590CAB2DBA30
:101020005AF8049BDD514FEAF223A94483EAB21334
:10103000009D83EA72634B4425EA020502EA0C092B
:1010400085EA09052B44434486EA0B054FEA7438C8
:1010500088EAB408254006EA0B0985EA090588EA0A
:10106000B4580437A844402F03EB0E054344DE4632
:10107000DDF8008040F088804FF0100A4B490A915B
:1010800051460AF1010A0DF1700E0AF00F070EEB3E
:10109000870757F8407C01F00F094FEAB7480197DE
:1010A00088EAF71801F10E0707F00F070EEB870724
:1010B00057F8407C09314FEAF74E8EEA774ECDF86B
:1010C0002CE001F00F010DF1700E0EEB81010EEB23
:1010D000890959F840EC51F8401CBAF1400F7144AD
:1010E000DDF804E088EADE08DDF82CE041448EEA11
:1010F000972E714405EA02084FEAF52E2CEA0507FF
:1011000087EA08078EEAB51EDDF828808EEA756E3C
:10111000774458F804EF49F8401C77440F4400998D
:101120004FEA733E394484EA0607CDF828808EEAF8
:10113000B30E07EA030704EA06088EEAB35E87EAFD
:10114000080777440F4401EB0B0ECDF800C0B346FF
:1011500022D102993944016003991944049B4160EA
:1011600023448360059B3344C360069B734403613F
:10117000079B2B444361089B13448361099B634491
:10118000C3611DB0BDE8F08FB346CDF800C0264660
:1011900094461C462A4640E7944626462A461C4664
:1011A00075463B466CE700BF1CAE000058AE000021
:1011B00010B50446C8B17022002107F077F80B4B38
:1011C0000B4A0C49C4E900230B4B0C48C4E9021339
:1011D0000B4BC4E9040301200A4BA36103F17453D0
:1011E000A3F52303A3F69243E36110BD85AE67BB6D
:1011F00067E6096A72F36E3C3AF54FA57F520E51CD
:101200008C68059BABD9831F014805F085BE00BFE4
:101210001CAF000038B5044618B90F4B0F485B6887
:1012200098476168B1F5683F10D0B1F5680F0DD0EF
:101230000B4DA9420AD011F46861206807D001461D
:10124000084808F034FE00232360656038BD14228E
:1012500009F03EFBF9E700BF8C030020F8B1000065
:101260002C5F5CA99812002008B560B34368B3F501
:10127000683F0ED0B3F5680F18D0144A934220D0BF
:1012800000684FF0FF324FF0FF3304F02FFD58B1EC
:1012900015E001220368D3E8EF1F002903D1C3E85A
:1012A000E02F0028F7D10AD1002008BD0368084AC2
:1012B0001B7803F5807352F82330002BF4D00548D7
:1012C000F3E70548F1E76FF4E040EEE72C5F5CA937
:1012D00000000350E98FFFFFEA8FFFFF08B520B33E
:1012E0004368B3F5683F09D0B3F5680F13D0114ACE
:1012F00093421DD0006804F0BDFC14E00022036896
:10130000D3E8EF1F012903D1C3E8E02F0028F7D16C
:1013100009D0094808BD00210368084A1B7803F575
:10132000807342F823100020F4E76FF4E040F1E707
:101330000348EFE72C5F5CA9E98FFFFF0000035033
:10134000EA8FFFFF10B5044618B91D4B1D485B68B6
:1013500098476368B3F5683F2FD0B3F5680F2CD07A
:10136000194A934219D1236803BB4FF0FF324FF063
:10137000FF332146154804F099FB08B923681BB9CF
:101380000F4B13485B68984714220021206809F02E
:101390009FFA4FF46863636008E0B3F5683F0DD8C7
:1013A0003A2B03D040F6BA629342DED1206808F0AF
:1013B000C3FD636843F03A03636010BD054AF3E779
:1013C0008C030020F8B100002C5F5CA9981200206B
:1013D0001EB200003A00003A08B506494023142224
:1013E000054808F056FDBDE808400449044805F0EA
:1013F00005BE00BF980D00209812002024AF000009
:1014000038AF000030BFFFF7FDBF00BF114B124ADD
:101410002DE9F041D518013DB5FBF3F5DFF83C802F
:101420005D430F4B074608EB0304013CB4FBF3F4A8
:1014300003FB04540E1B30460A4909F03CFA7019AC
:1014400042460021083E09F043FA7E6704F1080095
:10145000BDE8F08101000000000000000400000071
:10146000040000004CAD0000044B996858698842A4
:1014700003D003494FF080520A6070470C150020DA
:1014800004ED00E0154B9A6A12F0007F9A6A14BFCF
:101490001E201D2012F0807F9A6A18BF1F2012F4B0
:1014A000801F9A6A18BF022012F4002F9A6A18BF90
:1014B000212012F4802F9A6A18BF222012F4003FD4
:1014C0009A6A18BF232012F4803F9A6A18BF24201A
:1014D0006FEA02426FEA12429A62704700ED00E042
:1014E00010B5194B0246986A9C6A10F4805F14BFCD
:1014F0001720162014F4006F9C6A18BF1820A4054A
:1015000009D5986B986A000404D51AB19A6A22F436
:1015100000429A6219200C4B9A6A12F4806F9A6A00
:1015200018BF1A20D2050CD49B6A13F4005F18BFB1
:101530001C20054A936A43F47F43936200230B7097
:1015400010BD1B20F5E700BF00ED00E010B51C4BFF
:101550000246986A9C6A10F0100F14BF11201020E8
:1015600014F0080F9C6A18BF1220A40709D5586B05
:10157000986A000604D51AB19A6A22F080029A622B
:1015800013200F4B9A6A12F0010F9A6A18BF1420A9
:1015900012F0200F9A6A18BF1520D40658BF9B6A14
:1015A000074B9A6A920642BF5A6A22F400525A6264
:1015B0009A6A42F0FF029A6200230B7010BD00BFCE
:1015C00000ED00E0F0B5474B04465B6800258BB0AA
:1015D000C3F3080385F31188BFF36F8F02F07F40D8
:1015E000B0F17F4F11D102F00C0008280DD0100788
:1015F0004CBF0C4601250022033B8DF80720032B2E
:1016000005D8DFE803F02462665F2C46F3E7002389
:101610009DF80720CAB902AE04F1200732462068BF
:101620006168083403C2BC421646F7D1099A002DFE
:1016300053D0C2F3080121B96FEA52226FEA422265
:101640000992184602A907F060F80BB0F0BD254BCF
:10165000DA6A9107DBD4DA6A002AD8DBDA6A520048
:10166000D5D55A69A16942F480725A61BFF34F8F90
:10167000BFF36F8F5A6931F8021C22F480725A61ED
:10168000BFF34F8FBFF36F8F4DF60272914209D0B7
:101690009A6AD2B242B101200DF10701FFF756FF5D
:1016A0000346B5E72368B3E79A6A12F47F4F05D083
:1016B00001200DF10701FFF713FFF1E79B6AB3F576
:1016C000803FA4D3FFF7DEFEEAE700200DF107011B
:1016D000E4E700200DF10701EDE722F4FF7222F0AC
:1016E0000102ADE700ED00E0044B5A6942F0100240
:1016F0005A615A6942F480625A61704700ED00E015
:10170000EFF30880EFF3098101B57246FFF75AFF46
:1017100001BD00BF002080F31488BFF36F8F00204D
:1017200080F30A8880F30B8800F07AFC00200E49D1
:101730000860BFF34F8F0D4880F3088800F03EF833
:10174000202080F311880A484FF40061401880F38C
:101750000988EFF314800221084380F31488BFF353
:101760006F8F00F009F9000094ED00E018350020BB
:10177000D8230020BFF34F8F0549064BCA6802F4F7
:10178000E0621343CB60BFF34F8F00BFFDE700BFA4
:1017900000ED00E00400FA05002318460649D1F8E0
:1017A0009020C2F30722934200DB7047C1F89830C3
:1017B000C1F8A0000133F6E700ED00E010B572B605
:1017C000002484F31388FFF7E7FF23464FF0FF3030
:1017D0000C4A03F120010133102B42F82100F8D10B
:1017E00000234FF0FF30074A03F160010133102B53
:1017F00042F82100F8D162B6BFF34F8FBFF36F8F6D
:1018000010BD00BF00E100E0084B9B6883420BD194
:10181000EFF3058343B1064B5A6842F080525A6099
:101820005A6A22F400425A6208F02DBE0C150020BC
:1018300000ED00E06FF00A01084A9368D967084993
:1018400098674B6843F080534B60002383F3118803
:10185000BFF36F8F9368D86F704700BF0C150020DF
:1018600000ED00E016498A684FF030001044EFF3B5
:10187000098C80E8F01F202080F31288BFF36F8F5F
:10188000104F4FF000664A698A603E604FF0740462
:10189000141920680C4C2060906F0023936780F32C
:1018A000118802F1300090E8F01F8CF3098802F1F2
:1018B000000004B506F03AFFBDE8044070470000A0
:1018C0000C15002004ED00E0B41200201EF0040FFF
:1018D0000CBFEFF30880EFF30980816911F8021C57
:1018E0000229FFD001B506F012FF01BD40B2002869
:1018F00007DB01234109034A00F01F00834042F83F
:101900002130704700E100E040B200280CDB0122EA
:101910000649430900F01F008240203341F823208C
:10192000BFF34F8FBFF36F8F704700BF00E100E040
:10193000054B420953F82220012300F01F0003FA4F
:1019400000F01040704700BF00E100E040B2002806
:1019500001F10101ACBF00F16040064B4FEA4111BB
:10196000C9B2ABBF00F5614000F00F0080F8001372
:101970001954704714ED00E00B4A08B50B4B22F0E8
:101980007F029A60BFF34F8FBFF36F8FD3F8882029
:1019900022F47002C3F8882003F0AAFF04F09CFF31
:1019A00000F078F803F0EEFF0000000000ED00E02A
:1019B00042F8203C009B0B4942F81C3C019B21F063
:1019C000010142F8183C029B42F8081C42F8143C02
:1019D0004FF0807342F8043C0023203A026583678D
:1019E000704700BF650700000A4B446F98600A4BC0
:1019F0001C60436E83F30B88104681F30988002135
:101A000063B681F31188BFF36F8F00220023FEF7C6
:101A1000A9FE00BF0C150020B412002001491022BD
:101A20000A60704710ED00E072B6404080F3118804
:101A3000BFF36F8F01B500F0AFFA00280AD0BFF3F3
:101A40004F8F30BF00BF00BF00BF00BF00BF00BF4F
:101A500000BF00BFBDE8014062B6BFF36F8F7047A3
:101A600072B6494081F3118801B500F095FA00285B
:101A70000AD0BFF34F8F20BF00BF00BF00BF00BF21
:101A800000BF00BF00BF00BFBDE8014080F3118868
:101A900062B67047002320210348C2180133452B4A
:101AA00082F80013F9D1704700E100E001B5EFF3CF
:101AB0000580A0F110004FEAC0000449014409C9A3
:101AC0009847BDE8014002490847000024AB0000E8
:101AD000691400001FB5094C094A23460121094831
:101AE00000F0EAF800230393074B0121E41A01A850
:101AF0000193029400F0EAF804B010BD0000072042
:101B00000000002048AF0000A805002010B50C7AA6
:101B10000B6804F01F0223F01F031A43CB6864090B
:101B200023F01F03054943EA440343F00103C1F8CE
:101B30009800C1F89C20C1F8A03010BD00ED00E075
:101B40002DE9F04F0F46144606464FF000084E4D63
:101B500085B0B84580F29480D6F80490B9F1000FB2
:101B600036D0B9F11F0F40F2898019F01F0F40F0F5
:101B70008580D6F800A01AF01F0F7FD1504606F0DE
:101B8000D9FD834609EB0A00013806F0D3FD8345F1
:101B900074D11BF1160F71D05C456FDDC5F898B09C
:101BA000D5F89C10C5F898B0D5F8A03021F01F01E9
:101BB00043F01F0AD6E900321A44994202F1FF3974
:101BC0001ED1CA4508D131465FFA8BF006F0BBFD45
:101BD00008F101080C36BCE73146C5F898B0D5F8D5
:101BE0009C3022F01F0203F01F031343C5F89C3002
:101BF000E0B206F0A8FD10F1160F3FD0441CE7E755
:101C0000C5F898B0D5F8A020013B23F01F0302F0DF
:101C10001F021343CA453146E0B2C5F8A030E8D0F0
:101C200006F091FD10F1160F28D0C5F898B0D5F840
:101C30009C209DF808300AF1FF3A62F304038DF806
:101C40000830D5F8A0309DF808205B0863F34712F0
:101C50008DF80820D6E900321344009323F01F03C7
:101C6000411C5344A3EB0903C8B223F01F03072808
:101C7000039303D86946FFF749FFBFE76FF01504E8
:101C8000204605B0BDE8F08F00ED00E00522044BD2
:101C9000C3F89420BFF34F8FBFF36F8F704700BF1F
:101CA00000ED00E0BFF35F8F0022024BC3F89420E9
:101CB000704700BF00ED00E010B5034C2278FFF73D
:101CC0003FFF207010BD00BF1E1700202DE9F74F09
:101CD000294D8A4606464FF00008AB46274FD045AF
:101CE0001BDAD6F80490B9F1000F3FD031680846EE
:101CF000019106F01FFD0199044609EB010001382E
:101D000006F018FD84424FF014021D4B08D002FB70
:101D100008F36FF015024BF8032003B0BDE8F08F15
:101D200014F1160F2C60F8D01978A142F5DD02FBF2
:101D300008B0C7F89840C7F89840D7F89C4000F121
:101D40000801007B64F304000871D7F8A0000C7947
:101D5000400860F347140C71D7F89C1021F01F0164
:101D60006960D7F8A01021F01F01296108F101086E
:101D700014350C36B3E700BFB812002000ED00E0C8
:101D80001E170020F0B5384D87B02C68082C67D896
:101D90000020FFF787FF354B354AC3F8C020844247
:101DA0000DD1344D01A82C70FFF712F9002406461E
:101DB000314FA6420AD1FFF769FF00204EE0696863
:101DC00001EB0011FFF7A2FE0130E8E701992001C5
:101DD00001EB0413DA683A40B2F5001F22D0B2F5E5
:101DE000800F2CD0B2F5801F36D15A689B680958F5
:101DF000013B22F01F0003440120844623F01F030F
:101E000040EA4C108DF810002878CDE9022107280F
:101E1000059321D802A9FFF779FE2B78013401330D
:101E20002B70C6E75A689B680958013B22F01F00D7
:101E300003444FF0020C012023F01F03E0E75A682F
:101E40009B680958013B22F01F0003444FF0000C2F
:101E5000062023F01F03D3E76FF0150007B0F0BD95
:101E60004FF0FF30FAE700BF54AF000000ED00E094
:101E7000AAFF44001E1700200000F0FF08B5064925
:101E8000064821F00701C1F1005202F5E02205F0F9
:101E900062FE002008BD00BF1B560020CC120020AF
:101EA00000F01F0240090DD001280DD1094B03EBB2
:101EB0008203D3F8002222F0E04242EA0171C3F823
:101EC00000127047044BF2E70023803253F82230AF
:101ED000FFDE00BF002884500025845038B501245F
:101EE000134B144DC3F8004502230321C5F8D03627
:101EF0000020FFF7D5FF20460321FFF7D1FFC5F8EB
:101F000004472146C5F804492120C5F8004BFFF7D6
:101F1000C7FF21462020FFF7C3FF21460B20FFF714
:101F2000BFFF21460A20FFF7BBFF002038BD00BFDE
:101F3000001000500040005007B50DF1070007F0F9
:101F400068F8114B98421CD14FF480620F4B104936
:101F5000C3F8B8254FF40062C3F83C259DF807008C
:101F600007F052F80B499DF8070007F048F80120E8
:101F70009DF80730984002F0FBFA002003B05DF8AE
:101F800004FB6FF00B00F9E70000AD0B00A002505E
:101F90002CA0025028A10250052370B5144D154EF7
:101FA0002C780134B4FBF3F303EB8303E41A07F05A
:101FB00010F8114A137823B156F82430C01A0728B4
:101FC00014D94FF05023D3F8141141B10021C3F8B4
:101FD0001411D3F814312C700CB9012313702C7820
:101FE00006F0F7FF46F82400012070BD0020FCE752
:101FF00020170020D81200201F17002048B1054BE1
:10200000054A1B68B3FBF2F35843044B43F001034A
:1020100018477047C402002040420F0070AD000016
:1020200002F088B91022174B70B5C3F840244FF462
:102030007F03D3F83021D3F83431072A1BD1023B78
:10204000032B02D8104AD35CABB14FF050240126C9
:1020500000250520C4F81866C4F8145606F0CDFF14
:102060003046C4F8146606F0C8FFC4F81456C4F825
:102070001856002070BD4FF050230022C3F81426DC
:10208000F7E700BF003000505AB2000038B50546EF
:10209000054806F019FD044620B101210C3006F078
:1020A0004DFD2576204638BD7C05002002460020E7
:1020B00070B50B460A49D1E8EF4FC1E8E50F002D96
:1020C000F9D124B9BDE870400120FFF7DFBF01213D
:1020D0002082217604F10C0006F030FD204670BD10
:1020E0000001002070B505460E3D012D0C4610463E
:1020F000194603D8BDE87040FFF7D8BF64B109485E
:1021000006F0E2FC044628B101210C3006F016FD71
:1021100001232376204670BD0120BDE87040FFF703
:10212000B5BF00BF2405002010B5012104460C30C6
:1021300006F028FD2146BDE810400023014A007842
:1021400006F031BBC4AF000038B51B4806F0D9FC1F
:10215000044678B3037E012B02D1038A012B0BD8EE
:1021600001F008F9154BD3F804311BB3BDE8384032
:102170001349144808F01DB802210C3006F002FD86
:10218000037805460E3B012B0CD840F69B230E4AE4
:102190000E490F4805F01FFE404080F311884FF0B4
:1021A000030002DF2878032321460A4A06F0FBFADF
:1021B0002046D5E738BD00BF040100200000002004
:1021C000940200209809002071B20000A5B200001E
:1021D000D3B20000ACAF0000F8B50746907A0E46C7
:1021E000144601F01DF82D4B834255D1204601F0D5
:1021F0001FF80C232A4D03FB00504388BB424BD1F0
:10220000284FD7F8000120B101F0B4F80023C7F837
:102210000031204601F00CF80C2707FB0050436802
:10222000C3B1BEB9204601F003F8012207FB0050FC
:102230004068D0E90031007A01F01F07BA4049092F
:10224000F8B103EB8103D3E8EF0F1043C3E8E10FCC
:102250000029F8D1204600F0EBFF0C2707FB0050C7
:102260008368CBB1204600F0E3FF78432E5420462C
:1022700000F0DEFF07FB0055A868BDE8F84003F05A
:10228000E3BDD24303EB8103D3E8EF0F1040C3E873
:10229000E10F0029DED0F7E7F8BD00BF50050020B0
:1022A000EC1200200000002038B5042104460C3058
:1022B00006F068FC4578017822464088FFF78CFFDD
:1022C00025B1BDE83840024803F0BEBD38BD00BFAF
:1022D000E800002038B5044603210C3006F052FC1B
:1022E000E3680578197840F63543B0F80100984264
:1022F00008D02246FFF770FF25B1BDE838400248FC
:1023000003F0A2BD38BD00BFE800002010B5C1E950
:1023100000239DF808300C460B7200F089FF0C2258
:10232000024B02FB00335C6010BD00BFEC120020CA
:102330002DE9F0474FF0FF324FF0FF3306461748C4
:102340000F4606F0C1FB4FF00008044600F10C0AEE
:102350000121504606F0F2FB204684F8188000F078
:1023600067FF4FF00C090E4D09FB005046802046D8
:1023700000F05EFF09FB0050C0F80880204600F026
:1023800057FF09FB005503215046C5F8048006F0AD
:10239000D9FB068087702046BDE8F08750050020F5
:1023A000EC1200202DE9F041074615460C4686B098
:1023B00021B9FFF7BDFF044600284DD001220021BE
:1023C000684607F053FE204600F032FF0C23DFF88A
:1023D000948003FB0080C0F808D0204606F0AAFBDA
:1023E0000146214806F0A4FB4FF4A02200236846D2
:1023F00003F050FD064688B140F24B131B4A1C49BE
:102400001C4805F0E8FC324639461B4805F0E3FC61
:10241000404080F311884FF0030002DF204600F0B7
:1024200007FF0C23584318F800606EB1204600F0F7
:10243000A1FF092E13D00D2E0CBF6FF00B006FF013
:10244000040006B0BDE8F08115B12C600020F8E76B
:10245000204600F08FFFF9E76FF06800F1E76FF0BA
:102460006E00EEE7EC1200200C01002071B20000BB
:10247000F0B20000D3B20000F9B20000F7B5984DF9
:10248000D5F82431996811F0010119D140F60340C3
:1024900001AAFFF787FF0446002863D10198C368AB
:1024A0001B785BB905F1D403D3E8AF2F02F0090222
:1024B000D3E8EF1FC3E8E42F002CF9D100F05AFF56
:1024C000002141F2030001AAFFF76CFF0446002837
:1024D00048D1019B834EDA68D2F80100D2F805108A
:1024E00003C6184600F046FF214641F2010001AA4A
:1024F000FFF758FF0446A8BB0198C3685A7885F8CF
:1025000070205A88A5F872201A7985F87120B3F8DE
:102510000720A5F87420B3F80530A5F8763000F050
:1025200029FF214641F2020001AAFFF73BFF0446C2
:10253000C0B9019FFA68531C413234461868596883
:10254000083303C493422646F7D1384600F012FF01
:1025500000F016FE044628B995F87C30580604D4DD
:102560006FF01204204603B0F0BD214642F2030092
:1025700001AAFFF717FF04460028F3D1019A5A4B2E
:10258000D168D1F80100D1F8051003C3104600F05E
:10259000F1FE95F87C30990618D4022140F66D4082
:1025A000FFF7C6FE0646002800F0978002210C3097
:1025B00006F0C8FA0123447022460370314640F603
:1025C0006D40FFF7EFFE04460028CBD195F89C3014
:1025D0001A0712D5002142F21C0001AAFFF7E2FE01
:1025E00004460028BED10198C368D3F80120D3F86F
:1025F0000530C5E9382300F0BDFE082142F2010094
:10260000FFF796FE0446002867D008210C3006F03C
:1026100099FA022700222146077042708270C27028
:10262000027142718271C27142F20100FFF7BAFE7B
:102630000446002896D1082140F60140FFF778FEB5
:102640000646002849D008210C3006F07BFA80238A
:102650004370202304708470047144718471224695
:10266000C770C371314640F60140FFF79BFE044638
:1026700000287FF477AF014601AA4FF60140FFF72B
:1026800091FE044620BB019800F074FE21464FF6EF
:10269000024001AAFFF786FE0446C8B90198C36844
:1026A000B3F80130A5F8C13000F064FE95F8C130F0
:1026B0005B070DD521464FF6034001AAFFF772FED6
:1026C00030B90198C3685B7885F8C03000F052FEDD
:1026D00003B0BDE8F04000F08BBB6FF0680441E749
:1026E0000000002078000020D8000020F7B5144B2F
:1026F000054693F99B300C46002B1DDA14B9204691
:1027000003B0F0BD082C4FF0000142F2180001AAFE
:10271000264628BF0826FFF745FE0028F0D1019F76
:102720003246F9682846013108F0C5F8384600F00D
:1027300021FE3544A41BE1E76FF08500E0E700BF10
:1027400000000020024BD3F824315B69184700BF1A
:102750000000002070B5334D334EEB686FF39433B7
:10276000EB604FF0FF324FF0FF3301212D4804F0B2
:10277000B9FA60B140F618332C4A2D492D4805F0BE
:102780002AFB404080F311884FF0030002DFEB6822
:10279000C3F38633042B2DD12B7B5BBB002200239C
:1027A000254806F096F9044668B34FF0FF324FF023
:1027B000FF33224803F06EFBD6F80001E8B920464B
:1027C00006F0B8F9C6F800012046FFF7BBFF88B154
:1027D0001A4803F039FB204600F02AFD0C22184B62
:1027E0001F2102FB003022464088FFF7F5FC2046FF
:1027F00000F0C0FD03F0BCFFAFE700F0BBFD00231D
:10280000C6F80031DBE740F6AA23084A0D4909481B
:1028100005F0E1FA404080F311884FF0030002DF39
:10282000C3E700BF800200200000002071B200005A
:10283000F0B20000D3B200000C010020E80000203C
:10284000EC12002025B300002DE9F041044600F110
:102850000C06304606F09EF9278A0546012F04D85B
:102860002046BDE8F04100F085BD3046022106F06B
:1028700089F903780646052B21D00E3B012B21D97F
:1028800040F6CA63114A1249124805F0A4FA4040C2
:1028900080F311884FF0030002DF4FF0020802239B
:1028A00021460D4A307805F07EFF18F0020FD7D090
:1028B0006369278213FA85F5E560BDE8F0814FF082
:1028C0000308ECE74FF00108E9E700BF71B2000030
:1028D00029B30000D3B200009CAF000010B5037E06
:1028E0000446012B15D1C3681B78052B06D00E3B7F
:1028F000012B05D8FFF7A8FF002010BDFFF7A4FFAC
:102900002146064806F0E7F80549064807F051FC5D
:10291000F2E700F02FFD6FF01500EEE70401002054
:102920009402002098090020084A0346D2F82401A6
:1029300030B9D96839B1596929B1C2F82431704721
:102940006FF0770070476FF01500704700000020AF
:10295000044BD3E8EF1F41F00401C3E8E21F002A53
:10296000F7D17047D400002010B5FFF787FD08B9F4
:10297000FFF7EEFF034B1B6813B1BDE8104018478B
:1029800010BD00BF6413002070B5354D0646D5F864
:10299000243188B0002B5AD005F1D403D3E8EF2FAF
:1029A00022F00202C3E8E12F0029F7D1D3E8EF4F6C
:1029B00044F00102C3E8E12F0029F7D114F001042B
:1029C00048D1284B1E60012205F1E800114607F0AE
:1029D0004DFB05F5867007F028FB00220023CDE9AA
:1029E00006236FF008034FF48062CDE90243CDE97E
:1029F00000441D4B1D4904941D4803F0C3F81D49B4
:102A00001B4807F080FA1C4807F000FC6FF0070332
:102A10004FF4966219491848009403F0A1FB184935
:102A2000154807F070FAD5F82431DB68984704465A
:102A300028B93EB9FFF722FD78B9FFF789FF204694
:102A400008B070BD05F1C40003F084FBF7E76FF038
:102A50001204F4E76FF07704F1E70446EFE700BFF4
:102A6000000000206413002055270000281B0020D0
:102A70001809002042B3000098090020281F0020F8
:102A800048B30000004870474EB30000F8B5064652
:102A90000024094DEF79E3B29F4202D86FF00100A4
:102AA00007E02946304605F095FE0735631C08B15E
:102AB0002046F8BD1C46EEE70000002037B504466E
:102AC0000D4671B12846124905F084FE48B92946E1
:102AD0001048C4EBC404204405F089FE002003B074
:102AE00030BD684605F04CFE0028F8D16846FFF777
:102AF000CDFF0028F5DA074BC4EBC4006946184443
:102B000005F075FE002DE9D001462846E4E700BF38
:102B10005EB200000000002038B5062211490546CB
:102B200007F0DEFEC8B1062142F20500FFF700FC07
:102B30000446A0B1062229460C3006F009F800220E
:102B4000214642F20500FFF72DFC38B90548294619
:102B500005F048FE012300F8013C002038BD6FF06D
:102B60006800FBE76900002070B50D46044698B187
:102B70001D4905F02FFE78B92378012B02D06FF0A4
:102B8000150070BDA37903F0C003C02BF7D1204618
:102B9000FFF77CFF002821DA002DF0D1134DEB79EF
:102BA000012B1ED005F1D403D3E8AF3FDB0707D4D8
:102BB000002CE4D020460C4905F00CFE0028DED1A4
:102BC000EE792146731C3046EB71FFF777FF08B9A9
:102BD0003046D6E7EB79013BEB71D2E76FF0770037
:102BE000CFE76FF00B00CCE75EB2000000000020E2
:102BF000F7B50446C8B1002141F2090001AAFFF768
:102C0000D1FB064688B9019F0622FD680D490135B2
:102C1000284607F065FE28B1062228460A4907F033
:102C20005FFE28B9384600F0A5FB002003B0F0BDD8
:102C30002946601C05F0D6FD3846267000F09AFB48
:102C40000120F3E76BB2000065B2000007B56846EB
:102C5000FFF7CEFF044BD87118B169460020FFF78B
:102C60002DFF03B05DF804FB00000020F7B5184B02
:102C7000054693F8C2300E46DB0703D400242046F5
:102C800003B0F0BD00214FF6094001AAFFF78AFB0F
:102C900003460028F2D101981627C2685478023200
:102CA000B44228BF34469C4202DC00F063FBE6E7F6
:102CB000114607FB035602F1140C51F804EB614571
:102CC00046F804EBF9D10988013331801632EAE77E
:102CD0000000002070B5154D88B0EC792CB90121A9
:102CE00002A8FFF7C3FFE871C0B90021084608B089
:102CF000BDE87040FFF738BF02AB06FB02310DF1B3
:102D0000010005F06FFD0123694610468DF8003083
:102D1000FFF7D4FE013410B108B070BD1626EB7970
:102D2000E2B29342E8D80020F6E700BF000000209E
:102D30002DE9F04190460E461D460246002852D02D
:102D4000002B50D03103047807D573074BD405F01E
:102D50005DFD88BB01232B702DE0F7072ED5234F97
:102D6000B8F1000F13D0B0060AD4C4EBC403FB5C67
:102D7000012B11D02B70B2061DD543F00203EAE7F8
:102D800097F8D8305906F0D46FF0850014E0C4EB02
:102D9000C403FB5C012BDED1072101FB047110464B
:102DA000013105F02BFD38B9C4EBC4043B5D2B7039
:102DB000B8F1000FDFD10020BDE8F08173070ED518
:102DC0000A4EC4EBC407F35D012BC4D1072111FBEC
:102DD0000431314405F012FDF35D2B70ECE705F092
:102DE00015FD0123F9E76FF01500E5E7000000206D
:102DF00010B50A4CE3790BB1002010BDFFF726FF98
:102E00000028FAD1E379002BF6D1FFF763FF002801
:102E1000F3D1601CBDE81040FFF77EBE000000202B
:102E2000F8B545680646690535D4046914B115F04E
:102E3000010330D0194F3078FB7983422BD9C0EB96
:102E4000C00007221649384407F04AFDA8B115F022
:102E5000010306D197F87020082A02D8B2689F2A89
:102E600019D915F0300F09D0ACB1EA060AD405F42F
:102E70006035B5F5603018BF0120F8BDEB0601D410
:102E8000002CF4D1D6E902239A4204D81F2A02D991
:102E9000B3F5804FEBD90020EFE700BF0000002022
:102EA0005EB200002DE9F04FD1F810A08BB0BAF15E
:102EB00000050746744818BF0125059305F0D0FCAE
:102EC00040070C46934640F1D6800846FFF7A8FF1E
:102ED00028B96FF0150528460BB0BDE8F08F2046E5
:102EE00005F0ABFC81460028F3D007F110084046FE
:102EF00005F0B6FC0106C0F3C01300F1BF80CDE9B8
:102F00000733CDF82330A3686068ADF81830E36864
:102F10006FF40051ADF81A3005F093FC8DF82500E0
:102F2000594805F0A0FC2378584A3B7082F86F306E
:102F300038462A4661680DF11D03FFF7F9FE054684
:102F40000028C8D107F10900BAF1000F13D0216998
:102F500005F094FC204605F07CFD63680646DA0720
:102F600016D4980503D4149B0BB9022E3ED102232C
:102F70008DF81C3019E0464905F080FC204605F02C
:102F800068FD63680646DD07EBD58DF81CA00CE0F4
:102F900013F0100F0CBF0123042321690DF11E0053
:102FA0008DF81C30A94605F069FC0F2142F206009D
:102FB000FFF7BEF90546002863D00F2206A90C30A2
:102FC00005F0C6FD2946002242F20600FFF7EAF9A5
:102FD000054600287FF47FAFBAF1000F0CD0012125
:102FE000384605F046FDF0B1054674E70323DDF8E9
:102FF00050908DF81C30D8E7159B59460093384601
:10300000CDE90196149B059A05F0B1FC0028EBD19F
:103010000121384605F02DFD0028E5D1606880F0DB
:103020000200C0F3400000F001020E21404605F00E
:103030008BFC731E5A425A414046082105F084FC1D
:10304000B11E4A424A414046092105F07DFC6268B2
:1030500040460A2102F0010205F076FC4A4640464D
:103060000B2105F071FC62680D214046C2F380021D
:1030700005F06AFC2FE76FF00A052CE76FF0770583
:1030800029E76FF0680526E7D40000200000002043
:103090005EB2000073B51546069A0C46CDE90032C3
:1030A0002B460A4601461148FFF7FCFE214606461C
:1030B000002340F201109D4202D1304602B070BDA3
:1030C0000A88824204D14A6812B11278D20702D427
:1030D00001330831EFE70649064807F09DF84FF441
:1030E00070220023034803F0DFF8E6E71800002011
:1030F000C38A00003000002008B50B4805F0DEFC54
:103100006FF48041094805F0AEFB084805F0A8FBC4
:1031100003461B06C0F3C01005D5BDE808400021DA
:10312000014805F0A6BC08BD1800002028000020BA
:1031300030B58DB0202104A8FFF7D8FA0446C8B9ED
:1031400007F0FFF94FF47A75A0FB053205FB01216A
:10315000DB0B43EA4143C90BCDE9023108232022AE
:10316000009306486B4404A905F06BFA002808BFD9
:103170006FF0040420460DB030BD00BF380A0020B7
:1031800007B508216846FFF7B1FA38B90822694641
:10319000054805F036FA20B1FFF7CAFF03B05DF825
:1031A00004FB6FF00400F9E7380A002038B50D463B
:1031B000044698B191B10B4A05F05CFA431C07D163
:1031C000FFF7B6FF48B929462046064A05F052FAED
:1031D00001280CBF00206FF0040038BD6FF015000F
:1031E000FBE700BF380A002070B541690446867AC3
:1031F0000A4D59B1437ADB0706D42C2303FB06534F
:103200005B6A1B689B689847002363612C202146FA
:1032100006FB0050BDE8704006F01EBF24050020EC
:103220002C22024B02FB0030704700BF2405002017
:103230002C21827A054B01FB02339A6A1B7F801A8C
:103240001B3323F00303B0FBF3F070472405002089
:1032500038B52C24827A094B04FB02335B6A0C6874
:103260005B681A68944294BF0C600A60D3E900540A
:10327000FFF7DEFF05FB004038BD00BF240500203E
:103280002DE9F04385B00546684690461C460391FB
:1032900007F059F9DDE900674FF02003EFF31189DA
:1032A00083F31288BFF36F8F6B8B002B41D02A8B77
:1032B0009A4225D900220023284602F091FD0446B7
:1032C000F0B189F31188BFF36F8F039B002B41D0BE
:1032D00032463B46684607F05AF92C21A27A234B26
:1032E000204601FB02335B6A03A91B681D68DDE908
:1032F0000023A847606170BB2046FFF775FF24E0FC
:10330000698B4B1E6B8389F31188BFF36F8F2B7F03
:103310002A8BAC6A1B3323F00303521A02FB0344CB
:10332000124B134AEB1A9B105343A3722B7FE37289
:10333000CBE789F31188BFF36F8F234642462846B7
:1033400002F04EFD04460028BFD10024204605B0FF
:10335000BDE8F08363610023012263602281238240
:10336000039A63696282E360F0E700BF24050020EE
:10337000A38B2EBA70B52C250B4C00B970BD037A07
:103380004668013BDBB20372002BF7D1C360436098
:10339000837A05FB03431B6A13B198473046ECE779
:1033A000FFF722FFFAE700BF2405002013280ED8FC
:1033B000084A12F8103053B102EB4002527832B191
:1033C0000868434393FBF2F300200B6070476FF0F3
:1033D000150070475AB300000122054BC3F80025C1
:1033E00090F8861009B1DA6070471A605A60704729
:1033F00000E00050087970B500F01F04072C20D8B9
:103400000B780B2B1DD8DFE803F0070707071C0616
:103410001C1C1F211C2304234A78032A1AD0042AC7
:103420000FD1002544F20A064A88B24246D013D88A
:1034300044F20306B2423DD044F20506B2423BD00C
:10344000E2B36FF0150034E00523E5E70623E3E778
:103450000723E1E70125E5E744F21406B2422FD045
:1034600044F22806B2422DD044F20F06B242E8D10F
:103470000322C0F340101B0243EA0053002043EA3A
:10348000053343EA0243220102F1A04202F5604201
:10349000C2F8183523018A7903F1A04303F560438C
:1034A000C3F81425C3F81005074B4A79234483F861
:1034B000A02070BD0022DCE70122DAE70222D8E773
:1034C0000422D6E70522D4E728010020F7B50D46EF
:1034D0004FF0FF334FF0FF32544802F0DBFC6E68D0
:1034E000731EFE2B3CD800231A465148514F26FA32
:1034F00003F111F0010126D017F803C0BCF1000F51
:103500002ED06C7C00EB031E003C18BF0124DEF8BB
:103510001815013221F0807141EA0461CEF81815C6
:1035200003F15101090140F801C0D2B20133082B67
:10353000DDD12B7C083B062B12D8DFE803F0091104
:103540001D1119111B0003F1510424010151EDE774
:1035500000233749012AC1F8F0356B7C0ED97BB1C5
:103560006FF01504314802F06FFC204603B0F0BD47
:103570000223EEE70323ECE70123EAE7082BEFD869
:10358000C1F8F4352968530011B1898901FB03336F
:10359000E968994246D32F46A968254B264CC3F8C3
:1035A0002C1604F17406C3F830260FCF0FC63B6803
:1035B00027463360002626672B687BB30FCB04F1C8
:1035C000880585E80F006567A4F8986030B3D7E8F0
:1035D000EF3FC7E8E26F002AF9D118494FF40040E5
:1035E0000F463146D4F888500023E5FB0071144A99
:1035F0003846FCF7AFFD0022CDE90001002304F1BD
:10360000080003F035FB4FF0FF324FF0FF330D4859
:1036100002F040FC00B12067246FA3E70648FFF7E3
:10362000DBFEF0E76FF00B049CE700BF68010020B1
:1036300000E00050C8010020280100203F420F0098
:1036400040420F008001002010B500240D4B0E20D9
:10365000C3F80441D3F80421C3F81041D3F8102172
:103660001222C3F80423FEF741F9224601210E205D
:10367000FEF76CF90448836C13B9403002F0E4FBA8
:10368000002010BD00E000502801002038B52D4B6F
:10369000D3F80421002A48D00022C3F80421D3F82B
:1036A00004110121284C9960C3F80025636F254659
:1036B000B3B3D4F88C30B4F8982033B104F174016A
:1036C0009847012814D0022824D0B4F89830B4F8D0
:1036D00094209A421ED90133A4F89830194BD3F89C
:1036E0002C26D3F8341689B202EB4102C3F82C26FB
:1036F000D4F8883023B9BDE838401348FFF76CBED2
:10370000D5E8EF3F5A1EC5E8E12F0029F8D1012B7B
:10371000F1DC38BDD4F8883013B10C4806F058FFFE
:10372000BDE838400A4802F08FBBD3F810110029D9
:10373000EFD0C3F81021D3F8102101229A601A604B
:103740005A60E6E700E00050280100203001002028
:10375000800100200148FFF7E7B800BFECAF000090
:1037600010B5017E0446022903D004290FD049B9BF
:10377000012104F10C0005F0FCF9228AE1680548FA
:1037800004F07EFB2046FFF7F5FD002010BD05216B
:10379000EFE700BF68130020014802F055BB00BFEF
:1037A0000C05002010B5002000F03CF8A0B90B4833
:1037B00004F01FFB10B110F1780F0DD1084A094930
:1037C000064804F032FB38B9BDE810404FF400421F
:1037D0000023054802F05EBB10BD00BFFCAA00003C
:1037E000A4020020681300200C050020002208B568
:1037F000114640F60340FEF7D5FD034660B9074881
:1038000004F027FB034638B9054804F000FB0346E3
:1038100010B905F06EFA0346184608BD681300207B
:10382000FCAA00001022044B0020C3F840244FF0F3
:103830005023C3F81406704700300050084B70B591
:10384000C31A0D4607499B100446594340220648B7
:1038500005F072FA2B4601462046BDE87040184735
:1038600084130020B76DDBB6ACAA0000402373B50B
:103870000B4C0093041B0B460D460A49A4106143F0
:103880000646094A094805F084FA011E05DA304661
:103890002B4602B0BDE87040184702B070BD00BFB3
:1038A00084130020B76DDBB6FF8D0000ACAA0000CA
:1038B0002DE9F8430022012106460520FEF746F8CF
:1038C000114800F05BFE114B984219D100F066FEE2
:1038D00000244FF01C090C27DFF83480356941467D
:1038E00009FB045004F0DFF9002807DB012307FB84
:1038F00004551C44042CAB67F0D10020BDE8F883CC
:103900006FF00400FAE700BF493900000000AD0B7A
:1039100004B0000001460C2300224B4370B5084858
:10392000C41878331844D4E91C56226705F0F1F91D
:103930002DB132462B46BDE870400248184770BD95
:1039400084130020ACAA0000062812D8DFE800F09B
:10395000040F1111110D0B00064B986F10F00700AA
:1039600007D1FFF7D7BF0220FBE70320F9E70120CB
:10397000F7E770478413002008B54FF02003EFF3FA
:10398000118183F31288BFF36F8F124A136843F0DB
:1039900002001060DA0708D481F31188BFF36F8F3B
:1039A000BDE80840012000F011BE4FF05023D3F8CD
:1039B0000C24D3F80C34DB07EED5074805F0A9F941
:1039C00081F31188BFF36F8FBDE808400020FFF737
:1039D000A1BF00BF24140020FC1300207FB50022EB
:1039E0000123CDE9022304ABCDE90433094A6B4638
:1039F000CDF800D0CDF804D005F0FAF9002805DBA9
:103A00004FF480420023684602F044FA07B05DF8A4
:103A100004FB00BF358E000010B54FF02003EFF31C
:103A2000118483F31288BFF36F8F074A136823F062
:103A30000201DB07116002D4012005F09DFB84F335
:103A40001188BFF36F8F10BD241400202DE9F041C1
:103A5000012207463749D1E8EF3FC1E8E02F0028AF
:103A6000F9D133B9344935484B60CB608A6004F0F2
:103A70002DF97B1E012B2BD8012F07D14FF050239E
:103A8000D3F81C3403F00303022B21D006F035FADF
:103A90000546F8B92A4B1B78E3B14FF050230222B8
:103AA0000646C3F808234FF05024DFF89880D4F876
:103AB0001824D4F81834D20316D503F00303022BCC
:103AC00001D0012F10D175B386F31188BFF36F8F2A
:103AD000BDE8F0814FF02003EFF3118683F31288E5
:103AE000BFF36F8F0125DEE7C5B13046FDF7B8FFA4
:103AF000D4F81835DBB2012BD9D1D4F80421002A2F
:103B0000D5D00022C4F80421D4F804210222C4F83C
:103B100018252022C8F88021A360C8E700212120B1
:103B200002F0A8FEE4E74FF050230222C3F804237A
:103B3000CEE700BF8013002070130020A0130020E8
:103B40002117002000E100E0F0B5406801F01F04FB
:103B5000057B87B044EA45140569002D63D0B2F5B2
:103B6000001F00F1100506D12146284605F084FB10
:103B7000002007B0F0BD0027B2F5800F01AE01971D
:103B8000776039D1B3F1007F14BF052304238DF88A
:103B900004300023CDE904630393836823FA01F121
:103BA00011F001011AD1B2F1A07F17D104F01F0367
:103BB000620903F180032AD0012A3AD11E4A52F841
:103BC0002330DB070AD40DF103063246214628468E
:103BD00001F020F8194B98421BD002962146284646
:103BE00003AA00F0D3FE164B98421FD101222146B2
:103BF000284601F075F8BBE7B3F1C06F05D0B3F10B
:103C0000007F14BF01230223C1E70323BFE70D4A4E
:103C1000D5E73146284601F05DF8094B9842DCD0E3
:103C20006FF00B00A5E76FF08500A2E76FF01500BD
:103C30009FE751F82330FFDE002884500400AD0BCD
:103C40000000AD0B0025845038B545682B69B3B131
:103C50001035284601F02EF8044680B90146284662
:103C600000F0F2FF084B98420BD122462846074944
:103C700000F0CAFF224605210D20FDF767FE002057
:103C800038BD6FF00400FBE70000AD0B913C000075
:103C90004209034670B502D0012A17D070BD0D4EFF
:103CA000326951680029F9D0012503F01F030C681F
:103CB0009D400029F2D08A682A4002D030464B68E5
:103CC00098472CB1236821461C46F2E7024EE7E7ED
:103CD0002346F8E7D4AA0000C0AA00002DE9F0436B
:103CE00040F206354668D00648BF0320337B02EA1F
:103CF000050558BFC2F3401087B001F01F07B5F5A6
:103D0000837F144647EA43178DF8030043D00FD84A
:103D1000062D18D007D8B5B1022D3ED06FF0150092
:103D200007B0BDE8F083B5F5807FF7D101250AE043
:103D300040F20222954232D0B5F5407F31D0B5F540
:103D4000007FEBD1022522032DD5012372688B4021
:103D50009360326982BB07F01F037F092AD0012FCD
:103D600077D13E4A02EB830284F48033D2F800120A
:103D7000C3F30043C4F3404444EA430421F47061B4
:103D800044EA800421F00F0144EA05230B43C2F802
:103D900000320020C4E70725D5E70425D3E7052531
:103DA000D1E70325CFE7630341BF012372688B404E
:103DB000D360CEE72A4AD5E71036394630460DF1B2
:103DC000020200F027FF14F4403F80460CD1394630
:103DD000304605F04FFA234B9845DAD130469DF82E
:103DE000021000F071FFD4E74FF0000901AB394633
:103DF000304603AACDE90439CDE90199CDF80C90FC
:103E000000F0C4FD174B984288D114F4003315D04C
:103E10009DF8033084F48034C4F300448DF80E30F0
:103E200039464B46304603AA8DF80C508DF80D40AC
:103E300000F068FE0B4B9842CDD06FE7CDE904331C
:103E400039460DF10303304603AA039300F09EFDAB
:103E5000F0E7803352F82330FFDE00BF00288450A3
:103E6000002584500000AD0B10B504460269A2B0D5
:103E7000C2F880001649002001F05AF80022012102
:103E80002A20FDF763FD8422002101A8646806F062
:103E90001FFD0023012001AA61680432D940C9072F
:103EA00044BF00FA03F142F8041C2168D940C90755
:103EB00048BF00FA03F103F1010348BFD163102B9F
:103EC000EAD101A801F04CF8002022B010BD00BFDB
:103ED000D58E00000123834070B5DC430B4AD2E845
:103EE000EF1F01EA0405C2E8E65F002EF7D14FF4A8
:103EF000803282400648C0F80823BFF35F8FBFF3CB
:103F00006F8F0B4214BF0120002070BDCC14002025
:103F10000050015070B40E4922F07F46D1E90034C0
:103F2000D01AC31844F10004C1E90034A6F5001307
:103F3000B3F5400F09D2074B1B681A0A1B069C19E0
:103F4000054B42F10005C3E9004570BC02F09ABD83
:103F5000800B0020D0140020880B0020D9B1012351
:103F60000D4A8340D2E8EFCF4CEA030CC2E8E1CF20
:103F70000029F7D14FF48033084A8340C2F8043354
:103F8000074BD3E8AF3FC340DB0742BF4FF40012FB
:103F9000044BC3F800217047CC140020005001509E
:103FA000C814002000E100E00D4B1868010A00066B
:103FB000BFF35F8F0B4BD3F80435181841F10001A4
:103FC000B3F5801F0AD2084BD3E90023904271EB6E
:103FD000030303D210F1807041F10001704700BF6C
:103FE000D014002000500150880B00202DE9F04F24
:103FF00085B016461F4604469DF840A0FFF76AFFAD
:104000000190FFF7D1FFB04271EB070352D23B4B57
:10401000301A67EB0101984271F100014DD2384B23
:1040200003EB0413D3E902239F4208BF964258D002
:104030004FF48038334908FA04F8204626F07F4BC5
:10404000C1F8488304F0B9FF4FF00309584604F162
:104050005005AD00ADB205F1502504F5A87305F586
:1040600080350293029A20F07F4341F82230C1F854
:104070004483D1F80435244AC01A033820F07F4025
:1040800090422ED9286868B1D1F80435A3EB0B0013
:1040900020F07F40B0F5000F039322D9204604F0B2
:1040A0008CFF039BBAF1000F07D109EB030009F164
:1040B0000109D7E7BAF1000F09D06FF015052046C6
:1040C0000199FFF74BFF284605B0BDE8F08F0123AB
:1040D0000E4AA340D2E8EF0F1843C2E8E10F0029CF
:1040E000F8D107490E982301C8500F9B01EB041229
:1040F0000025C2E902675360E1E700BF01008000CC
:10410000700B002000500150FDFF7F00C8140020FC
:104110007FB500254FF0FF304FF0FF31194C1A4B9F
:104120000226C4F80833C4F84833184BC4F80855BD
:10413000C3E902014FF480334FF40012C4F8043392
:10414000134B0121C4F804631520C3F880212A46CB
:10415000FDF7FCFB1520FDF7C9FB01230D4AA36009
:10416000236013600C4B0D4A009328460023CDE9D1
:104170000155FFF73BFF3046FFF768FC284604B0C7
:1041800070BD00BF0050015003000F00700B0020F5
:1041900000E100E0CC140020153F0000FFFF7F008D
:1041A0002DE9F7432E4BD3F8042390070BD5D3F812
:1041B000042142B10022C3F804212A4AD3F8043171
:1041C000136801331360264AD2F80433D90327D584
:1041D000254BD3E8EF1F21F00100C3E8E40F002CCA
:1041E000F7D1CB0702D4D2F84031CBB100251C4C1B
:1041F000C4F84051D4F84031FFF7D6FE4FF0200309
:10420000EFF3118283F31288BFF36F8F174BD3E95B
:104210000267B042B94106D282F31188BFF36F8FB3
:1042200003B0BDE8F0834FF0FF38D3E900104FF042
:10423000FF391D60C3E902894FF48033C4F8483365
:10424000C4F84051D4F8403182F31188BFF36F8F26
:104250000029E5D0009032463B4628468847DFE7F4
:1042600000500150D0140020C8140020700B002012
:1042700030B5431C124C85B005D08442A8BF04461B
:10428000012CB8BF0124FFF78FFE0E4B0C4DD3E974
:104290000013401AB0F5000F0FD22218AA4228BF0F
:1042A0002A46002052180849CDE90100009143F147
:1042B0000003FFF79BFE05B030BD2A46F1E700BFC3
:1042C000FFFF7F00800B0020153F000008B5FFF7BF
:1042D0006BFE024B1B68C01A08BD00BF800B00209C
:1042E000012310B5074C15206360FDF70DFB4FF45B
:1042F0000012054BC4F80833C4F84833034BC3F825
:10430000802110BD0050015003000F0000E100E0CB
:104310004FF47F03D3F83021D3F83431072A05D185
:10432000023B032B02D8024AD05C70470020704742
:10433000B8B3000008B5FFF7EBFF58B1644BD3F8F2
:10434000202A3AB90D21C3F8201A0121C3F81C19FB
:10435000C3F81C290022D30003F57F03D3F8001310
:10436000013107D0D3F800130132D3F80433202AE7
:104370000B60F0D1FFF7CCFF002840F0A080FFF7E2
:10438000C7FF40B1534B544AC3F830254FF0502378
:104390000122C3F858254FF47F03D3F83021D3F816
:1043A0003431072A09D1023B032B06D84B4AD35C90
:1043B0001BB100224A4BC3F84C25FFF7A9FF50B1AF
:1043C0004FF05023D3F80024D10742BF0022C3F896
:1043D0001421C3F818214FF47F03D3F83021D3F808
:1043E0003431072A09D14FF05023D3F80024D207E3
:1043F00044BF6FF00102C3F80024FFF789FF18B132
:104400006522334BC3F80C274FF47F03D3F83021D8
:10441000D3F83431072A16D1314BD3F82034002B8E
:1044200011DA4FF050230322C3F8182501229A60B5
:10443000D3F80421002AFBD00022C3F80421012272
:10444000DA60C3F818254FF47F03D3F83021D3F88E
:104450003431072A23D1023B032B02D8214AD35CF3
:10446000EBB17E221A4B1B49C3F80C27C3F83C2939
:104470007F231D4AC2F818310023C1F8043EC1F859
:10448000083E01F54821C1F81031C2F82431C2F8C4
:104490002C3102F5FF1202F58052C2F8A032134A05
:1044A000D2F88C3043F44063C2F88C30104A114B80
:1044B0001168C3F84415D269C3F84C2508BD2922F8
:1044C000034BC3F80C270322C3F83C2757E700BF70
:1044D00000400050009003504400EFBEB4B3000011
:1044E00000200350B0B300000020005000ED00E0B9
:1044F0000080FF000060005030B50468ACB1B4FA31
:1045000084F30122C3F11F03DBB29A4024EA0202C2
:10451000D0E8EF5FA54204D1C0E8EC2FBCF1000F5A
:10452000F6D1EAD102480B7030BD0248FCE700BF6B
:104530000000AD0B0200AD0B10B50368CB40DB07EC
:1045400010D401238B40026843EA0201D0E8EF4F08
:10455000944204D1C0E8EC1FBCF1000FF6D1F2D1B7
:10456000014810BD0148FCE70000AD0B0400AD0B95
:10457000014BC3F80405704700700150044B1A79D1
:1045800022B9012218601A71024870470248704728
:10459000D41400200000AD0B0C00AD0B08B50A4B85
:1045A0001B6833B10520FDF7C3F910B90520FDF7ED
:1045B0009DF94FF050230122C3F81825C3F81425A4
:1045C000C3F8802508BD00BFD414002010B503280F
:1045D00045D8DFE800F01802554F00224FF48073F1
:1045E0000121002003F1502318601C68012402F10E
:1045F00050221460284A1268002A47D04FF05023F6
:10460000C3F804132BE04FF05023D3F81814D3F859
:104610001824C90312D502F00303022B05D0012B85
:1046200002D0002004F0F7FC01234FF050220221B9
:10463000C2F8183508224FF48273D2E7D3F8142455
:10464000D207F1D5D3F81C2402F00302013A012A63
:10465000E7D8114A12681AB10222C3F8042310BD28
:10466000D3F80421002AFBD00022C3F80421D3F898
:104670000431F4E718224FF490734FF48071B0E7DF
:1046800020224FF492734FF40071AAE71A68002AAF
:10469000FCD018601B68E2E7D41400204FF05023D0
:1046A00010B5D3F8002152B10020C3F80001D3F8AF
:1046B00000210122C3F80823234B1B6898474FF0C1
:1046C0005023D3F8042182B10022C3F80421D3F887
:1046D0000421D3F81824D3F81824022102F003028D
:1046E000012A28D1C3F818159A604FF05023D3F847
:1046F000202162B10022C3F82021D3F820214FF4F9
:104700008072C3F80823104B05201B6898474FF0B0
:104710005023D3F82421AAB10022C3F82421D3F8CE
:1047200024214FF40072C3F80823074B0620BDE88C
:1047300010401B681847C3F80813034B01201B687F
:104740009847D2E710BD00BFD414002001460148AD
:10475000FFF7D2BEC8020020036803F01F025B0906
:10476000026004D0012B034818BF002070470248A4
:10477000704700BF0028845000258450034A430935
:10478000D35C00F01F001844C0B27047BCB30000F7
:1047900070B50546FFF7F2FF0C4C083034F81030C6
:1047A0000E46DA0508D5C3F3432304EBC3022846BB
:1047B00054F8333052689847A3682BB131462846E5
:1047C000E268BDE87040184770BD00BFCC02002011
:1047D00008B5FFF7D3FF034B083033F81000400B48
:1047E00008BD00BFCC02002008B5FFF7C7FF034B90
:1047F000083033F81000C0F3400008BDCC020020A0
:1048000008B5FFF7BBFF034B083033F81000C0F3C7
:10481000401008BDCC020020034611F0010010B585
:10482000CCB20BD1A207C4F340000DD5074A106AE1
:1048300058601062003818BF012005E004490A6A78
:104840001A600A62002AEDD010BD00BF0028845013
:104850000025845010B5FFF791FF124A083032F856
:104860001030D9051CD5C3F3432123F4F85322F8A3
:104870001030002002F10E0434F8023F13F4807F60
:1048800003D0C3F3432399420AD001303028F3D137
:10489000002342F831300448BDE81040FFF74CBE19
:1048A00010BD00BFCC02002044030020F0B5054637
:1048B00000200126044607468C420BD1114BD3F849
:1048C0007C2132B10022C3F87C21D3F87C3140F046
:1048D0000040F0BDE3B29B0003F580729B0806FA2E
:1048E00003F31D420BD002F1A04202F55042D2F870
:1048F00000C0BCF1000F02D01760126818430134E9
:10490000DAE700BF00D00050F7B506460846FFF7CB
:1049100035FF1A4F00F1080537F815300C46DB0754
:104920002AD5304604F082FC2046FFF769FF58B1D3
:104930002046FFF74DFF0022316800B201EB8003F3
:10494000C3F81025C3F810252046FFF783FF002386
:1049500001A827F815300194FFF7FEFE019B00EB3C
:104960008300D0F80022064B134043F00203C0F846
:104970000032044803B0F0BD0348FBE7CC0200203E
:10498000F0F0FCFF0000AD0B0400AD0B2DE9F0438F
:104990001646804685B00846FFF7F0FE0D463168A2
:1049A000044609B32846FFF71FFF18B12846FFF752
:1049B00027FF10BB00230DF10F02CDE900338DF866
:1049C0000E308DF80F3028460B460DF10E0104F025
:1049D000D5FB484A04F1080132F8113023F00203F4
:1049E00043F0010322F8113073687BB328461F7827
:1049F0005968FFF7F9FE10B1E9B13F4829E03D4A97
:104A000004F1080032F8103023F02003DB04DB0C43
:104A100022F8103079B1032FEFD87168D1F804E093
:104A2000D8F800109EF800C001EB8C01A7B9C1F8BE
:104A30001075C1F810752F4A04F1080132F81130D1
:104A400023F01C0343EA870322F81130B3683BBB11
:104A50002A4805B0BDE8F083D1F810E543EA4C33AD
:104A60002EF0030EC1F810E5D8F8001043F0200333
:104A700001EB8C0EDEF8101522F8103021F44F31C6
:104A800021F44071CEF810152902DEF8108501F4EA
:104A90007C5141EA074141EA0801CEF81015CAE706
:104AA0002846D3E90067FFF7D5FE002ED0D0114D80
:104AB000D5E90023964203D19F4201D1002209E0AB
:104AC0000F480DF10F01FFF717FD0C4B9842C0D1B5
:104AD0009DF80F2005EBC20308345F6035F81430F1
:104AE00045F8326043EA422343F4807325F81430DA
:104AF000AEE700BFCC0200200400AD0B0000AD0B00
:104B0000440300202DE9F0430C46804685B0204642
:104B100011461D46FFF732FE064629B32046FFF731
:104B200063FE18B92046FFF76BFE18BB334F06F142
:104B3000080937F8193013F01C0F02D04B78012BFD
:104B400018D001238DF80F3000234A1CCDE9001343
:104B500020468B1C0DF10F0104F010FB37F81930C3
:104B600043F0030327F81930002D44D02046FFF707
:104B70003BFE18B9224805B0BDE8F083002295F845
:104B800000C0D8F800301D4F03EB8C03C3F810258C
:104B9000C3F8102506F1080237F812104FEA8C0E00
:104BA00021F02001C904C90C27F812106E7816B341
:104BB000D8F80000AD787044D0F81035360423F4EE
:104BC000991323F4F853C0F81035230203F47C53EF
:104BD00006F440362D05D0F810E5334305F4801572
:104BE0002B4341EA4C3143EA0E0341F02001C0F867
:104BF000103527F812100348BDE700BFCC02002093
:104C00000400AD0B0000AD0B014BC3E9021270476D
:104C1000CC02002010B508461446FFF7F1FD50B154
:104C20000846FFF7ABFD054B083033F81030044859
:104C30005B0B237010BD0348FCE700BFCC020020D3
:104C40000000AD0B0400AD0B70B5174E054696F88D
:104C500080403CBB2146602206F1100005F038FE82
:104C600021462D68306F884212D1002345F307306A
:104C7000C5F87C31D5F87C31FCF738FE4FF00043A5
:104C8000C5F804330123094886F88030B36770BD46
:104C9000CBB29B0003F580727C2B04BFAC50AB58A9
:104CA0000131E0E70248F2E7CC0200200000AD0B42
:104CB0000C00AD0B034B93F88000003818BF0120A7
:104CC000704700BFCC0200200148FFF735BC00BF91
:104CD000400300200148FFF70FBC00BF4003002045
:104CE00073B5054608460C461646FFF789FD00B326
:104CF0000846FFF779FD0146D8B92046FFF768FD61
:104D000004B2A4000346286804F580728150296823
:104D100082582144D1F8102542F00102C1F8102533
:104D20002EB10122296802FA03F3C1F8043302B05C
:104D300070BD2046FFF722FD0E4B083033F81030CF
:104D4000C3F38203042B11D0052B11D001A80194C9
:104D5000FFF702FD019A0369D34003F00103991C98
:104D6000204602B0BDE8704004F051BA0321F7E7D5
:104D70000221F5E7CC0200202DE9F04F684BDFF867
:104D8000A481D3F80403D8F87010C0B289B040F001
:104D90000040FFF78BFD051E2FDAC24600235AF8AC
:104DA0007C1F06A8CDE90633FFF736FD4FF0000B58
:104DB0005D4B0DF118090193019A12F8013B019224
:104DC000DA081AF8022003F0070322FA03F3DA07DD
:104DD0001CD409F10409BBF1000F14D0D8F87010ED
:104DE0004FF00040FFF762FDD8F87C1006A8FFF7EF
:104DF00013FD0028DAD125F000450124002D76D1DD
:104E000009B0BDE8F08F4FF0010BD5E7474B5B448D
:104E10000293D9F800100029DBD091FAA1F1B1FA80
:104E200081F1029B1C7841EA44142046FFF7A6FC5E
:104E3000083038F81070C808BB080393012319F82C
:104E4000002001F0070103FA01F122EA010209F84A
:104E5000002005A80594FFF77FFC059A039B80328C
:104E600050F82220C7F382065B073746C2F301429F
:104E700022D520463946D6B2FFF78AFC05A805940C
:104E8000FFF76AFC059B803350F82330C3F30143DE
:104E90009E4207D10021204604F0B9F93146204650
:104EA00004F0B5F905A80594FFF756FC0122059B0F
:104EB00002FA03F30362ACE7022A0CD10321204675
:104EC00004F0A5F906F00503012BEBD13946204685
:104ED000FFF75EFCE6E702212046039204F097F913
:104EE000032EF3D0039A032ADCD1022EEDE795FAC4
:104EF000A5F3B3FA83F304FA03F29B0003F1A04392
:104F000003F55043D3F81005D3F81015C0F305206E
:104F1000C1F3014125EA0205FFF73AFC6EE700BF45
:104F200000D00050CC020020CCB30000CCB3000075
:104F300070B5084C0E462379154643B92A20FCF774
:104F4000D5FC0123044823712660A56070BD034889
:104F5000FCE700BFDC1400200000AD0B0C00AD0B23
:104F6000002330B50D4A50F8234003F5A2710133F8
:104F7000102B42F82140F6D10023084A00F13C01F1
:104F800003F5B27451F8045F0133102B42F824503A
:104F9000F6D1D0F88030C2F8043330BD00A0025002
:104FA0000123024A8340C2F80433704700A0025034
:104FB0000123024A8340C2F80833704700A0025020
:104FC000F8B5012600270B4B0B4DD3F80C4304B961
:104FD000F8BD94FAA4F0B0FA80F006FA00F324EADF
:104FE0000304064B82009F502B68002BEFD0A9686A
:104FF0009847ECE700A00250DC14002000A102500A
:105000002DE9F0410E4617460C4D55F8184FAC42AD
:1050100003D16FF01200BDE8F081314654F8440C22
:10502000A4F14408FBF7FEF930B9C7F80080404608
:10503000BDE8F04104F016BA2468E8E7E81400205F
:1050400010B5D0E909124A60416A00F124031160E9
:10505000C0E909334368044603B19847054B1A7801
:10506000062A05D95B681BB10720226802499847C8
:10507000002010BDE8140020CEB300002DE9F0415F
:1050800007460D460B4E56F8084FB44202D16FF05A
:1050900001000AE0394654F8240CA4F12408FBF777
:1050A000C1F920B91DB1C5F80080BDE8F0812468C0
:1050B000EBE700BFE814002010B5044600B3006819
:1050C000F0B10378E3B10021FFF7D8FFD8B104F1C4
:1050D0001C03C4E907330D4B04F12402D96803F122
:1050E0000800DA60A16260620A601A78062A05D9AF
:1050F0005B681BB10720226805499847002010BD56
:105100006FF01500FBE76FF01000F8E7E8140020DF
:10511000D0B3000010B5036893B11B7883B18368E6
:10512000012B0DD8084B00F144014360074BDA69AD
:1051300003F11804826444640020D961116010BD39
:105140006FF01500FBE700BF50030020E8140020BB
:105150000E4B10B5044620220021184605F0B8FB7E
:10516000226842600246217902F8081BC0E9022247
:1051700000F11002C0E9042200F11802C0E9062281
:105180002046BDE8104000F00FB800BFE814002032
:1051900008B500F011F8BDE80840202200210148C0
:1051A00005F096BBE814002008B50248FFF784FF1D
:1051B000002008BD500300200148FFF741BF00BF99
:1051C000500300200EB4431E062B33B588BF0020C9
:1051D000094B05AC54F8045B53F82010074802F063
:1051E00058FA214628460194FBF7A4FA02B0BDE81C
:1051F000304003B0704700BFB4B00000E3B300001C
:105200002DE9F04F87B017469B460446DDF840A0D5
:1052100000284BD0056A35B12D6825B1AC4607B0E2
:10522000BDE8F04F6047A36A9F4242D80026BE42C5
:1052300003D1002007B0BDE8F08F182303FB06F868
:10524000D4F82C90A26909EB08052B1D0593CAB967
:10525000686969680368B5F80CC0C91AAB680CF1D5
:10526000030E5D1E05EB0C155B4205EB4E051D4064
:1052700005EBCC0385680633A94228BF4FF0FF3108
:1052800004F0BDF859F8083020460293236AB1B201
:105290009B6A01935AF8263000935BF82620059B01
:1052A00004F025F90028C5D10136C0E76FF01500DC
:1052B000C0E70148BEE700BF40F4FFFF10B5044659
:1052C00090B1028D43899A4209D0084B1A78032A7B
:1052D00005D95B681BB14268054904209847204600
:1052E000BDE8104005F0DCBA10BD00BFE814002096
:1052F0007EB4000030B544898C4212D9436A013C27
:105300005D882C4003EBC40359609A60BFF35B8F48
:10531000426A538801335380438D01334385002013
:1053200030BD0148FCE700BF41F4FFFF70B4039EAD
:10533000144658B1006A48B143B1013406D0002E7A
:1053400004DB846F14B1A44670BC6047014870BC94
:10535000704700BF2DF8FFFF70B4039E144660B184
:10536000006A50B14BB1013407D0002E05DBD0F8F4
:10537000884014B1A44670BC6047014870BC7047B7
:105380002DF8FFFF70B50C46114605461E460C4B26
:105390002022002908BF1946204605F0C3FA049BC5
:1053A0006662A362059B2562E362069B23636A68CB
:1053B00004F13403C4E90D526B60A26B136070BD3D
:1053C0009FB400002DE9FF47DDF834900D4692466A
:1053D0001F46064600286CD000296AD0B9F1000F9C
:1053E00067D001F15808404604F0EAF9781C40D132
:1053F000AC6C05F1480314F001040BD00024013417
:10540000802C54D0620953F8222004F01F01CA40B6
:10541000D107F4D40121600953F8202004F58067F6
:1054200004F01F04A1400A4343F820200E9B52467B
:10543000CDE901930C9B3146009328463B46FFF78C
:10544000A1FF404600F000FD347874B195F890401B
:105450005CB1B36A01332ED10021304604F0DFF98C
:10546000044610B1304604F0B1F9204604B0BDE85E
:10547000F087B7F5806FD9D3A7F580637F2B05F14F
:1054800048010FD8580951F8204003F01F0324FAAF
:1054900003F2D2070BD4012202FA03F3234341F8AB
:1054A0002030C3E7054C404600F0CEFCDDE7044C5D
:1054B000F9E7024CD9E70024D7E700BF2DF8FFFF3A
:1054C00029F8FFFF2DE9F04385B00F46904603A968
:1054D0000D9A0546994604F0B1FB0446E0B10C9ED6
:1054E000039BD5F8AC009E42A8BF1E460168D0F8C9
:1054F00008C0611A33464A46614528BF4FF0FF3164
:1055000003F043FF2346424639462846009604F0FE
:1055100035FB05B0BDE8F0830048FAE72EF8FFFF41
:1055200038B50446E0B100F15805284604F006FA03
:10553000D4F8A0309B6953B9D4F89440103C002CA7
:1055400000DC084C284604F0F7F9204638BD012B52
:10555000F7D1D4F8A80004F01BF9A0F11004EEE78D
:10556000014CF2E72EF8FFFF2DF8FFFF2DE9F04781
:105570008AB00D46DDE9129790461E46044620B9D2
:10558000824F38460AB0BDE8F0870029F8D0002BDA
:10559000F6D09422002105F09BF9012204F1580075
:1055A000114604F063FD7A4BC4F8A050C4F8708033
:1055B0006C62A367774BE367774BC4F88030774B17
:1055C000C4F88430764BC4F88830764BC4F88C30FD
:1055D000D4F8A030D3F81880B8F1000F6FD1002FA5
:1055E000CED097E8070004F1940383E80700D4F8CD
:1055F000A000036A1B6998470023286100F001009E
:105600006B6184F89000B8F1000F6ED13B7A002BEB
:1056100069D009F10C03C4F8B030B9F1000FAFD074
:10562000D9F80820002A00F0AE809B68002B00F01B
:10563000AA805D4B04935D4B05935D4B06935D4BD8
:105640000793EB6A1B68C4F8A430EB6A9B69C4F843
:10565000A830002104F1B403C4E92D3306ABC4F82B
:10566000AC60009301910222D4F8A00004ABFFF7D4
:10567000C7FD0746002884D1D4F8A80004F023F819
:10568000EB6A1B68DE62EB6A9B69DE62B8F1000FB1
:1056900061D1C246D4F898300993D4F8A4305B891C
:1056A000534534D894F89030C4E90044002B59D1C4
:1056B000D4F8A0000421036ADB68984761E7B8F1D9
:1056C000010F94D1D4F8A000036A9B689847420662
:1056D00006D5D4F8A0000021036ADB689847F1E7FB
:1056E0004307EFD583E74B4695E7B8F1010FB0D1FB
:1056F0002E4B04932C4B05932E4B06932C4B079368
:10570000EB6A9B69C4F8A430EB6A1B689FE74846C4
:10571000D4F8981004F083FA0546C8B131680890AF
:10572000411AB0680022814228BF4FF0FF31D4F8FF
:105730009830304603F063FE009501230022D4F830
:10574000A40008A903F000FF18B90AF1010AA4E7B0
:105750001948074615E794F89030C4E90044002B37
:105760003FF40FAF00230293144B204601933523DF
:10577000134A009304F10801FFF704FEB8F1000F8B
:105780007FF4FFAE94E70C4FFBE600BF2DF8FFFF60
:10579000C5540000299900003D9B00003D9C00007D
:1057A0007D9B000049990000A0B40000A6B4000051
:1057B000899A0000379900002EF8FFFF8B990000AE
:1057C000ACB40000F0B505460E46174687B0074A50
:1057D00003AC07CA84E807000C9A314600922846B9
:1057E0003A460194FFF7C2FE07B0F0BD58AD000085
:1057F00070B5054600B304783CB1104C104EB4426D
:1058000005D30E4CB4420BD30024204670BD204675
:1058100004F0B2FA10B12368AB42F6D01434EEE7CC
:10582000204604F0A9FA28B128462168FAF7FAFDC3
:105830000028EAD01434E5E70446E6E7ACAA000005
:1058400024AB000038B54FF02003EFF3118583F34C
:105850001288BFF36F8F064B9C6803F0BEFB85F385
:105860001188BFF36F8F2046BDE83840FBF7CCBFEF
:105870000C150020104B70B553F82040013053F840
:105880002060A64200D870BDD4E9003595B153B16F
:105890002846984738B10028B8BF4042FF28A8BF23
:1058A000FF20EB681870EA68537843F001035370E7
:1058B0000834E6E79847FBE7D4B00000012208B5BA
:1058C000094B03201A70FFF7D5FF01F0B5FA042049
:1058D000FFF7D0FF00F082F9FAF7EAFE034A137BE4
:1058E00023F00103137308BD21170020100C0020C2
:1058F00008B50348034A0021121A04F048FA08BD0B
:10590000A8050020241700200023012270B586B0CE
:10591000CDE904230F220193CDE9023214234FF481
:10592000A0720446114D124E03FB0055114906EBBF
:10593000C01602FB0011104B3046009500F0E4F851
:10594000737B2C7423F0040373730C4B013403EB4F
:10595000C4236B600A4BEE60D3E8EF1F0131C3E84C
:10596000E21F002AF8D106B070BD00BF0C15002060
:10597000900B0020D82B0020119F0000D82300207E
:105980000815002080B50020A6B0FFF773FF2E4B4E
:1059900003F5006282F3088883F30A880024E02379
:1059A0002A4D2B4E85F82230EC772C766C76AC762F
:1059B00085F820406B6A274F43F4E0236B6285F83B
:1059C0002340FBF791FEFCF729F84FF0FF33AB6261
:1059D000EB62FCF7D7F9FCF77DF840F2011306AD56
:1059E0002846ADF82430CDE91F4401F007FAB56030
:1059F00004F0C1F90120FFF73DFF0220164DFFF72B
:105A000039FF00F0ADFE154B756105930123144974
:105A10004FF40062CDE9034328463B46CDE90144FB
:105A2000009400F071F806466A7B284622F00402D2
:105A30006A7304F054FC2046FFF766FF3A4631468D
:105A40002846FBF7D1FF00BFD823002000ED00E07F
:105A50000C150020BD580000100C0020AFB4000051
:105A6000182D002038B5064C064DAC4201D300205D
:105A700038BD2046D4E9011204F08DF91434F4E75E
:105A8000A8040020BC040020002038B5054C064DB9
:105A9000AC4200D338BD204604F0E5F90028F9DB1C
:105AA0001C34F5E7A8040020A804002073B50C46B8
:105AB0004FF02005EFF3118185F31288BFF36F8F4C
:105AC000C5685DB125602B68C3608369013383615C
:105AD000002081F31188BFF36F8F11E052EA0306B3
