:10000000D83F002045370000ABC300003137000067
:100010003137000031370000313700003137000040
:10002000000000000000000000000000FD3800009B
:100030003137000000000000953800003137000023
:10004000DD3A0000DD3A0000DD3A0000DD3A000054
:10005000DD3A0000DD3A0000DD3A0000DD3A000044
:10006000DD3A0000DD3A0000DD3A0000DD3A000034
:10007000DD3A0000DD3A0000DD3A0000DD3A000024
:10008000DD3A0000DD3A0000DD3A0000DD3A000014
:10009000DD3A0000DD3A0000DD3A0000DD3A000004
:1000A000DD3A0000DD3A0000DD3A0000DD3A0000F4
:1000B000DD3A0000DD3A0000DD3A0000DD3A0000E4
:1000C000DD3A0000DD3A0000DD3A0000DD3A0000D4
:1000D000DD3A0000DD3A0000DD3A0000DD3A0000C4
:1000E000DD3A0000DD3A0000DD3A0000DD3A0000B4
:1000F000DD3A0000DD3A0000DD3A0000DD3A0000A4
:10010000DD3A0000DD3A0000DD3A0000DD3A000093
:10011000DD3A0000DD3A0000DD3A0000DD3A000083
:10012000DD3A0000DD3A0000DD3A0000DD3A000073
:10013000DD3A0000DD3A0000DD3A0000DD3A000063
:10014000DD3A0000DD3A0000DD3A0000DD3A000053
:04015000DD3A000094
:1001540081F0004102E000BF83F0004330B54FEA74
:1001640041044FEA430594EA050F08BF90EA020FE1
:100174001FBF54EA000C55EA020C7FEA645C7FEA74
:10018400655C00F0E2804FEA5454D4EB5555B8BF97
:100194006D420CDD2C4480EA020281EA030382EA08
:1001A400000083EA010180EA020281EA0303362D9A
:1001B40088BF30BD11F0004F4FEA01314FF4801C6D
:1001C4004CEA113102D0404261EB410113F0004F7F
:1001D4004FEA03334CEA133302D0524263EB430336
:1001E40094EA050F00F0A780A4F10104D5F1200ED4
:1001F4000DDB02FA0EFC22FA05F2801841F100012F
:1002040003FA0EF2801843FA05F359410EE0A5F102
:1002140020050EF1200E012A03FA0EFC28BF4CF033
:10022400020C43FA05F3C01851EBE37101F00045E9
:1002340007D54FF0000EDCF1000C7EEB00006EEBF6
:100244000101B1F5801F1BD3B1F5001F0CD3490880
:100254005FEA30004FEA3C0C04F101044FEA4452D7
:1002640012F5800F80F09A80BCF1004F08BF5FEA5E
:10027400500C50F1000041EB045141EA050130BD3E
:100284005FEA4C0C404141EB0101013C28BFB1F550
:10029400801FE9D291F0000F04BF01460020B1FA9B
:1002A40081F308BF2033A3F10B03B3F120020CDA6E
:1002B4000C3208DD02F1140CC2F10C0201FA0CF04C
:1002C40021FA02F10CE002F11402D8BFC2F1200CB1
:1002D40001FA02F120FA0CFCDCBF41EA0C01904067
:1002E400E41AA2BF01EB0451294330BD6FEA0404B0
:1002F4001F3C1CDA0C340EDC04F11404C4F120029B
:1003040020FA04F001FA02F340EA030021FA04F3AC
:1003140045EA030130BDC4F10C04C4F1200220FA03
:1003240002F001FA04F340EA0300294630BD21FA41
:1003340004F0294630BD94F0000F83F4801306BF07
:1003440081F480110134013D4EE77FEA645C18BFFB
:100354007FEA655C29D094EA050F08BF90EA020F92
:1003640005D054EA000C04BF1946104630BD91EA8A
:10037400030F1EBF0021002030BD5FEA545C05D18D
:100384004000494128BF41F0004130BD14F58004CC
:100394003CBF01F5801130BD01F0004545F0FE4140
:1003A40041F470014FF0000030BD7FEA645C1ABF75
:1003B400194610467FEA655C1CBF0B46024650EAAC
:1003C400013406BF52EA033591EA030F41F40021D8
:1003D40030BD00BF90F0000F04BF0021704730B55E
:1003E4004FF4806404F132044FF000054FF0000133
:1003F40050E700BF90F0000F04BF0021704730B5F4
:100404004FF4806404F1320410F0004548BF4042C8
:100414004FF000013EE700BF42004FEAE2014FEA1D
:1004240031014FEA02701FBF12F07F4393F07F4FF8
:1004340081F06051704732F07F4208BF704793F0FB
:100444007F4F04BF41F40021704730B54FF460740E
:1004540001F0004521F000411CE700BF50EA010211
:1004640008BF704730B54FF000050AE050EA0102BA
:1004740008BF704730B511F0004502D5404261EB2A
:1004840041014FF4806404F132045FEA915C3FF46B
:10049400D8AE4FF003025FEADC0C18BF03325FEA08
:1004A400DC0C18BF033202EBDC02C2F1200300FAB9
:1004B40003FC20FA02F001FA03FE40EA0E0021FADE
:1004C40002F11444BDE600BF70B54FF0FF0C4CF4CC
:1004D400E06C1CEA11541DBF1CEA135594EA0C0F7E
:1004E40095EA0C0F00F0DEF82C4481EA030621EAB9
:1004F4004C5123EA4C5350EA013518BF52EA0335F4
:1005040041F4801143F4801338D0A0FB02CE4FF0A5
:100514000005E1FB02E506F00042E0FB03E54FF0D5
:100524000006E1FB03569CF0000F18BF4EF0010ECD
:10053400A4F1FF04B6F5007F64F5407404D25FEAC9
:100544004E0E6D4146EB060642EAC62141EA55517C
:100554004FEAC52040EA5E504FEACE2EB4F1FD0CBE
:1005640088BFBCF5E06F1ED8BEF1004F08BF5FEA3C
:10057400500E50F1000041EB045170BD06F00046EE
:1005840046EA010140EA020081EA0301B4EB5C049B
:10059400C2BFD4EB0C0541EA045170BD41F4801193
:1005A4004FF0000E013C00F3AB8014F1360FDEBFB8
:1005B400002001F0004170BDC4F10004203C35DA94
:1005C4000C341BDC04F11404C4F1200500FA05F317
:1005D40020FA04F001FA05F240EA020001F00042B8
:1005E40021F0004110EBD37021FA04F642EB06012E
:1005F4005EEA430E08BF20EAD37070BDC4F10C0458
:10060400C4F1200500FA04F320FA05F001FA04F21B
:1006140040EA020001F0004110EBD37041F1000107
:100624005EEA430E08BF20EAD37070BDC4F1200512
:1006340000FA05F24EEA020E20FA04F301FA05F27A
:1006440043EA020321FA04F001F0004121FA04F222
:1006540020EA020000EBD3705EEA430E08BF20EAF2
:10066400D37070BD94F0000F0FD101F0004640002C
:1006740041EB010111F4801F08BF013CF7D041EAAE
:10068400060195F0000F18BF704703F000465200B2
:1006940043EB030313F4801F08BF013DF7D043EA83
:1006A4000603704794EA0C0F0CEA135518BF95EA39
:1006B4000C0F0CD050EA410618BF52EA4306D1D1C0
:1006C40081EA030101F000414FF0000070BD50EADF
:1006D400410606BF1046194652EA430619D094EA69
:1006E4000C0F02D150EA013613D195EA0C0F05D153
:1006F40052EA03361CBF104619460AD181EA0301A7
:1007040001F0004141F0FE4141F470014FF000005E
:1007140070BD41F0FE4141F4780170BD70B54FF0F9
:10072400FF0C4CF4E06C1CEA11541DBF1CEA135579
:1007340094EA0C0F95EA0C0F00F0A7F8A4EB05045B
:1007440081EA030E52EA03354FEA013100F0888052
:100754004FEA03334FF0805545EA131343EA12631B
:100764004FEA022245EA111545EA10654FEA0026D0
:100774000EF000419D4208BF964244F1FD0404F589
:10078400407402D25B084FEA3202B61A65EB0305E5
:100794005B084FEA32024FF480104FF4002CB6EBA2
:1007A400020E75EB030E22BFB61A754640EA0C0022
:1007B4005B084FEA3202B6EB020E75EB030E22BF62
:1007C400B61A754640EA5C005B084FEA3202B6EBA3
:1007D400020E75EB030E22BFB61A754640EA9C0062
:1007E4005B084FEA3202B6EB020E75EB030E22BF32
:1007F400B61A754640EADC0055EA060E18D04FEAF0
:10080400051545EA16754FEA06164FEAC30343EA8F
:1008140052734FEAC2025FEA1C1CC0D111F4801F5C
:100824000BD141EA00014FF000004FF0004CB6E755
:1008340011F4801F04BF01430020B4F1FD0C88BFF4
:10084400BCF5E06F3FF6AFAEB5EB030C04BFB6EBFF
:10085400020C5FEA500C50F1000041EB045170BDF2
:100864000EF0004E4EEA113114EB5C04C2BFD4EB1F
:100874000C0541EA045170BD41F480114FF0000EA3
:10088400013C90E645EA060E8DE60CEA135594EA1F
:100894000C0F08BF95EA0C0F3FF43BAF94EA0C0F22
:1008A4000AD150EA01347FF434AF95EA0C0F7FF497
:1008B40025AF104619462CE795EA0C0F06D152EAEB
:1008C40003353FF4FDAE1046194622E750EA4106CF
:1008D40018BF52EA43067FF4C5AE50EA41047FF4E0
:1008E4000DAF52EA43057FF4EBAE12E74FEA410243
:1008F40012F5001215D211D56FF47873B3EB62526E
:1009040012D94FEAC12343F0004343EA505311F094
:10091400004F23FA02F018BF404270474FF0000026
:10092400704750EA013005D111F0004008BF6FF064
:10093400004070474FF00000704700BF7BB972B9A8
:100944000029BEBF00204FF0004106E008BF002888
:100954001CBF6FF000414FF0FF3000F057B8ADF10D
:10096400080C6DE904CE002909DB002B1ADB00F02A
:100974004FF8DDF804E0DDE9022304B0704740429B
:1009840061EB4101002B1BDB00F042F8DDF804E0D1
:10099400DDE9022304B0404261EB4101524263EBC2
:1009A40043037047524263EB430300F031F8DDF830
:1009B40004E0DDE9022304B0404261EB41017047E9
:1009C400524263EB430300F023F8DDF804E0DDE971
:1009D400022304B0524263EB4303704753B94AB94C
:1009E400002908BF00281CBF4FF0FF314FF0FF3033
:1009F40000F00CB8ADF1080C6DE904CE00F008F875
:100A0400DDF804E0DDE9022304B07047704700BF5D
:100A14002DE9F04786468C460846089E15467446DE
:100A24001946002B40F0C1808542B2FA82F245D9C2
:100A34004AB1C2F1200300FA02FC954094402EFA18
:100A440003F343EA0C0C4FEA154EA8B2230CBCFB8B
:100A5400FEF80EFB18CC08FB00F943EA0C43994559
:100A640028D9EB1808F1FF3704D2994502D9A8F127
:100A740002072B44A3EB0903A4B2B3FBFEFC0EFB59
:100A84001C330CFB00F044EA0344A04214D92C1993
:100A94000CF1FF3304D2A04202D9ACF102032C447E
:100AA400241A43EA07401EB1D44000233460736023
:100AB400BDE8F0874746DDE76346F1E792BB431B99
:100AC40001214FEA154EAFB2200CB3FBFEFC0EFB26
:100AD4001C330CFB07F840EA0343984561D9EB1833
:100AE4000CF1FF3004D2984502D9ACF102002B443A
:100AF400A3EB0803A4B2B3FBFEFC0EFB1C330CFBFC
:100B040007F744EA0344A7424DD92C190CF1FF33EB
:100B140004D2A74202D9ACF102032C44E41B43EAF9
:100B24000040C0E7C2F120039540944020FA03F14D
:100B34002EFA03F34FEA154E9040AFB20343B1FBD4
:100B4400FEFC0EFB1C10190C0CFB07F841EA0041DB
:100B5400884522D969180CF1FF3004D2884502D99E
:100B6400ACF102002944A1EB08019BB2B1FBFEFCED
:100B74000EFB1C110CFB07F743EA01439F420ED9FD
:100B8400EB180CF1FF3104D29F4202D9ACF10201FF
:100B94002B44DB1B41EA004193E76046E3E76146EF
:100BA400F7E76046A4E76346B8E7834206D916B977
:100BB400002108467CE7C6E900E0F9E7B3FA83F7C9
:100BC4008FB9834201D3724508D8BEEB020460EBAF
:100BD400030301209C461EB9002169E73846FAE761
:100BE400C6E9004CF8E7C7F1200CBB400EFA07F544
:100BF40022FA0CF42EFA0CF1BA401C4320FA0CF33E
:100C0400B8404FEA144901431FFA84FEB3FBF9F8D4
:100C140009FB18300B0C08FB0EFA43EA00439A4513
:100C240040D9E31808F1FF3004D29A4502D9A8F15B
:100C340002002344A3EB0A0389B2B3FBF9F809FBCE
:100C4400183308FB0EFE41EA03418E452CD9611886
:100C540008F1FF3304D28E4502D9A8F102032144DE
:100C640043EA0040A1EB0E01A0FB02984145CE46A9
:100C7400434602D306D14D4504D20138B9EB020EE6
:100C840068EB0403002EA7D0B5EB0E0261EB030161
:100C940001FA0CFC22FA07F3F9404CEA0303C6E913
:100CA400003199E74046C5E74346D9E710F8012BE0
:100CB40011F8013B012A28BF9A42F7D0D01A704795
:100CC400034611F8012B03F8012B002AF9D17047D0
:100CD400034613F8012B002AFBD1181A0138704778
:100CE400014808F0D9BC00BFF0010020014808F019
:100CF400D3BC00BFE0010020014808F0CDBC00BF18
:100D0400D001002008B5074B002218680D2109F016
:100D14008AFF054B002218681521BDE8084009F038
:100D240082BF00BFC4120020C812002073B5294E30
:100D3400294D3188294809F0DEFF2B68284CB3F58A
:100D44007A7F18DC00221721206809F06CFF002448
:100D5400002541F2EC120023CDE90045214809F0B9
:100D640029FA41F234320023CDE900451E4809F046
:100D740021FA02B070BD01221721206809F053FF47
:100D84006B68B3F5FA7FE2DBAB68B3F5FA7FDEDBC1
:100D94003288012A09D0022A16D052B9134B0122F3
:100DA4000D21186809F03FFF01221521206809F080
:100DB4003AFF002200230E48CDE9002340F2676287
:100DC400002309F0F7F9C2E7084B01220D21186846
:100DD400EDE700BF341E0020B012002018EF000021
:100DE400C812002070040020E0040020C412002077
:100DF400A8040020F0B500260E4C0F4B04388E4298
:100E040015680ADB95FBF1F5C2E901341B1B002BC5
:100E1400B8BF5B421560D360F0BD50F8047F013663
:100E24003D4415600568AC42A8BF2C46AB42B8BF30
:100E34002B46E4E7A08601006079FEFF2DE9F74F19
:100E44000027764D764EDFF8DCA16B7953B1012390
:100E54002A799340CAF804302B7C8AF810306B7CD2
:100E64008AF811302C68A36851465B68204698477D
:100E74006D4B00281860C0F2AD80142267496B4B9B
:100E840002FB0712927A1B88920648BF1BB233609A
:100E9400A268A879128901A9534395F81080019397
:100EA40004F05CFF18B9019B43FA08F333602B7913
:100EB400032B40F08F805E4CD6F8008023685D4899
:100EC4005942DFF874B101F03F0103F03F0258BF0B
:100ED4004A4240F8228001335A4640212360FFF7FA
:100EE40089FFDBF80840A8EB0400FFF783FA00222F
:100EF400524BFFF7E9FA8046DBF804008946001BF1
:100F0400FFF778FA0B46024649464046FFF706FCCF
:100F1400FFF7ECFC4A4B322818604A4B1B7876DD0D
:100F2400012B74D009F063FEDFF81C81D8E900239B
:100F34009042994159DA09F05AFED8E90023801AFF
:100F440061EB0301CC0F241841F10001640844EA69
:100F5400C1744FEA6109644269EB490914F57A7472
:100F640049F1000909F043FED8E90023821A61EB34
:100F7400030320464946FFF7E1FC344C23685942F9
:100F840001F00F0103F00F0258BF4A423049013308
:100F9400236041F8220009F02AFE0123C8E9000178
:100FA400284A13702B4C102122462948FFF722FFB0
:100FB4003168294809F09FFEDBF80C10274809F036
:100FC4009AFE1F4B2648196809F095FE21682548AA
:100FD40009F091FE0137042F05F1140506F104060A
:100FE4007FF433AF03B0BDE8F08F09F000FED8E919
:100FF4000023801A61EB03094FEAD974241849F1DC
:101004000009640844EAC9744FEA6909A6E731286B
:10101400C8DC002BC6D00023C2E700BFE8E900000B
:10102400B012002000020020C0120020361E002052
:1010340034130020381300202413002000005940EA
:10104400CC120020381E002030060020E0120020C0
:10105400E4120020D01200202AEF000032EF00003A
:101064003FEF000049EF00000020054BC3E90100F9
:101074001860D860034BC3E901001860D86070475A
:1010840024130020D012002070B50F4807F0F2FDA1
:101094000E4E30600E4807F0EDFD0E4D172128600E
:1010A400306809F0B2FD0D210446286809F0ADFD51
:1010B40015210546306809F0A8FD2C434CBF4FF0BC
:1010C400FF30C01770BD00BF53EF0000C8120020EE
:1010D4005FEF0000C412002070B504240E4D0F4EC3
:1010E40055F8060C0CF0CEFB28B115F8013C23B9D9
:1010F4006FF085033360012070BD55F8060C8368DA
:1011040029461B68984700283060F4DB013C05F150
:101114001405E5D12046EFE7EEE90000C0120020F7
:1011240013B5194809F0E7FDFFF7AEFF50BBFFF711
:10113400D3FF38BBFFF798FF044618BB4FF4A472E3
:1011440000231248CDE9002309F034F800220023DB
:101154000F48CDE9002300234FF4247209F02AF844
:10116400204603F0F5FF0B4C0346206050B9009075
:1011740002220949094804F041FC206010B902F038
:1011840069FCFCE702B010BD6BEF000070040020A6
:10119400E0040020C012002038EA000014020020FD
:1011A4002DE9F04F91B0009302F004030293C2F3CF
:1011B400C2030133840705460E46DDF868900392A6
:1011C400059340F0BB81041D30B1072909D86FF0A5
:1011D4001B0011B0BDE8F08F01F00706341DC6F105
:1011E4000806009B4FF000084FF0040A591E4FF008
:1011F400FF3347460193C3465346CDF810800DB1E3
:10120400009A22600598002800F3E8809848009A24
:10121400824203D397488242C0F0E080039AA4EB51
:10122400050E92074FEA9E0000F103810F2F00F292
:10123400B180002D00F0058107F140020DEB020C96
:10124400019A0CF8200C0CF8102C0498013004902E
:10125400E7E07A285DD84B280ED8472859D82928A2
:101264002DD8252852D054D820287AD02338D0F12C
:10127400000B4BEB000B74E04C382E2849D8DFE808
:1012840000F07048484848484848484848484B484F
:101294004848484848484859484B4B595959704B55
:1012A4006D487048184B184848827F4B48484B4853
:1012B4007F0000204FF0000B4FF0040A38E00122B9
:1012C4002A38C0B202FA00F010EA0E0F49D110F029
:1012D400625C2FD110EA020B43D06046013C5444B7
:1012E400B4FBFAF40AFB04F4002D61D0A3EB050C63
:1012F400A4446645FFF46BAF002868D1042B47D1A2
:1013040059F8043B2360042304342AE0019A013A87
:1013140001924FF0000B24E011F8010C6C2834D139
:10132400002011F8023C83466C2BC5D14FF0080A0B
:101334005346D3E709F1070929F00709073424F0D4
:101344000704F9E802AB35B106982044B0423FF6F1
:101354003EAFC4E900AB4FF0000B08344FF0080A6D
:10136400534611F8010F002878D0BBF1000F7FF429
:1013740070AF2528F5D14FF0010B019B0133019388
:101384004FF0040AECE7584694E700208346A5E7AB
:10139400082B02D06FF015001BE709F1070929F0AB
:1013A4000709F9E80223C4E9002308230834D8E72D
:1013B40068B9042B02D109F10409A4E7082BE9D187
:1013C40009F1070929F0070909F10809EDE7059A68
:1013D400013A059259F8042B009210E7039A9007FA
:1013E40020D54FF0010CA4EB050E4FEA9E00BEF58C
:1013F400007FCFD20F2FCDD8F5B107F140020DEB0E
:10140400020E019AC0B20EF8200C0EF8102CBCF19A
:10141400000F3FF41AAF60F07F000EF8200C08F1C3
:1014240001080137C5F108024FF6DA7E043406924A
:1014340097E74FF0000CDAE7BCF1000F01D001365A
:10144400EFE7029802360028EBD10098CDE9063187
:10145400FFF73EFCDDE906310644E2E7631BB3F522
:10146400806F97D245B9A6F10804E018B1E600BF31
:1014740058E500005C070100029A9B0828602B7065
:101484009DF81030C2B1EB7085F80280B8F1000FFE
:1014940005D0002208A8C5F1010C97420ED14FF0E7
:1014A400000AC5F101030DF1200901930DF1300B80
:1014B400574512D1601B8CE66B70E5E710F8013BD1
:1014C400190608D504EB0C0E764503F07F03FFF4F0
:1014D4007EAE04F8013B0132DFE7B8F1000F03D020
:1014E40099F90020002A17DB029BD3B11AF80B20CC
:1014F40004F8012B0022019B981820448642FFF433
:1015040066AE99F80000009904F8010B2046039296
:101514000CF065FF039A14440AF1010A09F1010968
:10152400C6E799F8002055F822300093029B0098F2
:1015340045F82230FFF7CCFB421CDCE76FF00D00CE
:1015440047E600BF2DE9F04F95B000AFBB61BB6F1C
:101554000446C3F3C0038A4690F802B07A623B6142
:1015640041B9457800780BEB80002044554517D8E5
:10157400A0EB040AE3787B61BBF1000F02D0BB6FE0
:10158400D80716D47B6953BB7B6A1BB151462046EE
:10159400BA699847554628465437BD46BDE8F08F8A
:1015A400461C3046FFF794FB013030440AF1010A2F
:1015B400DCE7237862683B629B00FB603B6AFA616C
:1015C40004EB83097B6A002B40F0FF80C8460026A9
:1015D400554609EB0B0AD04551D1D94413E0BB6FF2
:1015E4009907D1D5237899463B629B00FB606368D9
:1015F40004EB8909FB617B6A002B7AD15546BBF168
:10160400000F4FD15E46BB6F13F0050F0CBF4FF0B8
:10161400020B4FF0010B7B6909EB430ABB6F03F02C
:1016240002037B62D145B6D019F8021B19F8013CBC
:1016340054F82380AB4B984502D3AB4B984538D331
:101644003B69002B42D0F86909F02EFB00283DD0FD
:10165400E8468AB06A46A54B5361FB69C2E9063184
:101664004FF400731384A24B42F8103F00234FF44D
:101674001251A04801F0C6F8023DC546D2E718F859
:10168400013B54F82300FFF723FBFB6F01303BB110
:10169400D7F880309E423EBFFB6F23F81600013618
:1016A400054498E7BB6F13F004061CBF7E6AD94457
:1016B400A9E73B6923B1F86909F0F6FA0028C7D114
:1016C400BB6FDA0705D4A5EB0B05ABE77B6A002BF0
:1016D400A8D04046FFF7FCFAFB6F43B1D7F880303F
:1016E4009E423FBFFA6F431C22F816300136054470
:1016F40098E7BBF1000F6ED0BB6F13F004066DD0FA
:10170400D846002607F140005A4649460CF067FEC9
:101714007B69D9445B007B607B6909EB4303BB6055
:10172400BB6F03F002033B60BB684B4558D1B96FF4
:101734006378B86F890748BF002106EB030258BFDE
:101744004FEA5801C507D2B200F19A8010F0040F95
:1017540014BF40460020FB616270A070E170204617
:10176400BA69F9687B6A9847051EFFF614AF3B6AAD
:1017740041462370FB69BA6963707B6984F802B0DF
:10178400E37007F140007B6A9847B0F10008C0F2AB
:10179400A480FB68AAEB0B01C91A7B684846C91AE6
:1017A400BA697B6A98470028C0F299804FF0000B11
:1017B400A84408EB000507F1300AB34562D30021C1
:1017C400BA6908467B6A9847E5E65E464FF000082A
:1017D40007F1300098E75E46D84699E7B04697E7A8
:1017E40019F8021B3F4B19F8015C54F82500984284
:1017F40002D33D4B98421DD33B6923B1F86909F0EC
:1018040053FA002890D13B68FBB908F1280307F18B
:10181400280208F1010003EB020C07F1500308F160
:10182400020853FA80F00CF8101C5FFA88F800F8EC
:10183400105C79E73B692BB1F86909F035FA0028A7
:101844007FF472AFBB6FDB0709D506F1280307F1FC
:101854002802711C9E1806F8205CCEB264E7BB6FA8
:1018640058077FF561AF08F1280307F1280208F152
:10187400010103EB020808F8105C5FFA81F853E7F2
:10188400002068E71BF80A3054F8239087F82F30BB
:10189400FB6FFBB133F81B800121BA697B6A07F146
:1018A4002F00984700281ADB0544B8F1000F06D131
:1018B4004846FFF70DFA00F101081FFA88F841467F
:1018C4004846BA697B6A9847002808DB05440BF14F
:1018D400010B72E7D7F87C80DEE745465BE60546F8
:1018E40059E600BF58E500005C07010083EF0000E3
:1018F40004000001FCE80000014B1860704700BFC1
:101904002802002080B505460E461746984608F082
:101914006DFA03460CF014FE0446DFF818904246B4
:1019240049F8003039463046A84754F8090001F018
:1019340081FF00BF080000002DE9F047058B044635
:101944002807904611D4022905F0070540F0CD8000
:10195400204609F08CFC78B10138218B042811D879
:10196400DFE800F0C3106D85950001290CBF45F038
:10197400100545F02005258388F31188BFF36F8F88
:10198400BDE8F08701F0070AAA4500F0A680002709
:10199400B9463E46A368002B00F0BD8041F0080123
:1019A400218388F31188BFF36F8FA168002900F0A9
:1019B400BB800D68002900F0B780334652462046AC
:1019C400D1F80480C047002D76D02B6829461D46E7
:1019D400F0E701F007035A1F012A1BD8002221F067
:1019E4000701062B276889B2C4E9002209D13B46C6
:1019F40003E0628B013262831B68002BF9D141F052
:101A040002012046218309F032FC00287BD041F0FA
:101A1400200177E0042B0AD121F0070189B2204686
:101A2400218309F024FC10B141F020012183218B92
:101A340001F0070AAA4550D00027B946AAE723694E
:101A440021F0070141F00601062DD3F8009021830F
:101A54002DD1B9F1000F40D041F00801218388F362
:101A64001188BFF36F8F20463949C84729E021F018
:101A74000701236941F0040189B2042DD3F80490CD
:101A84002183E6D000274FF0040A3E4682E721F086
:101A94000701236941F0050189B2052DD3F80890A7
:101AA4002183D6D000274FF0050A3E4672E700276F
:101AB4004FF0060A3E466DE72B4687E7B9F1000F63
:101AC400D1D14FF02003EFF3118883F31288BFF3D1
:101AD4006F8F238B23F008032383258BEA062ED5EF
:101AE40025F01003238305F007056669218B002E7A
:101AF400BFF66FAF00232768C4E9003321F0070164
:101B040041F001012183218B4FF0000901F0070A04
:101B1400AA457FF43FAF002F9BD041F008012183F9
:101B240088F31188BFF36F8F002FC7D03D68394603
:101B340033465246204609F0C6FB2F46F4E7AB066F
:101B44007FF51AAF25F02003238305F00705FFE690
:101B5400F7B20000044608B54FF02002EFF31183FA
:101B640082F31288BFF36F8F05F0D8FD204601F091
:101B740017FE034809F0BFF801F06CFFFCE700BF53
:101B840037F0000010B530B90B480C4909F0BBFE22
:101B94006FF0150010BD836833B90748084909F090
:101BA400B2FE6FF00400F5E71B6813B1BDE8104006
:101BB40018471846EEE700BF14E9000060F0000083
:101BC40071F0000010B530B90B480C4909F09BFEC8
:101BD4006FF0150010BD836833B90748084909F050
:101BE40092FE6FF00400F5E75B6813B1BDE81040A6
:101BF40018471846EEE700BF14E9000060F0000043
:101C040071F0000070B508B101B132B90B480C494C
:101C140009F079FE6FF0150070BD84680CB1E568B9
:101C240035B90648074909F06EFE6FF00400F3E782
:101C340041F8040BE368BDE87040184714E900005C
:101C44008FF0000071F0000010B5044630B9104860
:101C5400104909F058FE6FF0150010BD006830B946
:101C64000B480D4909F04FFE6FF00100F5E783685A
:101C74000BB11B6933B90648084909F044FE6FF0FB
:101C84000400EAE7616898470028E6D12060E4E7A9
:101C940014E90000BBF00000CCF0000071F000007B
:101CA40070B51346044630B91048114909F02BFEAB
:101CB4006FF0150070BD006830B90C480D4909F08B
:101CC40022FE6FF00100F5E782680AB1956835B924
:101CD4000648094909F017FE6FF00400EAE70A46CE
:101CE400AC466168BDE87040604700BF14E900007D
:101CF400BBF00000CCF0000071F00000034A136850
:101D04000BB9526813600020704700BF2C020020FA
:101D140030B50C460E4985B00291D0F8AC11054699
:101D2400CDE9003100F1E0014FF0FF33204606F029
:101D34008BFD50B9012384F86430D5F8A83123B160
:101D4400204605B0BDE83040184705B030BD00BF9F
:101D540003BA000038B50C461146054609F051FE99
:101D6400034638B92846044909F04BFE03460020CF
:101D7400236038BD0120FBE7440601002DE9F04F44
:101D8400012381460569466885B005F55977D7E88A
:101D9400EF2F002A03D1C7E8E13F0029F7D10CBF98
:101DA4001A46002240F0B180B368B16A05F5E478C0
:101DB4001C1F104609F0AAFE84425FD8013A00F0C5
:101DC4009E80B2FA82F24FF00044D44072682046FA
:101DD400073222F00302C5F86022B16A09F096FEC8
:101DE400C5F86402B36A40466343033323F0030334
:101DF40002EB4302230103EB4403093323F00303FF
:101E040003EBC403C5F858221A440832C5F8542217
:101E14007368C5F85C42C5F850323D4BC5E9A96307
:101E2400316800F0DFF9044630BBD9F804A0D9F8D2
:101E34001090DAE9073409F5307B012B584608BFC6
:101E4400103C0BF06BFF0023DAF8240031494FF407
:101E5400806201EB802100935846234607F022FC60
:101E640009F52C702C490BF00FFFDAF81400836885
:101E74005C682CB96FF05704002139E0013298E70F
:101E84004B46264ADAF81810A04704460028F3D136
:101E9400DAF8140083681B69002BEBD00122DAF80E
:101EA4001810984704460028E6D11D4B2846C5F86B
:101EB400A8311C4BC5F8AC311B4B0393D5F8103239
:101EC4000293D5F80832CDE90083D5F86832B26AB6
:101ED400D5F8601300F04EF904460028CCD105F182
:101EE400E00006F05FFD0028C5F868030ADB022164
:101EF400384609F0BBFD204605B0BDE8F08F6FF011
:101F04000B04B9E76FF01504B6E76FF07704F2E756
:101F140059BA0000E81E00203FBA000033BA00009E
:101F2400311F0000E7BB0000A1BA000013B504464E
:101F340040B100230122CDE90032074BD0E9091258
:101F440006F036FCA36E1B6823B1E06E02B0BDE858
:101F54001040184702B010BD4406010013B50446F2
:101F64000846216901F55971D1E8AF1F022910D142
:101F740093B1A0B10121CDE900311346D0E9091292
:101F840006F016FC074B984208BF6FF00B0002B036
:101F940010BD6FF00F00FAE76FF04C00F7E76FF039
:101FA4000100F4E72EF8FFFF2DE9F74388461546B4
:101FB400066906F55973D3E8AF3F022B5FD1136866
:101FC40023B96FF0150003B0BDE8F0831B78002B34
:101FD400F7D0D6F86093B9F1000F33D106F5D8776E
:101FE4004FF0FF324FF0FF33384607F021F9304607
:101FF4002A6801A9FFF7AEFE019C1CB9384609F016
:1020040033FDDEE705F10803A3666B6984F8649089
:10201400E366E46360B1384609F026FD21463046A4
:10202400236E2A68FFF774FE0020C8F80040CAE750
:102034002022296804F140000CF008FA384609F01F
:1020440013FDF1E730460F4909F0DBFC0446002894
:10205400B7D005F1080383666B69C063C3660023C8
:1020640080F864302022296840300CF0EFF92246D1
:102074000121304600F060F80028D5D0A1E76FF0C8
:102084000F00A0E74406010010B50C46006900F5F6
:102094005973D3E8AF3F022B0FD189B10A4900F538
:1020A4002C700BF01FFE20460BF0ADF970220021BE
:1020B40020460CF0A1F9002010BD6FF00F00FBE7E3
:1020C4006FF00100F8E700BF381400202DE9F04F4D
:1020D40005460E4690460027D0F8B0A085B0AAF574
:1020E400AE7421463046FEF7E1FDE0B9114BA4F190
:1020F400400B0293DAF810303246CDE900832946CA
:102104004FF0FF335846AAF5CE7906F09DFB60B92F
:102114007023012203FB079383F86420DAF80C3060
:102124000BB158469847703417B105B0BDE8F08F2D
:102134000127D6E715BC00001FB5144690B18AB13B
:10214400012912D10A4B00F1E0010293D0F8AC311D
:10215400403201934FF0FF332046009306F074FBA6
:1021640004B010BD6FF01500FAE70020F8E700BFD7
:1021740015BC00002DE9F04387B00E46DDE90E8161
:102184001446DDE910251F4630B329B3DFF850C0EB
:1021940000F1E009002D08BF65469EB9CDE903446E
:1021A40000F5CE74204605960BF052FB03ABCDE947
:1021B40000432A463B464146484606F019FC07B010
:1021C400BDE8F083002241460E9248462A4607B0F5
:1021D400BDE8F04306F038BD6FF01500EFE700BF2F
:1021E400D1200000F0B50E46044689B000286FD017
:1021F40001230246C3630023D0F89810364F4030C1
:1022040040F80C7C42F8301FCDE901334FF0FF3326
:102214000093C36D0AF0DCFD304A06AB92E803007C
:1022240083E80300184606F0D5F90546D8B904F149
:10223400340006F0B1F90546A8B93946284805AA7C
:102244000AF0A2FD054670B9059B9A6872B10C3379
:10225400D4F89400C4F8A03009F00BFDC4F8D400FD
:1022640030B96FF00B05284609B0F0BD0346EFE71F
:10227400D4F8940009F0FDFCC4F8D8000028F0D08C
:10228400D4F88C30D4F8A010C4F8A8300423C4F8CF
:10229400AC30C4F8C4300223A362124BB4F89420C7
:1022A400D4F8D470C4F8B810C4F8D010D4F890108E
:1022B400236204F1A403A4F8B020C4F8A470C4F801
:1022C400C010A4F8C820C4F8BC00A661E362CAE741
:1022D4006FF01505C7E700BFF6F0000090E90000B5
:1022E40000F1000074EA00002DE9F04704460746B7
:1022F4004FF00109DFF8508014B93846BDE8F08783
:1023040094FAA4F5B5FA85F509FA05F32E0108EB5C
:1023140005156FEA030A24EA03042B7B002BEBD098
:1023240058F806301B694BB94644736804222846A2
:10233400196807EA0A0700F051FADDE728469847CA
:102344000028D9D1F0E700BF7CE9000030B50022B5
:1023540089B00F490F480BF0C3FE0022002300246C
:10236400CDE906230E230C4DCDE903344FF440721E
:102374002846CDE90144094B0949009406F0A4FE1E
:10238400084928460BF045FB204609B030BD00BF84
:10239400AD230000300E0020A8090020852600008F
:1023A400E822002008F10000014806F0EFBF00BF5A
:1023B400940500202DE9F04780461F480F4609F098
:1023C400AAFC0646002830D000252846BDE8F08740
:1023D400237B73B12368DB680BB1204698472368DD
:1023E4001B69D3B9636804222046196800F0F6F922
:1023F400013610344C45EBD3B8F1000FE5D0002D75
:10240400E2D02846FFF770FF0546002FF7D00021E1
:102414004FF4A47007F0D0FCF1E720469847002859
:10242400E0D00AFA06F31D43E2E705464FF0010A3D
:10243400024CDFF80C90DDE7701400207CE900000A
:102444008CE90000014B53F820007047B4EA000007
:1024540008B5034608462BB1044A136000F072FC29
:10246400002008BD6FF01500FBE700BF58020020F4
:1024740010B5044C237813B9034806F087FF0123F1
:10248400237010BD391E00209405002010B50446A9
:10249400064809F040FC3CB1054BD3E8EF1F013975
:1024A400C3E8E21F002AF8D110BD00BF6814002061
:1024B4006C14002000200146034BD3E8EF0FC3E85F
:1024C400E21F002AF9D170476814002070B5FFF7A5
:1024D400F1FF0546074C084EB44200D370BD636853
:1024E4005B792BB123685B6813B129462046984772
:1024F4001034F1E77CE900008CE9000010B5044CCD
:102504000449204609F0A4F8034B1C6010BD00BF29
:102514002C040020A0EA00006014002008B5002369
:10252400074A4FF400411370064A07481360074AEC
:102534001360FFF78DFFBDE80840FFF7DFBF00BF62
:102544003A1E00206814002017BD00006C140020FF
:10255400014600220023014809F09BB82C04002006
:10256400014809F034B900BF2C040020024B014695
:10257400186809F07EB900BF60140020014809F012
:10258400B4B900BF2C04002070B5264B187800287D
:1025940047D0FFF7E5FF054670B1234BD3E8EF1FA3
:1025A4000139C3E8E21F002AF8D1204C204EB4427E
:1025B4002DD32846FFF7DAFF1E4B1F4C1B68002B58
:1025C40019DD0BF046FD4FF47A72A0FB020302FB07
:1025D4000131C30B43EA4143D4E900209B1A40F282
:1025E400E9324FEAD13161EB0001934271F100010C
:1025F40001D3FFF76BFFD4E9003213F57A7342F18C
:102604000002C4E90032BDE87040FFF7B7BF636859
:102614005B7923B12368294620461B689847103408
:10262400C5E770BD391E00206C1400207CE9000051
:102634008CE9000068140020280E002070B50D4DB0
:10264400297861B90120FFF7B5FE0B4C0B4EB4425B
:1026540006D3FFF799FF0028FBD101232B7070BD2F
:1026640063685B791BB1236820469B6898471034E4
:10267400EDE700BF3A1E00207CE900008CE9000071
:1026840000212DE9F0470846FFF794FE044658B3AD
:1026940040F267684FF000090BF052FF1B4B1C4AD5
:1026A4001B58136033B11B4B1B68092B02DD1A48FE
:1026B40006F06CFE0025194FDFF85CA044B12046FB
:1026C400FFF712FE044618B94FF0FF384FF0FF39F8
:1026D400FFF75AFF064628B9B5B942464B4650465D
:1026E40006F07AFE3546E9E74FF0FF384FF0FF3940
:1026F400D2E72B689B691BB10022284611469847F4
:102704001035BD42F5D3E8E7054DFAE708000000AF
:10271400641400206C140020940500208CE900004F
:102724007CE9000013B5184809F0F5FA174B1B783B
:102734007BB14FF02003EFF3118483F31288BFF3CE
:102744006F8FFFF721FF84F31188BFF36F8F02B0FF
:1027540010BD0F4B1B68002BF9D050B90022002389
:102764000C48CDE900234FF40042002307F022FD7A
:10277400EDE70928EBD107480BF0BEFC064802B090
:10278400BDE8104006F002BE6C1400203A1E002082
:1027940064140020300E00209405002010B5064B70
:1027A40004461B6898472146A060044808F0EFFFE0
:1027B400BDE81040FFF7B6BF580200202C040020EB
:1027C400044A054B9B1AB1EBD30F34BF52F83100C6
:1027D40000207047BCE800007CE90000084B10B4FE
:1027E400C31A44681B110133237143689A7101228F
:1027F4004368196043685A7110BCFFF739BE00BFC3
:102804007CE900002DE9F04F8FB0C1F34A2804AFF2
:102814000D469146B8607B600C0DB8F1000F63D093
:1028240000264FF0040B4FF00A0A07F11403C7F80F
:102834000C80C7E907667E620193CDF808B0CDF835
:1028440000A007F11C0332464846F968FEF77AFEF9
:10285400B0F5006F03461CD36C468AB0D9F8041057
:1028640004AB26481A46C3E9050140F2FF71D96159
:102874004FF400711984224B42F8103F4FF4125167
:1028840033462048FFF7BEFFA5462C37BD46BDE8BA
:10289400F08FC0F30A0804F11700184420F0070071
:1028A40080083B60FFF754FE68F35325044690B15B
:1028B4003B6800F11001C7E9083607F11403F96118
:1028C400CDE900A3CDF808B048460F4AF96807F1EE
:1028D4001C03FEF737FE68F353252A4620467B681F
:1028E400B96809F04AFAD0E704F1170020F00700AC
:1028F4008008FFF72DFE0446EDE700BF1DF1000040
:10290400040000011CE9000053BD00002DE9F04F54
:1029140087B00446DDE9105ADDE912690F46934693
:102924009846A6B31021334652460020CDF80090B5
:10293400CDF81490FEF734FC014605F11700084465
:10294400144B04F007040BF0070BE40020F007001D
:1029540003EA412344EA8B1480081C430391FFF7E4
:10296400F7FD44EA0554054640B13EB133465246AC
:102974000399CDF800901030FEF712FC434622462E
:102984003946284607B0BDE8F04F09F0F6B931469C
:10299400D3E700BF00FE0F000EB403B503AB53F83A
:1029A400042B01460448019301F0BAFA02B05DF821
:1029B40004EB03B0704700BF91BE0000CA0605D403
:1029C4008B064CBF02490349FFF7E6BF704700BFBF
:1029D40043060100420601002DE9F04F89B09B46F1
:1029E400DDE916769DF84C3004460493DDE9149332
:1029F4000593049B0D460692002B00F0878006F099
:102A04000803079309F0A1F906F0020A0246002818
:102A14004BD020468549FFF7BFFF8046BAF1000F2F
:102A240008D016F0440F42D12A4620468049FFF7C9
:102A3400B3FF804406F001035BB17E4B049A204649
:102A440053F822207C4B7D49002A08BF1A46FFF721
:102A5400A3FF06F00803002B55D0794B049A2046B7
:102A640053F822207749FFF797FF0546069B2BB1C1
:102A74001A4620467449FFF78FFF0544BBF1000F47
:102A840005D05A4620467149FFF786FF0544454460
:102A9400B9F1000F49D1002F4FD1F30700F1C080E5
:102AA40031462046FFF78AFFB4E08046B6E7684B1C
:102AB40018680028BDD0674B4FF47A7E1B684FF42A
:102AC4006162B5FBF3F5B5FBF0F300FB13550EFBA8
:102AD40005F5B3FBF2FAB5FBF0FC3C2102FB1A321C
:102AE40000FB1C55B2FBF1F30EFB05F5B5FBF0F54D
:102AF40001FB132220460092CDE901C552465649F6
:102B0400FFF74AFF95E706F00805AFE7BBF1010FB1
:102B140006D1B9F1000F64D1002F7BD000250CE061
:102B2400B9F1000FF8D04D485CE04D484B462246C1
:102B34004C4908F088F8002F68D0DFF82C91DFF8B2
:102B44002CA1102F31462046B8464FF0000B28BF69
:102B54004FF01008FFF732FF5D4545DC059B5146F9
:102B640020461A78FFF718FF4FF0010B1BF0070FF0
:102B740003D149462046FFF70FFFD8453BD9059BB3
:102B84005146204613F80B20FFF706FF0BF1010B0B
:102B9400BBF1100FEAD14FF0000B20463449FFF788
:102BA400FBFE5A46059B20469A5CA2F120015F2950
:102BB40028BF2E222F49FFF7EFFE0BF1010BBBF1CB
:102BC400100F1DD01BF0070F03D149462046FFF715
:102BD400E3FED8455A46E5D849462046FFF7DCFED1
:102BE400EBE71F48049DA1E749462046FFF7D4FEC2
:102BF4000BF1010BB0E720461F49FFF7CDFEC5E7F7
:102C0400059BB7EB0807434405939AD1049B002B1B
:102C14007FF443AF204609B0BDE8F04F09F029B96D
:102C24002046054A0549FFF7B7FE39E761F1000080
:102C340065F10000C4EA00005CF100008DFB0000B7
:102C4400D8EA00008AF1000090F1000094F100003D
:102C540078140020741400206EF10000BFBE000040
:102C640091BE0000253F00000E06010099F100000E
:102C74009FF10000A1F100000C0601002DE9F041D4
:102C84000F884B6805460C4690468E6886B0C7F39D
:102C940082175BB1144A9B1A43F3CF01002920DB4E
:102CA4002078C0F3C200FFF78BFD0346214651F89C
:102CB400102B6088C2F34A22002A01EB020408BFE9
:102CC40000210022C0F30B10CDE90408CDE9021461
:102CD4002846314601970092FFF77EFE06B0BDE814
:102CE400F0810023E2E700BFBCE8000042F20F736A
:102CF40073B58B4228BF0B46056804460521684618
:102D04000D4A07F0EDFC0646636828460B225B6813
:102D14000A4909F0A1F863683246694628465B68A7
:102D240009F09AF863681B2228465B68044909F095
:102D340093F802B070BD00BFDFF70000C0F10000DF
:102D4400A4F1000000210123064A904206D8064A55
:102D540001B901231360054B186070470121400835
:102D64005B00F2E740420F00741400207814002046
:102D7400F8B50D460446064F4618B44201D128461C
:102D8400F8BD14F8011BBB6801485B689847F4E779
:102D940044E60000014B03600020704720EB000074
:102DA4002DE9F04F002703689DB002934368DFF8D4
:102DB400BCA103938368DDE902460493C3680593C9
:102DC4000369DDE904BE0693436907938369DDE97A
:102DD400062C0893C36998460993089B0093CD5920
:102DE4000CAB2DBA5AF8049BDD514FEAF223A944E7
:102DF40083EAB213009D83EA72634B4425EA020519
:102E040002EA0C0985EA09052B44434486EA0B05CA
:102E14004FEA743888EAB408254006EA0B0985EAC3
:102E2400090588EAB4580437A844402F03EB0E057B
:102E34004344DE46DDF8008040F088804FF0100AFD
:102E44004B490A9151460AF1010A0DF1700E0AF03C
:102E54000F070EEB870757F8407C01F00F094FEA84
:102E6400B748019788EAF71801F10E0707F00F0732
:102E74000EEB870757F8407C09314FEAF74E8EEA8C
:102E8400774ECDF82CE001F00F010DF1700E0EEB32
:102E940081010EEB890959F840EC51F8401CBAF154
:102EA400400F7144DDF804E088EADE08DDF82CE028
:102EB40041448EEA972E714405EA02084FEAF52E42
:102EC4002CEA050787EA08078EEAB51EDDF8288094
:102ED4008EEA756E774458F804EF49F8401C77443D
:102EE4000F4400994FEA733E394484EA0607CDF84B
:102EF40028808EEAB30E07EA030704EA06088EEA7E
:102F0400B35E87EA080777440F4401EB0B0ECDF854
:102F140000C0B34622D1029939440160039919448F
:102F2400049B416023448360059B3344C360069B38
:102F340073440361079B2B444361089B13448361DF
:102F4400099B6344C3611DB0BDE8F08FB346CDF85F
:102F540000C0264694461C462A4640E79446264628
:102F64002A461C4675463B466CE700BF20EB000032
:102F74005CEB000010B50446C8B17022002108F0D3
:102F8400DFFF0B4B0B4A0C49C4E900230B4B0C48E5
:102F9400C4E902130B4BC4E9040301200A4BA361E7
:102FA40003F17453A3F52303A3F69243E36110BD25
:102FB40085AE67BB67E6096A72F36E3C3AF54FA5C6
:102FC4007F520E518C68059BABD9831F014807F0D3
:102FD40045BA00BF20EC000038B5044618B90F4BC1
:102FE4000F485B6898476168B1F5683F10D0B1F548
:102FF400680F0DD00B4DA9420AD011F46861206806
:1030040007D0014608480AF0D8FC00232360656015
:1030140038BD14220BF0F0F9F9E700BFBC0300201F
:1030240006F200002C5F5CA9A819002008B560B363
:103034004368B3F5683F0ED0B3F5680F18D0144A4F
:10304400934220D000684FF0FF324FF0FF3306F078
:10305400EFF858B115E001220368D3E8EF1F002907
:1030640003D1C3E8E02F0028F7D10AD1002008BD1E
:103074000368084A1B7803F5807352F82330002B49
:10308400F4D00548F3E70548F1E76FF4E040EEE7D4
:103094002C5F5CA900000350E98FFFFFEA8FFFFF5C
:1030A40008B520B34368B3F5683F09D0B3F5680F9A
:1030B40013D0114A93421DD0006806F07DF814E045
:1030C40000220368D3E8EF1F012903D1C3E8E02FEE
:1030D4000028F7D109D0094808BD00210368084A2F
:1030E4001B7803F5807342F823100020F4E76FF493
:1030F400E040F1E70348EFE72C5F5CA9E98FFFFFAD
:1031040000000350EA8FFFFF10B5044618B91D4BA9
:103114001D485B6898476368B3F5683F2FD0B3F5E3
:10312400680F2CD0194A934219D1236803BB4FF07E
:10313400FF324FF0FF332146154805F059FF08B917
:1031440023681BB90F4B13485B689847142200216E
:1031540020680BF051F94FF46863636008E0B3F53D
:10316400683F0DD83A2B03D040F6BA629342DED1C1
:1031740020680AF069FC636843F03A03636010BD99
:10318400054AF3E7BC03002006F200002C5F5CA9AB
:10319400A81900202CF200003A00003A08B50649AC
:1031A4004023142205480AF0FAFBBDE8084004490C
:1031B400044807F0C5B900BFA8140020A8190020CE
:1031C40028EC00003CEC00002DE9F04780460C465A
:1031D40000AF002936D0D1E90012E9468AB06D4625
:1031E400A3684FF0050A2E461A48C5E90723C5E926
:1031F400050146F810AF002332464FF4215116481A
:10320400FFF700FBD4E90312CD466369AD461348CA
:10321400C5E90723C5E90501C5F810A00023324616
:103224004FF421510C48FFF7EDFACD46E369012133
:103234000B4A094808F0FAFDA3690121094A064826
:1032440008F0F4FD2146404605F03EFDBD46BDE8CC
:10325400F08700BF59F200005CE9000088F200002A
:10326400B7F20000C6F2000030BFFFF7FDBF00BF99
:10327400114B124A2DE9F041D518013DB5FBF3F588
:10328400DFF83C805D430F4B074608EB0304013C29
:10329400B4FBF3F403FB04540E1B30460A490BF051
:1032A4009EF8701942460021083E0BF0A5F87E678F
:1032B40004F10800BDE8F0810100000000000000F6
:1032C40004000000040000008CE90000044B99682D
:1032D4005869884203D003494FF080520A6070470E
:1032E400241C002004ED00E070B52A4C06460D466F
:1032F40029482A4909F05EF8A36ADB0647D526481F
:10330400274909F057F81120A36A1C0704D522485D
:10331400244909F04FF812201E4CA36A990712D5CC
:1033240021491D4809F046F8636BA26A120609D5C3
:1033340001211E4A184808F079FD1EB1A36A23F042
:103344008003A3621320134CA36ADE0704D512483A
:10335400174909F02FF81420A36A9C0604D50E48D7
:10336400144909F027F815200A4B9A6AD10658BF68
:103374009A6A9A6A920642BF5A6A22F400525A62C0
:103384009A6A42F0FF029A6200232B7070BD1020EB
:10339400BAE700BF00ED00E05CE90000F4F20000D1
:1033A4000AF300003DF3000050F3000068F300004E
:1033B4007EF300009DF3000010B5244C24492548F9
:1033C40008F0F8FFA36A99013ED52248224908F083
:1033D400F1FF1E20A36ADA0104D51E481F4908F034
:1033E400E9FF1F20194CA36ADB0204D519481C49C4
:1033F40008F0E0FF0220A36A1C0304D5154819490C
:1034040008F0D8FF2120114CA36A590304D51148B0
:10341400154908F0CFFF2220A36A9A0304D50D486A
:10342400124908F0C7FF2320084CA36ADB0304D524
:1034340008480F4908F0BEFF2420A36A6FEA03433B
:103444006FEA1343A36210BD1D20C3E700ED00E043
:10345400CCF300005CE90000E4F30000F7F30000A3
:1034640011F400003BF4000059F400007EF4000065
:1034740098F4000070B5294C06460D4628482949A1
:1034840008F098FFA36AD9043CD52548264908F0DA
:1034940091FF1720A36A1A0504D52148234908F08F
:1034A40089FF18201D4CA36A9B0512D51C4820498E
:1034B40008F080FFA36BA26A100409D501211D4AFC
:1034C400174808F0B3FC1EB1A36A23F40043A362B7
:1034D4001920124CA36A590504D51148164908F05D
:1034E40069FF1A20A36ADA050ED50D48134908F0BE
:1034F40061FF1B20094A936A43F47F4393620023CC
:103504002B7070BD1620C5E7A36A9B04F2D504484E
:103514000B4908F04FFF1C20ECE700BF00ED00E072
:103524005CE90000C3F40000D9F400003DF300009E
:10353400EAF4000003F5000018F5000033F500007C
:103544009DF300002DE9F0418AB0654B0446D3F8A1
:103554000480002600AFC8F3080586F31188BFF382
:103564006F8F02F07F43B3F17F4F07D102F00C035A
:10357400082B12D15B495C4808F01CFF0026344636
:103584000023FB71EB1E092B00F28980DFE803F0B6
:103594000A7F827C87878787878510074CBF0C4604
:1035A4000126EDE75149504808F004FF00234C4D33
:1035B400FB71EB6A9A0705D54D494B4808F0FAFEB2
:1035C400002332E0EB6A002B01DA4A49F5E7EB6AA3
:1035D4005B00F5D54849444808F0ECFE6B69A269E4
:1035E40043F480736B61BFF34F8FBFF36F8F6B69CD
:1035F40032F8022C23F480736B61BFF34F8FBFF357
:103604006F8F4DF602739A4208D0AB6ADBB273B384
:103614000120F91DFFF768FE034606E02368012137
:10362400364A314808F002FC2368FA79DAB907F11E
:10363400080504F1200C2A4620686168083403C296
:1036440064451546F7D17A6A002E44D0C2F30801C6
:1036540021B96FEA52226FEA42227A62184607F1D0
:103664000801FFF7B1FD2837BD46BDE8F081AB6A1C
:1036740013F47F4F04D00120F91DFFF7FBFECBE7C5
:10368400AB6AB3F5803F9BD3FFF796FEC4E70020F7
:10369400F91DBFE70020F91DEFE719498DE7194A25
:1036A40018F4F87FE8468AB0174B18BF13466A46E9
:1036B4001649103DC2E905134FF400731384144BEB
:1036C400D56142F8103F00234FF411510648FFF72B
:1036D40099F8C54674E722F4FF7222F00102BCE7B0
:1036E40000ED00E079F500005CE90000A4F50000BD
:1036F400BBF50000DCF50000EAF5000009F6000067
:1037040025F6000060F500004BF5000049F60000C6
:1037140004000001044B5A6942F010025A615A69CC
:1037240042F480625A61704700ED00E0EFF30880D4
:10373400EFF3098101B57246FFF704FF01BD00BF35
:10374400002080F31488BFF36F8F002080F30A8871
:1037540080F30B8800F090FD00200E490860BFF351
:103764004F8F0D4880F3088800F03EF8202080F346
:1037740011880A484FF40061401880F30988EFF378
:1037840014800221084380F31488BFF36F8F00F084
:1037940009F9000094ED00E0D83F0020982E0020A5
:1037A400BFF34F8F0549064BCA6802F4E062134326
:1037B400CB60BFF34F8F00BFFDE700BF00ED00E01B
:1037C4000400FA05002318460649D1F89020C2F3F4
:1037D4000722934200DB7047C1F89830C1F8A0007B
:1037E4000133F6E700ED00E010B572B6002484F36F
:1037F4001388FFF7E7FF23464FF0FF300C4A03F12D
:1038040020010133102B42F82100F8D100234FF09E
:10381400FF30074A03F160010133102B42F8210005
:10382400F8D162B6BFF34F8FBFF36F8F10BD00BFE7
:1038340000E100E0084B9B6883420BD1EFF3058362
:1038440043B1064B5A6842F080525A605A6A22F4D5
:1038540000425A620AF09FBB241C002000ED00E0E5
:103864006FF00A01084A9368D967084998674B685A
:1038740043F080534B60002383F31188BFF36F8FB1
:103884009368D86F704700BF241C002000ED00E04F
:1038940016498A684FF030001044EFF3098C80E831
:1038A400F01F202080F31288BFF36F8F104F4FF06A
:1038B40000664A698A603E604FF0740414192068F7
:1038C4000C4C2060906F0023936780F3118802F101
:1038D400300090E8F01F8CF3098802F1000004B571
:1038E40008F070FDBDE8044070470000241C00206F
:1038F40004ED00E0C41900201EF0040F0CBFEFF328
:103904000880EFF30980816911F8021C0229FFD0B5
:1039140001B508F044FD01BD40B2002807DB0123D6
:103924004109034A00F01F00834042F821307047E8
:1039340000E100E040B200280CDB01220649430903
:1039440000F01F008240203341F82320BFF34F8F43
:10395400BFF36F8F704700BF00E100E0054B4209E1
:1039640053F82220012300F01F0003FA00F0104056
:10397400704700BF00E100E040B2002801F10101FE
:10398400ACBF00F16040064B4FEA4111C9B2ABBF76
:1039940000F5614000F00F0080F8001319547047DF
:1039A40014ED00E00B4A08B50B4B22F07F029A603D
:1039B400BFF34F8FBFF36F8FD3F8882022F47002C8
:1039C400C3F8882005F034FA06F028FA00F078F8F5
:1039D40005F078FA0000000000ED00E042F8203C19
:1039E400009B0B4942F81C3C019B21F0010142F869
:1039F400183C029B42F8081C42F8143C4FF08073B8
:103A040042F8043C0023203A02658367704700BFF4
:103A1400091900000A4B446F98600A4B1C60436EFE
:103A240083F30B88104681F30988002163B681F380
:103A34001188BFF36F8F00220023FDF763FF00BFDF
:103A4400241C0020C4190020014910220A60704778
:103A540010ED00E072B6404080F31188BFF36F8F21
:103A640001B500F007FB00280AD0BFF34F8F30BF29
:103A740000BF00BF00BF00BF00BF00BF00BF00BF4A
:103A8400BDE8014062B6BFF36F8F704772B649401C
:103A940081F3118801B500F0EDFA00280AD0BFF3D4
:103AA4004F8F20BF00BF00BF00BF00BF00BF00BFDB
:103AB40000BF00BFBDE8014080F3118862B67047C3
:103AC400002320210348C2180133452B82F8001338
:103AD400F9D1704700E100E001B5EFF30580A0F1F2
:103AE40010004FEAC0000449014409C99847BDE8E1
:103AF400014002490847000094E60000D13200006A
:103B04001FB5094C094A23460121094800F00AF966
:103B140000230393074B0121E41A01A801930294A3
:103B240000F00AF904B010BD0000072000000020D6
:103B34004CEC00003006002010B50C7A0B6804F041
:103B44001F0223F01F031A43CB68640923F01F03E9
:103B5400054943EA440343F00103C1F89800C1F85E
:103B64009C20C1F8A03010BD00ED00E0072810B57E
:103B740008D901210346054A054808F057F96FF0B2
:103B8400150010BDFFF7D8FFFBE700BF60F600008B
:103B94003CE900002DE9F04F8946144606464FF0F3
:103BA4000008514D85B0C84527DAD6F804A0BAF10B
:103BB400000F44D0BAF11F0F17D91AF01F0F14D1F8
:103BC400D6F800B01BF01F0F0FD1584608F0FEFBCB
:103BD40007460AEB0B00013808F0F8FB874210D0C7
:103BE4006FF01507414A3B4601E04346404A012134
:103BF400404808F01BF96FF01504204605B0BDE8F5
:103C0400F08F17F1160FEDD0BC42EBDDC5F89870BC
:103C1400D5F89C10C5F89870D5F8A03021F01F0194
:103C240043F01F0BD6E900321A44994202F1FF3ADD
:103C34001DD1D34507D13146F8B208F0D0FB08F1C5
:103C440001080C36AFE73146C5F89870D5F89C30BA
:103C540022F01F0203F01F031343C5F89C30E0B2A7
:103C640008F0BDFB10F1160FC5D0441CE7E7C5F8FA
:103C74009870D5F8A020013B23F01F0302F01F0227
:103C84001343D3453146E0B2C5F8A030E8D008F07C
:103C9400A6FB10F1160FAED0C5F89870D5F89C208D
:103CA4009DF808300BF1FF3B62F304038DF80830F4
:103CB400D5F8A0309DF808205B0863F347128DF80F
:103CC4000820D6E900321344009323F01F035B4419
:103CD400A3EB0A03013023F01F036946C0B2039328
:103CE400FFF744FFBEE700BF00ED00E0A9F60000C7
:103CF40086F600003CE900000522044BC3F894203A
:103D0400BFF34F8FBFF36F8F704700BF00ED00E02C
:103D1400BFF35F8F0022024BC3F89420704700BFAB
:103D240000ED00E010B5034C2278FFF733FF20705C
:103D340010BD00BF3C1E00202DE9F74F294D8A46D7
:103D440006464FF00008AB46274FD0451BDAD6F89D
:103D54000490B9F1000F3FD031680846019108F092
:103D640035FB0199044609EB0100013808F02EFBEC
:103D740084424FF014021D4B08D002FB08F36FF08D
:103D840015024BF8032003B0BDE8F08F14F1160FB1
:103D94002C60F8D01978A142F5DD02FB08B0C7F811
:103DA4009840C7F89840D7F89C4000F10801007B80
:103DB40064F304000871D7F8A0000C79400860F39C
:103DC40047140C71D7F89C1021F01F016960D7F8D3
:103DD400A01021F01F01296108F1010814350C36E7
:103DE400B3E700BFC819002000ED00E03C1E00202E
:103DF400F0B53A4D87B02C68082C6CD80020FFF73A
:103E040087FF374B374AC3F8C02084420DD1364D63
:103E140001A82C70FEF7BEFF00240646334FA642CD
:103E24000AD1FFF769FF002053E0696801EB001134
:103E3400FFF782FE0130E8E70199200101EB04134A
:103E4400DA683A40B2F5001F22D0B2F5800F2CD0C8
:103E5400B2F5801F36D15A689B680958013B22F09D
:103E64001F0003440120844623F01F0340EA4C1042
:103E7400CDE902218DF8100002A928780593FFF7F7
:103E840075FE002823DB2B78013401332B70C6E741
:103E94005A689B680958013B22F01F0003444FF005
:103EA400020C012023F01F03E0E75A689B680958BD
:103EB400013B22F01F0003444FF0000C062023F0C6
:103EC4001F03D3E701210A4A0A4807F0A6FF6FF04F
:103ED400150007B0F0BD4FF0FF30FAE758EC0000D2
:103EE40000ED00E0AAFF44003C1E00200000F0FFAB
:103EF400CCF600003CE9000008B5024B1B6898476B
:103F0400002008BDDC190020034B044A1860937894
:103F140043F0020393707047DC19002084020020F0
:103F2400F0B587B007460E461446002110226846B5
:103F34001D460AF061FA02238DF80230054B2A4629
:103F440021466846CDE90476019306F0F5FB07B0F7
:103F5400F0BD00BF15C4000008B50649064821F0AD
:103F64000701C1F1005202F5E02207F028F9002010
:103F740008BD00BFDB600020E019002000F01F0234
:103F840040090DD001280DD1094B03EB8203D3F86E
:103F9400002222F0E04242EA0171C3F800127047A5
:103FA400044BF2E70023803253F82230FFDE00BFD7
:103FB400002884500025845038B50124134B144D37
:103FC400C3F8004502230321C5F8D0360020FFF7CB
:103FD400D5FF20460321FFF7D1FFC5F8044721464A
:103FE400C5F804492120C5F8004BFFF7C7FF214657
:103FF4002020FFF7C3FF21460B20FFF7BFFF214618
:104004000A20FFF7BBFF002038BD00BF001000509E
:104014000040005007B50DF1070008F080FD114B7A
:1040240098421CD14FF480620F4B1049C3F8B82555
:104034004FF40062C3F83C259DF8070008F05BFDCF
:104044000B499DF8070008F051FD01209DF8073049
:10405400984003F0BBFC002003B05DF804FB6FF054
:104064000B00F9E70000AD0B00A002502CA0025099
:1040740028A10250052370B5144D154E2C78013437
:10408400B4FBF3F303EB8303E41A08F01DFD114AB8
:10409400137823B156F82430C01A072814D94FF0E6
:1040A4005023D3F8141141B10021C3F81411D3F8EB
:1040B40014312C700CB9012313702C7808F004FD12
:1040C40046F82400012070BD0020FCE73E1E0020BD
:1040D400EC1900203D1E002048B1054B054A1B6821
:1040E400B3FBF2F35843044B43F001031847704702
:1040F400F402002040420F00E0E9000070B5049C87
:10410400C4F30726304603F00FF9E5B2014628460A
:1041140008F0FDFC00220120074BA40B04F0FC0472
:104124001A51A84003F058FC304603F0B1FA28466F
:10413400BDE8704003F044BD80A0025073B501A8EF
:1041440003F038FD264B984247D103F083FA041E4E
:104154000ADA9DF8040003F033FD01212346214AC5
:10416400214807F063FE35E040F607031F4D8DF844
:104174000540AE68ADF806307468019B14B96FF061
:104184005704EAE708212846194AA047041EE4DB3D
:104194003369002BF3D00122082128469847041ED6
:1041A400DBDB01209DF80430984003F00FFC9DF800
:1041B40005009DF804509DF8076008F070FC014666
:1041C400284608F098FC0B4BB60045F000459D517D
:1041D400002CC2D1204602B070BD6FF01204BCE7BF
:1041E4000000AD0B01F700006CE9000058E6000088
:1041F400FD41000080A102502DE9F341144683687B
:104204001B690BB100229847C4F30726304603F01C
:1042140093F80546304608F042FC4FF00008E7B238
:104224000146384608F077FC104B220E920043F802
:104234000280304603F078F80D4A4FEA943C0CF0C3
:10424400FC0C47F0004342F80C300146384608F0B5
:104254004DFC084B05F1320200933046434601946D
:10426400520008F025FC02B0BDE8F08180A10250A4
:1042740080A002500141000003F08ABA1022174BBB
:1042840070B5C3F840244FF47F03D3F83021D3F83A
:104294003431072A1BD1023B032B02D8104AD35CCA
:1042A400ABB14FF05024012600250520C4F8186650
:1042B400C4F8145608F018FC3046C4F8146608F024
:1042C40013FCC4F81456C4F81856002070BD4FF0FF
:1042D40050230022C3F81426F7E700BF0030005033
:1042E40032F700000E4B402928BF402170B51D460F
:1042F4000C4C4618B04203F1020304D1002305F824
:104304001130074870BD02781209A25C03F8022C30
:1043140010F8012B02F00F02A25C03F8012CE9E76C
:104324005D1E0020A7F7000030B503788BB004466B
:1043340007AD032B21D8DFE803F0021A1C1E124933
:104344002846FCF7BDFC059563781E210493A378E9
:104354000E4A0393E3780E48029323790193637919
:104364000093A37906F0BCF909480BB030BD0949A4
:10437400E6E70949E4E70949E2E70A212846084A49
:1043840006F0AEF9DFE700BF62F7000084F7000033
:104394003F1E002069F7000070F700007AF7000064
:1043A400DAF9000038B50546054808F068F904460E
:1043B40020B101210C3008F09CF92576204638BD47
:1043C400040600200246002070B50B460A49D1E8D5
:1043D400EF4FC1E8E50F002DF9D124B9BDE87040D5
:1043E4000120FFF7DFBF01212082217604F10C00B8
:1043F40008F07FF9204670BD0001002070B5054625
:104404000E3D012D0C461046194603D8BDE87040F8
:10441400FFF7D8BF64B1094808F031F9044628B160
:1044240001210C3008F065F901232376204670BD84
:104434000120BDE87040FFF7B5BF00BFAC05002008
:10444400012110B50C3008F078F9BDE8104003786C
:104454000121024A024807F0F5BF00BFC0F700007F
:10446400D4E8000010B50749074809F02AFC031EE8
:1044740006DABDE810400121044A054807F0E2BF0E
:1044840010BD00BFA8020020E80E0020E2F70000E3
:10449400D4E800000B46B0B50D8A00AF04462946A7
:1044A400D868FFF71FFF8AB06A46094BC2E9075074
:1044B400C2E9053440F202439384064B42F8103FAC
:1044C40000234FF432510448FEF79CF9BD46B0BDB9
:1044D400FFF7000005000001D4E8000037B502EB47
:1044E400C303934204D103B0BDE83040FFF7D2BF09
:1044F400144614F8085B854211D10B8A54789C4207
:1045040007D901210090074A074807F099FC03B036
:1045140030BD0846536803B0BDE830401847224612
:10452400DFE700BF21F80000D4E8000038B51E48DA
:1045340008F0C2F80446002835D0017E01292ED1A6
:10454400038A012B04D8194A194807F07BFF1BE0A2
:1045540002210C3008F0F1F8037805460E3B012BDC
:104564000CD840F69B23134A1349144806F067FFFE
:10457400404080F311884FF0030002DF03232146FB
:104584000F4A2878FFF7AAFF204601F0CBFB0D4B1A
:10459400D3F804313BB1BDE83840FFF763BF0B46A5
:1045A400094A0121D0E738BD0401002043F8000086
:1045B400D4E800005FF8000093F80000C1F80000A0
:1045C400E8EC000000000020DEF8000010B5012136
:1045D40004460C3008F0B1F82146BDE81040002331
:1045E400014A0078FFF77ABF00ED00002DE9F0439F
:1045F40083B0804602AF907A0E46144601F0E8FA82
:10460400434D85421AD0A47A6E46204601F0E0FA62
:104614008AB002AA3F4BC2E90740C2E90538062323
:10462400556242F8103F00234FF442513A48FEF7D6
:10463400E9F8B5460437BD46BDE8F083204601F0ED
:10464400CFFA4FF00C09354D09FB00504388434520
:104654000DD0204601F0C4FA09FB00504388022122
:1046640000932F4A43462C4807F0EAFBE2E7DFF8C1
:10467400B480D8F8000120B101F054FB0023C8F83D
:104684000031204601F0ACFA4FF00C0808FB005052
:104694004368CBB1C6B9204601F0A2FA012208FB57
:1046A40000504068D0E90031007A01F01F0C02FA92
:1046B4000CF2490908B303EB8103D3E8EF0F10436D
:1046C400C3E8E10F0029F8D1204601F089FA4FF040
:1046D4000C0808FB00508368002BABD0204601F087
:1046E4007FFA08FB00F02E54204601F079FA08FB0B
:1046F4000055A86804F04AFE9CE7D24303EB81030B
:10470400D3E8EF0F1040C3E8E10F0029DCD0F7E74E
:10471400D8050020F2F80000D4E80000001A0020B8
:1047240027F900000000002038B5042104460C30AD
:1047340008F003F84578017822464088FFF756FFD1
:1047440025B1BDE83840024804F020BE38BD00BFA2
:10475400E800002070B5032104460C3007F0EDFF9B
:1047640040F635420578B0F80100E36890421B78C2
:1047740006D1BDE870400221074A084807F062BE2E
:1047840022461946FFF732FF25B1BDE870400448C0
:1047940004F0FCBD70BD00BF5AF90000D4E800006D
:1047A400E800002010B5C1E900239DF808300C464C
:1047B4000B7201F015FA0C22024B02FB00335C6011
:1047C40010BD00BF001A00202DE9F0474FF0FF3262
:1047D4004FF0FF33064617480F4607F050FF4FF0DF
:1047E4000008044600F10C0A0121504607F081FF3D
:1047F400204684F8188001F0F3F94FF00C090E4DAF
:1048040009FB00504680204601F0EAF909FB0050FC
:10481400C0F80880204601F0E3F909FB00550321A4
:104824005046C5F8048007F068FF0680877020466C
:10483400BDE8F087D8050020001A00202DE9F041DA
:10484400074615460C4688B021B9FFF7BDFF04465C
:10485400002854D002AE01220021304609F08EF91E
:10486400204601F0BDF90C23DFF8A08003FB008093
:104874008660204607F039FF0146254807F033FFDC
:104884004FF4A0223046002304F0A6FD064688B16A
:1048940040F24B131F4A2049204806F0D0FD32460F
:1048A40039461F4806F0CBFD404080F311884FF095
:1048B400030002DF204601F093F90C23584318F853
:1048C4000060A6B102213B46164A1748009607F03D
:1048D400B7FA204601F026FA092E13D00D2E0CBF8C
:1048E4006FF00B006FF0040008B0BDE8F08115B163
:1048F4002C600020F8E7204601F014FAF9E76FF085
:104904006800F1E76FF06E00EEE700BF001A0020C8
:104914000C0100205FF8000090F90000C1F80000CD
:1049240099F90000C5F90000D4E800002DE9F04130
:1049340082B0C34D00AFD5F82431996811F001015C
:1049440019D140F603403A1DFFF778FF04460028CA
:104954006BD17868C3681B785BB905F1D403D3E8DD
:10496400AF2F02F00902D3E8EF1FC3E8E42F002CB5
:10497400F9D101F0D7F9002141F203003A1DFFF704
:104984005DFF0446002850D17B68AE4EDA68D2F849
:104994000100D2F8051003C6184601F0C3F92146F8
:1049A40041F201003A1DFFF749FF044600283CD1BB
:1049B4007868C3685A7885F870205A88A5F87220F8
:1049C4001A7985F87120B3F80720A5F87420B3F894
:1049D4000530A5F8763001F0A5F9214641F2020030
:1049E4003A1DFFF72BFF0446F8B9D7F804C0DCF8EA
:1049F4000C20531C4132344618685968083303C4E8
:104A040093422646F7D1604601F08CF901F086F80E
:104A1400044650B995F87C3058060BD401218A4AD3
:104A24008A4807F0FAF96FF0120420460837BD46A9
:104A3400BDE8F081214642F203003A1DFFF7FEFE75
:104A440004460028F1D17A68814BD168D1F801007D
:104A5400D1F8051003C3104601F064F995F87C30D1
:104A6400990617D4022140F66D40FFF7ADFE0646C5
:104A740000284AD002210C3007F03FFE0123447085
:104A840022460370314640F66D40FFF7D7FE0446D8
:104A94000028CAD195F89C301A0712D5002142F299
:104AA4001C003A1DFFF7CAFE04460028BDD17868F1
:104AB400C368D3F80120D3F80530C5E9382301F0E1
:104AC40031F9082142F20100FFF77EFE0446E0B10D
:104AD40008210C3007F011FE022600222146067040
:104AE40042708270C270027142718271C27142F26C
:104AF4000100FFF7A3FE0446002896D1082140F6E2
:104B04000140FFF761FE804610B96FF068048CE73E
:104B140008210C3007F0F1FD80234370202304703A
:104B240084700471447184712246C670C371414615
:104B340040F60140FFF782FE044600287FF475AF7B
:104B440001463A1D4FF60140FFF778FE40B1414A55
:104B540002213E4807F061F900F076FD044664E75F
:104B64007B686E46DC688AB0B4F80130032B96BFCC
:104B7400394A3A4952F823106A46D3614FF4007314
:104B840037481384374BC2E9050142F8103F00232C
:104B94004FF413512D48FDF735FEB4F80120B54606
:104BA400022AB4F803306BD1052B69D82E4A52F887
:104BB40023106E468AB06A46D3614FF400732B48C3
:104BC4001384284BC2E9050142F8103F4FF41351F6
:104BD40000231E48FDF716FEB546637994F806C017
:104BE400032B98BF224AB4F80760D4F809006C4636
:104BF4008CB094BF52F8231018496A46C2E9073CA6
:104C04004FF40073DFF86CE093851B4BC2E905E1B8
:104C1400C2E9096042F8103F00234FF473510B4876
:104C2400FDF7F0FDA546786801F07CF800214FF609
:104C340002403A1DFFF702FE044618B30F4A87E705
:104C44000000002078000020E9F90000D4E800000A
:104C5400D80000200DFA0000C8EC0000E1F90000C3
:104C640031FA000004000001B0EC00004AFA000030
:104C7400A0EC000062FA0000070000018FFA0000B7
:104C84000F4996E77868C368B3F80130A5F8C130D6
:104C940001F048F895F8C1305B077FF55DAF214618
:104CA4004FF603403A1DFFF7C9FD08B1054A4FE727
:104CB4007868C3685B7885F8C03001F033F84BE757
:104CC400E1F90000B8FA0000F7B5144B054693F972
:104CD4009B300C46002B1DDA14B9204603B0F0BDFE
:104CE400082C4FF0000142F2180001AA264628BF02
:104CF4000826FFF7A3FD0028F0D1019F3246F9688A
:104D04002846013109F06BFB384601F00BF83544B5
:104D1400A41BE1E76FF08500E0E700BF000000207E
:104D240070B58EB06C4606460A4D0D2E0FCD0FC4DD
:104D34000FCD0FC40FCD0FC495E8030084E8030022
:104D44009DBF0EAB03EB860656F8380C02480EB036
:104D540070BD00BF98E90000E1F90000024BD3F8F0
:104D640024315B69184700BF0000002070B53F4D37
:104D74003F4EEB686FF39433EB604FF0FF324FF02C
:104D8400FF330121394805F04FFA60B140F618337A
:104D9400384A3949394806F052FB404080F31188BB
:104DA4004FF0030002DFEB68C3F38633022B06D90E
:104DB400042B07D00221324A324807F043FB04F0A7
:104DC40079FFD6E72B7B002BF9D1002200232E4854
:104DD40007F05AFC0446002839D04FF0FF334FF057
:104DE400FF322A4804F0F8FAD6F8003113BB204603
:104DF40007F07BFCC6F800012046FFF7AFFF03462F
:104E04000028DCD00121224A1E4807F01BFB1F4862
:104E140004F0BCFA204600F0E3FE0C221D4B1F21D7
:104E240002FB003022464088FFF7E0FB204600F0FA
:104E340079FFC4E70121184A124806F0EEFFD6F8BC
:104E4400000100F06FFF0023C6F80031CFE740F601
:104E5400AA23084A1149094806F0F1FA404080F3B0
:104E640011884FF0030002DFB7E700BF940200206F
:104E7400000000205FF8000090F90000C1F8000075
:104E840003FB0000D4E800000C010020E80000202F
:104E9400E1FA0000001A002024FB000012FF0000C9
:104EA4002DE9F041044600F10C06304607F04DFCB4
:104EB400278A0546012F0AD83B4601211C4A1D4872
:104EC40007F0C0FA2046BDE8F04100F02BBF3046A1
:104ED400022107F032FC03780646052B21D00E3B55
:104EE400012B21D940F6CA63134A1449144806F029
:104EF400A6FA404080F311884FF0030002DF4FF020
:104F04000208022321460F4A3078FFF7E7FA18F027
:104F1400020FD7D06369278213FA85F5E560BDE8EF
:104F2400F0814FF00308ECE74FF00108E9E700BF18
:104F340043F80000D4E800005FF800003FFB0000E5
:104F4400C1F80000D8EC000010B5037E0446012B24
:104F54001CD1C3681B78052B06D00E3B012B05D84A
:104F6400FFF79EFF002010BDFFF79AFF21460D4872
:104F740007F08CFB0C490D4808F0A3FE031EF1DA80
:104F840001210B4A0B4807F05DFAEBE701210A4ABD
:104F9400084807F057FA204600F0C4FE6FF01500E9
:104FA400E1E700BF04010020A8020020E80E002071
:104FB400E2F70000D4E8000058FB0000084A03466A
:104FC400D2F8240130B9D96839B1596929B1C2F884
:104FD400243170476FF0770070476FF01500704709
:104FE400000000202DE9F84F434B00AFD3E8EF2F2A
:104FF40042F00402C3E8E12F0029F7D113F8CD2CC5
:10500400A3F1D4043D4D3E4B2046012A88BF1D46E2
:105014006E46FFF789F98AB06A463A4BD061C2E915
:105024000535394B1362394B42F8103F00234FF4D6
:1050340023513748FDF7E6FB0125B5462646DFF840
:10504400D480DFF8D490DFF8C8A0E37907369D4216
:105054003ADB94F870506E462846FFF761FE8CB038
:105064006A46B4F87210B4F87630C2E907514FF4C6
:1050740000755362DFF8A4C0294BC2E905C0158549
:1050840042F8103F00234FF453512148FDF7BAFB77
:10509400B54694F871603046FFF742FE8AB06A461E
:1050A400B4F874301F49C2E907631F4BC2E9051005
:1050B400958442F8103F00234FF433511448FDF710
:1050C400A1FBBD46BDE8F88F3046FFF72DF9EB464E
:1050D4008AB06A4640F20133C2E90585D06113847F
:1050E40042F8109F00234FF413515046FDF78AFBFA
:1050F4000135DD46A9E700BFD400002044060100C5
:105104006CFB000070FB00000002010304000002BD
:10511400D4E800007FFB00000400000190FB0000C5
:1051240006000001CEFB00000500000110B5FFF7EA
:10513400FDFB044608B9FFF755FF044B1B681BB180
:105144002046BDE81040184710BD00BF781A002063
:1051540070B53A4D0646D5F8243188B04BB90121D3
:10516400374A384806F059FE6FF01204204608B05A
:1051740070BD05F1D403D3E8EF2F22F00202C3E897
:10518400E12F0029F7D1D3E8EF4F44F00102C3E83F
:10519400E12F0029F7D114F001044CD12A4B1E60F1
:1051A400012205F1E800114608F0E8FC05F58670D7
:1051B40008F0C3FC00220023CDE906236FF00803A6
:1051C4004FF48062CDE90243CDE900441F4B2049EE
:1051D4000494204803F078FF1F491E4808F019FC86
:1051E4001E4808F09BFD6FF007034FF496621C49BC
:1051F4001A48009404F056FA1A49184808F009FCB1
:10520400D5F82431DB689847044630B103460121C0
:10521400154A0C4807F016F9A8E73EB9FFF786FBD4
:1052240004460028A2D1FFF7DDFE9FE705F1C40084
:1052340004F032FA9AE76FF0770497E70000002051
:10524400F5FB0000D4E80000781A0020714D00003E
:10525400E8250020680E00200EFC0000E80E002067
:10526400E829002014FC00001AFC000000487047E4
:1052740077EF0000F8B506460024094DEF79E3B254
:105284009F4202D86FF0010007E02946304607F03C
:10529400DBF80735631C08B12046F8BD1C46EEE771
:1052A4000000002037B504460D4671B12846124966
:1052B40007F0CAF848B929461048C4EBC40420448E
:1052C40007F0D1F8002003B030BD684607F0ABF812
:1052D4000028F8D16846FFF7CDFF0028F5DA074B20
:1052E400C4EBC4006946184407F0BDF8002DE9D0AA
:1052F40001462846E4E700BF4FF700000000002005
:1053040038B506221149054609F07EF8C8B10621D0
:1053140042F20500FFF758FA0446A0B106222946D6
:105324000C3007F0F0F90022214642F20500FFF7A5
:1053340085FA38B90548294607F090F8012300F8A2
:10534400013C002038BD6FF06800FBE769000020D5
:1053540070B50D460446C0B1204907F075F8A0B9F0
:105364002378012B04D1A37903F0C003C02B07D009
:1053740001211B4A1B4807F06FF86FF0150070BD40
:105384002046FFF777FF002821DA002DF5D1164DCE
:10539400EB79012B1ED005F1D403D3E8AF3FDB0733
:1053A40007D4002CE9D020460C4907F04DF800281A
:1053B400E3D1EE792146731C3046EB71FFF772FF9F
:1053C40008B93046DBE7EB79013BEB71D7E76FF0C7
:1053D4007700D4E76FF00B00D1E700BF4FF7000070
:1053E40039FD0000F4E8000000000020F7B5044691
:1053F40038B9174A0221174807F02EF8002003B0E5
:10540400F0BD002141F2090001AAFFF717FA064690
:1054140008B1114AEEE7019F0622FD680F490135E4
:10542400284608F0F1FF28B1062228460C4908F066
:10543400EBFF18B9384600F075FCDFE72946601C1D
:1054440007F00CF83846267000F06CFC0120D6E713
:1054540067FD0000F4E8000080FD00005CF7000038
:1054640056F7000007B56846FFF7C0FF044BD87134
:1054740018B169460020FFF715FF03B05DF804FB7F
:1054840000000020F7B51F4B054693F8C2300E46C6
:10549400DB0708D41C4A02211C4806F0DDFF002467
:1054A400204603B0F0BD00214FF6094001AAFFF7E2
:1054B400C5F9034608B1164AEDE701981627C268F4
:1054C40054780232B44228BF34469C4209DC00F0CE
:1054D40029FC002CE4D102210E4A0C4806F0BCFF42
:1054E400DEE7114607FB035602F1140C51F804EBF6
:1054F400614546F804EBF9D109880133318016324D
:10550400E3E700BF000000209EFD0000F4E8000077
:10551400CAFD0000EAFD000070B5154D88B0EC79B5
:105524002CB9012102A8FFF7ADFFE871C0B9002131
:10553400084608B0BDE87040FFF70ABF02AB06FB9F
:1055440002310DF1010006F089FF0123694610467E
:105554008DF80030FFF7A6FE013410B108B070BD1D
:105564001626EB79E2B29342E8D80020F6E700BFB2
:10557400000000202DE9F04190460E461D460246EB
:1055840050B14BB13103047810D5730708D501210C
:105594002A4A2B4806F060FF6FF01500BDE8F08141
:1055A40006F070FF0028F9D1012341E0F70730D558
:1055B400244FB8F1000F13D0B0060AD4C4EBC403CF
:1055C400FB5C012B13D02B70B20620D543F00203F1
:1055D4000BE097F8D8305906F0D46FF08500DDE77A
:1055E400C4EBC403FB5C012B01D02B700FE007213B
:1055F40001FB04711046013106F03CFF0028CDD1B7
:10560400C4EBC4043B5D2B70B8F1000FDCD1002067
:10561400C4E773070ED50B4EC4EBC407F35D012B2F
:10562400E3D1072111FB0431314406F023FFF35D7C
:105634002B70B3E706F026FFB6E700BF13FE0000A9
:10564400F4E800000000002038B5104DEB7913B1E8
:105654000024204638BDFFF705FF044628B10C4A54
:1056640001210C4806F0F8FEF3E7EB79002BEFD1AB
:10567400FFF752FF04460028F1D1681CFFF740FEF3
:1056840004460028E5D0044AEAE700BF00000020F1
:1056940032FE0000F4E8000051FE00002DE9F74F4F
:1056A4000C46202192460090FFF78EF8054600280C
:1056B40055D020210C3007F020F82022814600210B
:1056C40008F09AFE002609F1010B04EBCA0A002334
:1056D400D4F80080626893420CD30834A245F6D112
:1056E40000222946009889F8006003B0BDE8F04F15
:1056F400FFF7A4B898F80120B01C11181F2998F8D6
:1057040000C015D9BCF1090FC0F11F0201D1002A54
:105714000CDC0121134A144806F07FFB284600F0F4
:1057240001FB6FF0150003B0BDE8F08F4FF0080CDB
:10573400D7B2791C0BF80610711CC9B20BF801C062
:10574400D8F804105BFA80F00193023708F047FEA2
:10575400019B3744FEB2013308F10808BAE76FF041
:105764006800E0E774FE0000C4E80000F8B545688E
:105774000646690535D4046914B115F0010330D027
:10578400194F3078FB7983422BD9C0EBC000072234
:105794001649384408F038FEA8B115F0010306D1C3
:1057A40097F87020082A02D8B2689F2A19D915F0F0
:1057B400300F09D0ACB1EA060AD405F46035B5F56A
:1057C400603018BF0120F8BDEB0601D4002CF4D1E1
:1057D400D6E902239A4204D81F2A02D9B3F5804F8E
:1057E400EBD90020EFE700BF000000204FF70000D6
:1057F4002DE9F04FD1F810A08BB0BAF1000507469F
:10580400794818BF0125059306F066FE40070C464B
:10581400934640F1DD800846FFF7A8FF28B96FF0F2
:10582400150528460BB0BDE8F08F204606F041FE72
:1058340081460028F3D007F11008404606F04CFEDC
:105844000106C0F3C01300F1C680CDE90733CDF8DB
:105854002330A3686068ADF81830E3686FF4005132
:10586400ADF81A3006F029FE8DF825005E4806F0E2
:1058740036FE23785D4A3B7082F86F3038462A46FC
:1058840061680DF11D03FFF775FE05460028C8D1B8
:1058940007F10900BAF1000F13D0216906F02AFEBE
:1058A400204606F0B3FE63680646DA0716D4980568
:1058B40003D4149B0BB9022E44D102238DF81C305F
:1058C40019E04B4906F016FE204606F09FFE636879
:1058D4000646DD07EBD58DF81CA00CE013F0100F85
:1058E4000CBF0123042321690DF11E008DF81C3027
:1058F400A94606F0FFFD0F2142F20600FEF764FF01
:10590400054600286AD00F2206A90C3006F0FBFEDB
:105914002946002242F20600FEF790FF05460028C1
:105924007FF47FAFBAF1000F12D03846012106F0A0
:105934007DFE074620B301212E4A2F4806F06DFA5A
:105944003D466EE70323DDF850908DF81C30D2E716
:10595400159B594600933846CDE90196149B059A48
:1059640006F0E2FD00283CD13846012106F05EFE37
:1059740007460028DFD1676887F00207C7F34007AE
:10598400404607F001020E2106F0BBFD731E5A4289
:105994005A414046082106F0B4FDB11E4A424A412C
:1059A4004046092106F0ADFD626840460A2102F036
:1059B400010206F0A6FD4A4640460B2106F0A1FD71
:1059C40062680D214046C2F3800206F09AFD28E782
:1059D4006FF00A0525E76FF0770522E76FF0680599
:1059E4001FE705461DE700BFD4000020000000208B
:1059F4004FF700008DFE0000C4E8000073B51546A3
:105A0400069A0C46CDE900322B460A460146114857
:105A1400FFF7EEFE21460646002340F201109D42A8
:105A240002D1304602B070BD0A88824204D14A686D
:105A340012B11278D20702D401330831EFE70649D4
:105A4400064808F071F94FF470220023034803F06C
:105A5400CDFEE6E7180000209D5A0000300000202B
:105A640008B50B4806F007FE6FF48041094806F0BC
:105A740036FD084806F030FD03461B06C0F3C0108F
:105A840005D5BDE808400021014806F0CFBD08BD9A
:105A9400180000202800002010B5FFF7E1FF03469E
:105AA40030B1BDE810400221024A034806F0BEB9F5
:105AB40010BD00BFA8FE0000C4E8000030B58DB0E2
:105AC400202104A8FFF700F90446E8B908F0C1FA58
:105AD4004FF47A75A0FB053205FB0121DB0B43EA89
