:1000000010370020851700006BAF0000711700004B
:1000100071170000711700007117000071170000C0
:100020000000000000000000000000003D1900007A
:100030007117000000000000D518000071170000C3
:100040001D1B00001D1B00001D1B00001D1B0000D0
:100050001D1B00001D1B00001D1B00001D1B0000C0
:100060001D1B00001D1B00001D1B00001D1B0000B0
:100070001D1B00001D1B00001D1B00001D1B0000A0
:100080001D1B00001D1B00001D1B00001D1B000090
:100090001D1B00001D1B00001D1B00001D1B000080
:1000A0001D1B00001D1B00001D1B00001D1B000070
:1000B0001D1B00001D1B00001D1B00001D1B000060
:1000C0001D1B00001D1B00001D1B00001D1B000050
:1000D0001D1B00001D1B00001D1B00001D1B000040
:1000E0001D1B00001D1B00001D1B00001D1B000030
:1000F0001D1B00001D1B00001D1B00001D1B000020
:100100001D1B00001D1B00001D1B00001D1B00000F
:100110001D1B00001D1B00001D1B00001D1B0000FF
:100120001D1B00001D1B00001D1B00001D1B0000EF
:100130001D1B00001D1B00001D1B00001D1B0000DF
:100140001D1B00001D1B00001D1B00001D1B0000CF
:040150001D1B000073
:1001540053B94AB9002908BF00281CBF4FF0FF312A
:100164004FF0FF3000F00CB8ADF1080C6DE904CE8F
:1001740000F008F8DDF804E0DDE9022304B070477C
:10018400704700BF2DE9F04786468C460846089E16
:10019400154674461946002B40F0C1808542B2FAD8
:1001A40082F245D94AB1C2F1200300FA02FC95401B
:1001B40094402EFA03F343EA0C0C4FEA154EA8B20E
:1001C400230CBCFBFEF80EFB18CC08FB00F943EA39
:1001D4000C43994528D9EB1808F1FF3704D2994507
:1001E40002D9A8F102072B44A3EB0903A4B2B3FB81
:1001F400FEFC0EFB1C330CFB00F044EA0344A0425B
:1002040014D92C190CF1FF3304D2A04202D9ACF159
:1002140002032C44241A43EA07401EB1D4400023AD
:1002240034607360BDE8F0874746DDE76346F1E775
:1002340092BB431B01214FEA154EAFB2200CB3FB16
:10024400FEFC0EFB1C330CFB07F840EA0343984505
:1002540061D9EB180CF1FF3004D2984502D9ACF106
:1002640002002B44A3EB0803A4B2B3FBFEFC0EFB79
:100274001C330CFB07F744EA0344A7424DD92C195D
:100284000CF1FF3304D2A74202D9ACF102032C448F
:10029400E41B43EA0040C0E7C2F1200395409440C8
:1002A40020FA03F12EFA03F34FEA154E9040AFB251
:1002B4000343B1FBFEFC0EFB1C10190C0CFB07F8EE
:1002C40041EA0041884522D969180CF1FF3004D273
:1002D400884502D9ACF102002944A1EB08019BB284
:1002E400B1FBFEFC0EFB1C110CFB07F743EA0143B8
:1002F4009F420ED9EB180CF1FF3104D29F4202D970
:10030400ACF102012B44DB1B41EA004193E7604658
:10031400E3E76146F7E76046A4E76346B8E783424C
:1003240006D916B9002108467CE7C6E900E0F9E7DA
:10033400B3FA83F78FB9834201D3724508D8BEEB71
:10034400020460EB030301209C461EB9002169E707
:100354003846FAE7C6E9004CF8E7C7F1200CBB4081
:100364000EFA07F522FA0CF42EFA0CF1BA401C43EB
:1003740020FA0CF3B8404FEA144901431FFA84FEF3
:10038400B3FBF9F809FB18300B0C08FB0EFA43EA2F
:1003940000439A4540D9E31808F1FF3004D29A4546
:1003A40002D9A8F102002344A3EB0A0389B2B3FBE8
:1003B400F9F809FB183308FB0EFE41EA03418E45A8
:1003C4002CD9611808F1FF3304D28E4502D9A8F163
:1003D4000203214443EA0040A1EB0E01A0FB029872
:1003E4004145CE46434602D306D14D4504D2013899
:1003F400B9EB020E68EB0403002EA7D0B5EB0E0296
:1004040061EB030101FA0CFC22FA07F3F9404CEA10
:100414000303C6E9003199E74046C5E74346D9E7F7
:1004240010F8012B11F8013B012A28BF9A42F7D09A
:10043400D01A7047034611F8012B03F8012B002A48
:10044400F9D17047034613F8012B002AFBD1181A7F
:1004540001387047014808F0A3B800BF48020020E3
:10046400014808F09DB800BF38020020014808F098
:1004740097B800BF280200202DE9F74F214C002532
:10048400A046214EDFF884A0214F637953B10123A4
:1004940022799340CAF80430237C8AF81030637CB4
:1004A4008AF81130D4F800B0DBF8083051465846C9
:1004B4005B6898470028386019DB142202FB058228
:1004C400144B927A1B88920648BF1BB23360DBF848
:1004D4000810A079098994F810904B4301A901935D
:1004E40005F052F918B9019B43FA09F33360013559
:1004F400032D04F1140406F10406C6D103B0BDE8CB
:10050400F08F00BF38EE00002011002058020020B8
:100514002C1100200A1C002008B5074B0022186883
:100524000D2109F0B0FA054B002218681521BDE829
:10053400084009F0A8BA00BF30110020341100208F
:1005440037B5264D264C2B682068B3F57A7F17DC27
:100554000022172109F097FA0024002541F2EC1239
:100564000023CDE900451F4808F0D8FD41F234329C
:100574000023CDE900451C4808F0D0FD03B030BD90
:100584000122172109F07FFA6B68B3F5FA7FE3DBE8
:10059400AB68B3F5FA7FDFDB144B1A88012A09D064
:1005A400022A16D052B9124B01220D21186809F003
:1005B4006AFA01221521206809F065FA0022002355
:1005C4000C48CDE9002340F26762002308F0A6FD41
:1005D400C2E7074B01220D211868EDE72011002026
:1005E40034110020F804002068050020081C0020B5
:1005F400301100203005002070B50F4807F0E6FAEE
:100604000E4E30600E4807F0E1FA0E4D17212860B7
:10061400306809F02AFA0D210446286809F025FA01
:1006240015210546306809F020FA2C434CBF4FF0E1
:10063400FF30C01770BD00BFCCF40000341100209F
:10064400D8F400003011002070B503240E4D0F4E75
:1006540055F8060C0DF04FFC28B115F8013C23B9F0
:100664006FF085033360012070BD55F8060C836874
:1006740029461B68984700283060F4DB013C05F1EB
:100684001405E5D12046EFE73EEE00002C110020D2
:1006940037B5FFF7B1FFB8B9FFF7D6FFA0B900240B
:1006A40000254FF4A4720023CDE90045074808F063
:1006B40035FD4FF424720023CDE90045044808F0C9
:1006C4002DFD01F0E7F9FCE703B030BDF80400208C
:1006D40068050020014B1B68184700BF6C0200200E
:1006E40030B585B004460D461022002168460EF050
:1006F40011F902238DF80230044B2A46214668463C
:10070400019308F057FF05B030BD00BFD9060000C3
:1007140080B505460E461746984608F01BFB03466F
:100724000EF09CF90446DFF81890424649F8003070
:1007340039463046A84754F8090001F09BF800BF39
:10074400080000002DE9F047058B04462807904671
:1007540011D4022905F0070540F0CD80204609F0A8
:100764005EFC78B10138218B042811D8DFE800F051
:10077400C3106D85950001290CBF45F0100545F0A7
:100784002005258388F31188BFF36F8FBDE8F087B8
:1007940001F0070AAA4500F0A6800027B9463E46A4
:1007A400A368002B00F0BD8041F00801218388F389
:1007B4001188BFF36F8FA168002900F0BB800D681A
:1007C400002900F0B780334652462046D1F8048011
:1007D400C047002D76D02B6829461D46F0E701F06E
:1007E40007035A1F012A1BD8002221F00701062BF8
:1007F400276889B2C4E9002209D13B4603E0628B31
:10080400013262831B68002BF9D141F002012046BA
:10081400218309F004FC00287BD041F0200177E01B
:10082400042B0AD121F0070189B22046218309F063
:10083400F6FB10B141F020012183218B01F0070A5E
:10084400AA4550D00027B946AAE7236921F0070139
:1008540041F00601062DD3F8009021832DD1B9F182
:10086400000F40D041F00801218388F31188BFF3C1
:100874006F8F20463949C84729E021F007012369D1
:1008840041F0040189B2042DD3F804902183E6D009
:1008940000274FF0040A3E4682E721F0070123694E
:1008A40041F0050189B2052DD3F808902183D6D0F3
:1008B40000274FF0050A3E4672E700274FF0060A6C
:1008C4003E466DE72B4687E7B9F1000FD1D14FF0D3
:1008D4002003EFF3118883F31288BFF36F8F238B08
:1008E40023F008032383258BEA062ED525F0100375
:1008F400238305F007056669218B002EBFF66FAFD1
:1009040000232768C4E9003321F0070141F0010105
:100914002183218B4FF0000901F0070AAA457FF4D7
:100924003FAF002F9BD041F00801218388F3118849
:10093400BFF36F8F002FC7D03D6839463346524608
:10094400204609F098FB2F46F4E7AB067FF51AAF73
:1009540025F02003238305F00705FFE6A7A0000088
:10096400044608B54FF02002EFF3118382F3128896
:10097400BFF36F8F05F0A2FE204600F031FF03485D
:1009840009F093F801F086F8FCE700BFE4F40000F6
:10099400034A13680BB9526813600020704700BF04
:1009A4007002002030B50C460E4985B00291D0F893
:1009B400AC110546CDE9003100F1E0014FF0FF3301
:1009C400204606F0EDFE50B9012384F86430D5F8D2
:1009D400A83123B1204605B0BDE83040184705B022
:1009E40030BD00BFBFA3000038B50C461146054614
:1009F40009F0E5FC034638B92846044909F0DFFC50
:100A040003460020236038BD0120FBE721F90000E4
:100A14002DE9F04F012381460569466885B005F547
:100A24005977D7E8EF2F002A03D1C7E8E13F00291F
:100A3400F7D10CBF1A46002240F0B180B368B16A06
:100A440005F5E4781C1F104609F03EFD84425FD88A
:100A5400013A00F09E80B2FA82F24FF00044D44092
:100A640072682046073222F00302C5F86022B16A98
:100A740009F02AFDC5F86402B36A404663430333B0
:100A840023F0030302EB4302230103EB4403093382
:100A940023F0030303EBC403C5F858221A440832B5
:100AA400C5F854227368C5F85C42C5F850323D4B12
:100AB400C5E9A963316800F0DFF9044630BBD9F811
:100AC40004A0D9F81090DAE9073409F5307B012B3A
:100AD400584608BF103C0DF068FC0023DAF82400E7
:100AE40031494FF4806201EB80210093584623463C
:100AF40007F05CFD09F52C702C490DF0FCFBDAF8CD
:100B0400140083685C682CB96FF05704002139E045
:100B1400013298E74B46264ADAF81810A0470446F3
:100B24000028F3D1DAF8140083681B69002BEBD09A
:100B34000122DAF81810984704460028E6D11D4B24
:100B44002846C5F8A8311C4BC5F8AC311B4B0393A0
:100B5400D5F810320293D5F80832CDE90083D5F8E0
:100B64006832B26AD5F8601300F04EF904460028E2
:100B7400CCD105F1E00006F0C1FE0028C5F86803F9
:100B84000ADB0221384609F04FFC204605B0BDE8D7
:100B9400F08F6FF00B04B9E76FF01504B6E76FF050
:100BA4007704F2E715A40000281C0020FBA3000032
:100BB400EFA30000C50B0000A3A500005DA4000086
:100BC40013B5044640B100230122CDE90032074B9E
:100BD400D0E9091206F098FDA36E1B6823B1E06EFC
:100BE40002B0BDE81040184702B010BD21F9000062
:100BF40013B504460846216901F55971D1E8AF1FC0
:100C0400022910D193B1A0B10121CDE900311346DD
:100C1400D0E9091206F078FD074B984208BF6FF03F
:100C24000B0002B010BD6FF00F00FAE76FF04C003C
:100C3400F7E76FF00100F4E72EF8FFFF2DE9F74323
:100C440088461546066906F55973D3E8AF3F022B6B
:100C54005FD1136823B96FF0150003B0BDE8F083CA
:100C64001B78002BF7D0D6F86093B9F1000F33D17D
:100C740006F5D8774FF0FF324FF0FF33384607F0D0
:100C840023FA30462A6801A9FFF7AEFE019C1CB97D
:100C9400384609F0C7FBDEE705F10803A3666B6974
:100CA40084F86490E366E46360B1384609F0BAFB03
:100CB40021463046236E2A68FFF774FE0020C8F8E8
:100CC4000040CAE72022296804F140000DF04CFEE0
:100CD400384609F0A7FBF1E730460F4909F06FFBEE
:100CE40004460028B7D005F1080383666B69C06326
:100CF400C366002380F864302022296840300DF058
:100D040033FE22460121304600F060F80028D5D099
:100D1400A1E76FF00F00A0E721F9000010B50C4621
:100D2400006900F55973D3E8AF3F022B0FD189B1A5
:100D34000A4900F52C700DF01CFB20460CF09CFEBB
:100D44007022002120460DF0E5FD002010BD6FF05B
:100D54000F00FBE76FF00100F8E700BF3811002037
:100D64002DE9F04F05460E4690460027D0F8B0A076
:100D740085B0AAF5AE7421463046FFF751FBE0B9C1
:100D8400114BA4F1400B0293DAF810303246CDE94E
:100D9400008329464FF0FF335846AAF5CE7906F072
:100DA400FFFC60B97023012203FB079383F86420DE
:100DB400DAF80C300BB158469847703417B105B0C7
:100DC400BDE8F08F0127D6E7D1A500001FB5144672
:100DD40090B18AB1012912D10A4B00F1E0010293CA
:100DE400D0F8AC31403201934FF0FF3320460093EA
:100DF40006F0D6FC04B010BD6FF01500FAE7002031
:100E0400F8E700BFD1A500002DE9F04387B00E46F6
:100E1400DDE90E811446DDE910251F4630B329B300
:100E2400DFF850C000F1E009002D08BF65469EB907
:100E3400CDE9034400F5CE74204605960DF041F843
:100E440003ABCDE900432A463B464146484606F0FB
:100E54007BFD07B0BDE8F083002241460E92484670
:100E64002A4607B0BDE8F04306F09ABE6FF01500BD
:100E7400EFE700BF650D0000F0B50E46044689B0EB
:100E840000286FD001230246C3630023D0F89810D2
:100E9400364F403040F80C7C42F8301FCDE9013326
:100EA4004FF0FF330093C36D0CF0CBFA304A06AB1E
:100EB40092E8030083E80300184606F037FB054672
:100EC400D8B904F1340006F013FB0546A8B9394635
:100ED400284805AA0CF091FA054670B9059B9A6852
:100EE40072B10C33D4F89400C4F8A03009F09FFB1D
:100EF400C4F8D40030B96FF00B05284609B0F0BD32
:100F04000346EFE7D4F8940009F091FBC4F8D80045
:100F14000028F0D0D4F88C30D4F8A010C4F8A8304D
:100F24000423C4F8AC30C4F8C4300223A362124BC7
:100F3400B4F89420D4F8D470C4F8B810C4F8D0101D
:100F4400D4F89010236204F1A403A4F8B020C4F8E8
:100F5400A470C4F8C010A4F8C820C4F8BC00A661EA
:100F6400E362CAE76FF01505C7E700BF12F500009A
:100F7400E0ED00001CF50000A0EE0000014B036052
:100F840000207047CCEE00000449431E0F3013F8D4
:100F9400012F8A5C83421A70F9D1704724F500004E
:100FA400F0B50746264E8DB001AD0C460FCE0FC5E9
:100FB4000FCE0FC596E8070085E807003846002FD6
:100FC40039D0002C39D0381F0246214610344B78D2
:100FD4000D781B0443EA0563CD7804312B4311F8E3
:100FE400025C8C4243EA052342F8043FEFD104211A
:100FF400144C8A07036916D1C3F30742A55C1A0E81
:10100400A25C42EA0562C3F30725655DDBB2E35CDB
:1010140042EA054242EA032221F0030330336B44DF
:1010240053F82C3C534050F8042F013153402C29E1
:101034000361DED101200DB0F0BD2046FBE700BF07
:10104400E8ED000024F500002DE9F04F00270368C7
:101054009DB002934368DFF8BCA103938368DDE984
:1010640002460493C36805930369DDE904BE06934D
:10107400436907938369DDE9062C0893C36998469D
:101084000993089B0093CD590CAB2DBA5AF8049BD5
:10109400DD514FEAF223A94483EAB213009D83EAA7
:1010A40072634B4425EA020502EA0C0985EA090544
:1010B4002B44434486EA0B054FEA743888EAB408A3
:1010C400254006EA0B0985EA090588EAB45804377D
:1010D400A844402F03EB0E054344DE46DDF80080B0
:1010E40040F088804FF0100A4B490A9151460AF1AA
:1010F400010A0DF1700E0AF00F070EEB870757F87F
:10110400407C01F00F094FEAB748019788EAF718C5
:1011140001F10E0707F00F070EEB870757F8407C25
:1011240009314FEAF74E8EEA774ECDF82CE001F004
:101134000F010DF1700E0EEB81010EEB890959F8C8
:1011440040EC51F8401CBAF1400F7144DDF804E062
:1011540088EADE08DDF82CE041448EEA972E7144DB
:1011640005EA02084FEAF52E2CEA050787EA080784
:101174008EEAB51EDDF828808EEA756E774458F83D
:1011840004EF49F8401C77440F4400994FEA733E3A
:10119400394484EA0607CDF828808EEAB30E07EABC
:1011A400030704EA06088EEAB35E87EA0807774471
:1011B4000F4401EB0B0ECDF800C0B34622D10299C7
:1011C4003944016003991944049B416023448360BA
:1011D400059B3344C360069B73440361079B2B4404
:1011E4004361089B13448361099B6344C3611DB03D
:1011F400BDE8F08FB346CDF800C0264694461C46A1
:101204002A4640E7944626462A461C4675463B46EF
:101214006CE700BFCCEE000008EF000010B50446F8
:10122400C8B17022002109F04DFA0B4B0B4A0C494E
:10123400C4E900230B4B0C48C4E902130B4BC4E96B
:10124400040301200A4BA36103F17453A3F52303A0
:10125400A3F69243E36110BD85AE67BB67E6096AF6
:1012640072F36E3C3AF54FA57F520E518C68059B84
:10127400ABD9831F014808F02FB800BFCCEF0000A2
:1012840038B5044618B90F4B0F485B689847616836
:10129400B1F5683F10D0B1F5680F0DD00B4DA942E0
:1012A4000AD011F46861206807D0014608480CF0A0
:1012B400BDFE00232360656038BD14220DF02AFBB7
:1012C400F9E700BF2C04002024F600002C5F5CA981
:1012D4006016002008B560B34368B3F5683F0ED0CC
:1012E400B3F5680F18D0144A934220D000684FF029
:1012F400FF324FF0FF3306F0E7FE58B115E001224C
:101304000368D3E8EF1F002903D1C3E8E02F0028C6
:10131400F7D10AD1002008BD0368084A1B7803F5F9
:10132400807352F82330002BF4D00548F3E70548C6
:10133400F1E76FF4E040EEE72C5F5CA90000035096
:10134400E98FFFFFEA8FFFFF08B520B34368B3F5C9
:10135400683F09D0B3F5680F13D0114A93421DD0EA
:10136400006806F075FE14E000220368D3E8EF1F5E
:10137400012903D1C3E8E02F0028F7D109D0094897
:1013840008BD00210368084A1B7803F5807342F8FE
:1013940023100020F4E76FF4E040F1E70348EFE79F
:1013A4002C5F5CA9E98FFFFF00000350EA8FFFFF69
:1013B40010B5044618B91D4B1D485B68984763680F
:1013C400B3F5683F2FD0B3F5680F2CD0194A934278
:1013D40019D1236803BB4FF0FF324FF0FF3321468E
:1013E400154806F051FD08B923681BB90F4B134883
:1013F4005B6898471422002120680DF08BFA4FF4A3
:101404006863636008E0B3F5683F0DD83A2B03D0F6
:1014140040F6BA629342DED120680CF04CFE636859
:1014240043F03A03636010BD054AF3E72C0400203F
:1014340024F600002C5F5CA9601600204AF6000028
:101444003A00003A08B506494023142205480CF036
:10145400DFFDBDE808400449044807F0AFBF00BF02
:101464006011002060160020D4EF0000E8EF0000B7
:1014740030BFFFF7FDBF00BF114B124A2DE9F04109
:10148400D518013DB5FBF3F5DFF83C805D430F4B08
:10149400074608EB0304013CB4FBF3F403FB0454D8
:1014A4000E1B30460A490DF028FA701942460021F5
:1014B400083E0DF02FFA7E6704F10800BDE8F081C4
:1014C400010000000000000004000000040000000F
:1014D400E0ED0000044B99685869884203D0034941
:1014E4004FF080520A607047F819002004ED00E0C4
:1014F400154B9A6A12F0007F9A6A14BF1E201D20B1
:1015040012F0807F9A6A18BF1F2012F4801F9A6A13
:1015140018BF022012F4002F9A6A18BF212012F477
:10152400802F9A6A18BF222012F4003F9A6A18BFCB
:10153400232012F4803F9A6A18BF24206FEA0242E3
:101544006FEA12429A62704700ED00E010B5194B41
:101554000246986A9C6A10F4805F14BF1720162014
:1015640014F4006F9C6A18BF1820A40509D5986B61
:10157400986A000404D51AB19A6A22F400429A6265
:1015840019200C4B9A6A12F4806F9A6A18BF1A20B9
:10159400D2050CD49B6A13F4005F18BF1C20054AC3
:1015A400936A43F47F43936200230B7010BD1B20A6
:1015B400F5E700BF00ED00E010B51C4B0246986A49
:1015C4009C6A10F0100F14BF1120102014F0080FA3
:1015D4009C6A18BF1220A40709D5586B986A0006A4
:1015E40004D51AB19A6A22F080029A6213200F4B32
:1015F4009A6A12F0010F9A6A18BF142012F0200F91
:101604009A6A18BF1520D40658BF9B6A074B9A6A7A
:10161400920642BF5A6A22F400525A629A6A42F00F
:10162400FF029A6200230B7010BD00BF00ED00E0C2
:10163400F0B5474B04465B6800258BB0C3F3080341
:1016440085F31188BFF36F8F02F07F40B0F17F4FB5
:1016540011D102F00C0008280DD010074CBF0C4625
:1016640001250022033B8DF80720032B05D8DFE872
:1016740003F02462665F2C46F3E700239DF80720FD
:10168400CAB902AE04F12007324620686168083402
:1016940003C2BC421646F7D1099A002D53D0C2F3B7
:1016A400080121B96FEA52226FEA422209921846D0
:1016B40002A909F052FC0BB0F0BD254BDA6A910780
:1016C400DBD4DA6A002AD8DBDA6A5200D5D55A6943
:1016D400A16942F480725A61BFF34F8FBFF36F8FD9
:1016E4005A6931F8021C22F480725A61BFF34F8F99
:1016F400BFF36F8F4DF60272914209D09A6AD2B24B
:1017040042B101200DF10701FFF756FF0346B5E78B
:101714002368B3E79A6A12F47F4F05D001200DF1D4
:101724000701FFF713FFF1E79B6AB3F5803FA4D3EA
:10173400FFF7DEFEEAE700200DF10701E4E70020F1
:101744000DF10701EDE722F4FF7222F00102ADE78B
:1017540000ED00E0044B5A6942F010025A615A69E4
:1017640042F480625A61704700ED00E0EFF30880B4
:10177400EFF3098101B57246FFF75AFF01BD00BFBF
:10178400002080F31488BFF36F8F002080F30A8851
:1017940080F30B8800F07AFC00200E490860BFF348
:1017A4004F8F0D4880F3088800F03EF8202080F326
:1017B40011880A484FF40061401880F30988EFF358
:1017C40014800221084380F31488BFF36F8F00F064
:1017D40009F9000094ED00E010370020D025002026
:1017E400BFF34F8F0549064BCA6802F4E062134306
:1017F400CB60BFF34F8F00BFFDE700BF00ED00E0FB
:101804000400FA05002318460649D1F89020C2F3D3
:101814000722934200DB7047C1F89830C1F8A0005A
:101824000133F6E700ED00E010B572B6002484F34E
:101834001388FFF7E7FF23464FF0FF300C4A03F10C
:1018440020010133102B42F82100F8D100234FF07E
:10185400FF30074A03F160010133102B42F82100E5
:10186400F8D162B6BFF34F8FBFF36F8F10BD00BFC7
:1018740000E100E0084B9B6883420BD1EFF3058342
:1018840043B1064B5A6842F080525A605A6A22F4B5
:1018940000425A620CF0F0BEF819002000ED00E09E
:1018A4006FF00A01084A9368D967084998674B683A
:1018B40043F080534B60002383F31188BFF36F8F91
:1018C4009368D86F704700BFF819002000ED00E05E
:1018D40016498A684FF030001044EFF3098C80E811
:1018E400F01F202080F31288BFF36F8F104F4FF04A
:1018F40000664A698A603E604FF0740414192068D7
:101904000C4C2060906F0023936780F3118802F1E0
:10191400300090E8F01F8CF3098802F1000004B550
:1019240009F02CFBBDE8044070470000F8190020C2
:1019340004ED00E07C1600201EF0040F0CBFEFF352
:101944000880EFF30980816911F8021C0229FFD095
:1019540001B509F004FB01BD40B2002807DB0123F7
:101964004109034A00F01F00834042F821307047C8
:1019740000E100E040B200280CDB012206494309E3
:1019840000F01F008240203341F82320BFF34F8F23
:10199400BFF36F8F704700BF00E100E0054B4209C1
:1019A40053F82220012300F01F0003FA00F0104036
:1019B400704700BF00E100E040B2002801F10101DE
:1019C400ACBF00F16040064B4FEA4111C9B2ABBF56
:1019D40000F5614000F00F0080F8001319547047BF
:1019E40014ED00E00B4A08B50B4B22F07F029A601D
:1019F400BFF34F8FBFF36F8FD3F8882022F47002A8
:101A0400C3F8882006F062F907F0BCF900F078F812
:101A140006F0A6F90000000000ED00E042F8203CCA
:101A2400009B0B4942F81C3C019B21F0010142F848
:101A3400183C029B42F8081C42F8143C4FF0807397
:101A440042F8043C0023203A02658367704700BFD4
:101A5400150700000A4B446F98600A4B1C60436EE4
:101A640083F30B88104681F30988002163B681F360
:101A74001188BFF36F8F00220023FEF749FE00BFD9
:101A8400F81900207C160020014910220A607047D2
:101A940010ED00E072B6404080F31188BFF36F8F01
:101AA40001B500F0AFFA00280AD0BFF34F8F30BF62
:101AB40000BF00BF00BF00BF00BF00BF00BF00BF2A
:101AC400BDE8014062B6BFF36F8F704772B64940FC
:101AD40081F3118801B500F095FA00280AD0BFF30C
:101AE4004F8F20BF00BF00BF00BF00BF00BF00BFBB
:101AF40000BF00BFBDE8014080F3118862B67047A3
:101B0400002320210348C2180133452B82F8001317
:101B1400F9D1704700E100E001B5EFF30580A0F1D1
:101B240010004FEAC0000449014409C99847BDE8C0
:101B3400014002490847000084EB0000D91400006A
:101B44001FB5094C094A23460121094800F0EAF867
:101B540000230393074B0121E41A01A80193029483
:101B640000F0EAF804B010BD0000072000000020D7
:101B7400F8EF0000D807002010B50C7A0B6804F0C9
:101B84001F0223F01F031A43CB68640923F01F03C9
:101B9400054943EA440343F00103C1F89800C1F83E
:101BA4009C20C1F8A03010BD00ED00E02DE9F04FFD
:101BB4000F46144606464FF000084E4D85B0B84512
:101BC40080F29480D6F80490B9F1000F36D0B9F1C0
:101BD4001F0F40F2898019F01F0F40F08580D6F85E
:101BE40000A01AF01F0F7FD1504609F0CBF98346AD
:101BF40009EB0A00013809F0C5F9834574D11BF1DA
:101C0400160F71D05C456FDDC5F898B0D5F89C10FF
:101C1400C5F898B0D5F8A03021F01F0143F01F0A91
:101C2400D6E900321A44994202F1FF391ED1CA455D
:101C340008D131465FFA8BF009F0ADF908F10108DB
:101C44000C36BCE73146C5F898B0D5F89C3022F084
:101C54001F0203F01F031343C5F89C30E0B209F0E0
:101C64009AF910F1160F3FD0441CE7E7C5F898B075
:101C7400D5F8A020013B23F01F0302F01F021343F9
:101C8400CA453146E0B2C5F8A030E8D009F083F97E
:101C940010F1160F28D0C5F898B0D5F89C209DF8FF
:101CA40008300AF1FF3A62F304038DF80830D5F8DE
:101CB400A0309DF808205B0863F347128DF80820D4
:101CC400D6E900321344009323F01F03411C53440C
:101CD400A3EB0903C8B223F01F030728039303D817
:101CE4006946FFF749FFBFE76FF01504204605B0CA
:101CF400BDE8F08F00ED00E00522044BC3F894200A
:101D0400BFF34F8FBFF36F8F704700BF00ED00E04C
:101D1400BFF35F8F0022024BC3F89420704700BFCB
:101D240000ED00E010B5034C2278FFF73FFF207070
:101D340010BD00BF201C00202DE9F74F294D8A4615
:101D440006464FF00008AB46274FD0451BDAD6F8BD
:101D54000490B9F1000F3FD031680846019109F0B1
:101D640011F90199044609EB0100013809F00AF957
:101D740084424FF014021D4B08D002FB08F36FF0AD
:101D840015024BF8032003B0BDE8F08F14F1160FD1
:101D94002C60F8D01978A142F5DD02FB08B0C7F831
:101DA4009840C7F89840D7F89C4000F10801007BA0
:101DB40064F304000871D7F8A0000C79400860F3BC
:101DC40047140C71D7F89C1021F01F016960D7F8F3
:101DD400A01021F01F01296108F1010814350C3607
:101DE400B3E700BF8016002000ED00E0201C0020B7
:101DF400F0B5384D87B02C68082C67D80020FFF761
:101E040087FF354B354AC3F8C02084420DD1344D89
:101E140001A82C70FFF7B2F800240646314FA64201
:101E24000AD1FFF769FF00204EE0696801EB001159
:101E3400FFF7A2FE0130E8E70199200101EB04134A
:101E4400DA683A40B2F5001F22D0B2F5800F2CD0E8
:101E5400B2F5801F36D15A689B680958013B22F0BD
:101E64001F0003440120844623F01F0340EA4C1062
:101E74008DF810002878CDE902210728059321D890
:101E840002A9FFF779FE2B78013401332B70C6E7E2
:101E94005A689B680958013B22F01F0003444FF025
:101EA400020C012023F01F03E0E75A689B680958DD
:101EB400013B22F01F0003444FF0000C062023F0E6
:101EC4001F03D3E76FF0150007B0F0BD4FF0FF30EC
:101ED400FAE700BF04F0000000ED00E0AAFF4400B0
:101EE400201C00200000F0FF08B50649064821F038
:101EF4000701C1F1005202F5E02208F038F8002091
:101F040008BD00BF3F5B00209416002000F01F02B4
:101F140040090DD001280DD1094B03EB8203D3F8FE
:101F2400002222F0E04242EA0171C3F80012704735
:101F3400044BF2E70023803253F82230FFDE00BF67
:101F4400002884500025845038B50124134B144DC7
:101F5400C3F8004502230321C5F8D0360020FFF75B
:101F6400D5FF20460321FFF7D1FFC5F804472146DA
:101F7400C5F804492120C5F8004BFFF7C7FF2146E7
:101F84002020FFF7C3FF21460B20FFF7BFFF2146A8
:101F94000A20FFF7BBFF002038BD00BF001000502F
:101FA4000040005007B50DF107000BF0F1F8114B9C
:101FB40098421CD14FF480620F4B1049C3F8B825E6
:101FC4004FF40062C3F83C259DF807000BF0DBF8E2
:101FD4000B499DF807000BF0D1F801209DF807305C
:101FE400984004F0B3FC002003B05DF804FB6FF0EC
:101FF4000B00F9E70000AD0B00A002502CA002502A
:1020040028A10250052370B5144D154E2C780134C7
:10201400B4FBF3F303EB8303E41A0BF099F8114ACE
:10202400137823B156F82430C01A072814D94FF076
:102034005023D3F8141141B10021C3F81411D3F87B
:1020440014312C700CB9012313702C780BF080F828
:1020540046F82400012070BD0020FCE7221C00206B
:10206400A0160020211C002048B1054B054A1B681E
:10207400B3FBF2F35843044B43F001031847704792
:102084006C03002040420F0030EE000004F040BB1F
:102094001022174B70B5C3F840244FF47F03D3F8D4
:1020A4003021D3F83431072A1BD1023B032B02D849
:1020B400104AD35CABB14FF0502401260025052013
:1020C400C4F81866C4F814560BF056F83046C4F831
:1020D40014660BF051F8C4F81456C4F818560020CE
:1020E40070BD4FF050230022C3F81426F7E700BF59
:1020F4000030005086F6000030B50024094D0A4B2C
:1021040085B02846029303940CF04FF902AB28469D
:1021140000934FF4A3620A23044906F047FA2046C9
:1021240005B030BD480B0020A4F600002820002094
:102134000146014806F0B0BA480B0020037830B5D8
:10214400012B13D0022B27D07BB90A46184B03F17D
:10215400100453F8045BA34242F8045BF9D11B78E2
:10216400137043884B731B0A8B7330BD0A46104BA4
:1021740003F1100453F8045BA34242F8045BF9D161
:102184001B7813704368C3F307224B731B0CCB7388
:102194001B0A8A730B74E8E700F1100350F8042B50
:1021A400984241F8042BF9D103780B70DDE700BFA6
:1021B400ADF60000012838B505460CBF06480748AF
:1021C4000AF0FFFC044620B101210C300AF055FD51
:1021D4002576204638BD00BF24070020A006002035
:1021E4000246002070B50B460A49D1E8EF4FC1E81A
:1021F400E50F002DF9D124B9BDE870400120FFF7A7
:10220400D9BF01212082217604F10C000AF035FDAA
:10221400204670BD3801002070B504460F2C0D46D1
:102224001046194605D80D2C0DD9BDE87040FFF7AE
:10223400D7BF132C07D10C480AF0C3FC044638B9A5
:102244000024204670BD02460B4645B10748F3E71B
:1022540001210C300AF011FD01232376F1E701205E
:10226400BDE87040FFF7A6BFA8070020F8060020CD
:1022740038B5C368B3F801401B786BB90F21204609
:1022840001F012FC054640B9084B1A8822B96FEADE
:1022940004506FEA1050188038BD012101F046FB4C
:1022A4002846BDE8384009F04CBA00BF0C1C002099
:1022B40010B5084C0146052294F86F0001F0DAFCD1
:1022C40038B994F86F000422BDE81040024901F0C7
:1022D400D1BC10BD000000208AF6000010B5012119
:1022E40004460C300AF0FDFC2146BDE810400823EA
:1022F400014A007808F052BFB4F0000070B52F48CE
:102304000AF07CFC0446002856D0037E012B32D010
:10231400032B02D1038A032B02D803F019FA20E01D
:1023240004210C300AF0DDFCFF2243880688627623
:10233400228AC6F30B009A42608301D02046ECE760
:102344000F2101F0B1FB05460028F7D001F0C0FBD6
:1023540021466076320B284609F092F9284609F0A6
:10236400F0F9174BD3F83C3133B3BDE8704015494D
:1023740015480BF0EDBF038A012BCED902210C3096
:102384000AF0AFFC0546007808F08DFE83070CD4F4
:1023940040F69B230D4A0E490E4807F028FF4040A3
:1023A40080F311884FF0030002DF042321460A4A18
:1023B400287808F0F3FEC1E770BD00BF3C0100209F
:1023C40000000020BC020020E80B0020BEF6000044
:1023D400F2F6000020F7000094F00000F8B507467C
:1023E400907A0E46144603F009F9284B83424BD1E8
:1023F400204603F00BF90C23254D03FB00504388C2
:10240400BB4241D1234FD7F8380120B103F0A0F9E2
:102414000023C7F83831204603F0F8F80C2707FBEF
:10242400005043689BB196B9204603F0EFF80121B0
:1024340007FB00504268D2E90003127A03F01F0739
:10244400B9405B09D2B100EB830008F06EFE204670
:1024540003F0DCF80C2707FB00508368A3B1204687
:1024640003F0D4F878432E54204603F0CFF807FB4A
:102474000055A868BDE8F84005F0D4BEC94300EB98
:10248400830008F0A2FEE2E7F8BD00BF7C0700204D
:10249400B41600200000002038B5042104460C3096
:1024A4000AF01FFC4578017822464088FFF796FF22
:1024B40025B1BDE83840024805F0B4BE38BD00BFC0
:1024C4002001002038B5044603210C300AF009FC31
:1024D400E3680578197840F63543B0F8010098426E
:1024E40008D02246FFF77AFF25B1BDE838400248FC
:1024F40005F098BE38BD00BF2001002010B5C1E929
:1025040000239DF808300C460B7203F07FF80C2270
:10251400024B02FB00335C6010BD00BFB416002008
:102524002DE9F0474FF0FF324FF0FF3306461748CE
:102534000F460AF046FB4FF00008044600F10C0A6F
:10254400012150460AF099FB204684F8188003F0D4
:102554005DF84FF00C090E4D09FB005046802046F3
:1025640003F054F809FB0050C0F80880204603F03B
:102574004DF809FB005503215046C5F804800AF0C4
:1025840080FB068087702046BDE8F0877C0700202A
:10259400B41600202DE9F041074615460C4686B0D6
:1025A40021B9FFF7BDFF044600284DD001220021C8
:1025B40068460BF01AFE204603F028F80C23DFF8D7
:1025C400948003FB0080C0F808D020460AF02FFB5B
:1025D400014621480AF029FB4FF4A0220023684653
:1025E40005F046FE064688B140F24B131B4A1C49CF
:1025F4001C4807F0FCFD324639461B4807F0F7FD3E
:10260400404080F311884FF0030002DF204602F0BF
:10261400FDFF0C23584318F800606EB1204603F008
:1026240097F8092E13D00D2E0CBF6FF00B006FF02E
:10263400040006B0BDE8F08115B12C600020F8E775
:10264400204603F085F8F9E76FF06800F1E76FF0D2
:102654006E00EEE7B416002044010020BEF6000030
:102664003DF7000020F7000046F70000F7B5144BD3
:10267400054693F99B300C46002B1DDA14B920460D
:1026840003B0F0BD082C4FF0000142F2180001AA7B
:10269400264628BF0826FFF77DFF0028F0D1019FBA
:1026A4003246F968284601310CF027F9384603F020
:1026B4004FF83544A41BE1E76FF08500E0E700BF65
:1026C400000000202DE9F0410026774BB0F801808E
:1026D400198848F470420478914208BF1E80054668
:1026E40008BF012688B0BCB13C2C35D100F06EFE89
:1026F4006FF08001103008F068FD0020FFF7D8FD6E
:10270400054648B34472002101F010F9284608B088
:10271400BDE8F04109F015B8C378071D012B08BFC7
:10272400624B384608BF93F86F4008F0B8FC39464E
:10273400A8B106A808F0A8FC05F111010DF11100DB
:1027440008F002FD01238DF81030EB78012B12D034
:102754001321404608F01EFE08B0BDE8F081204673
:1027640008F026FF014606A808F0F3FC394604A841
:1027740008F0EFFCE9E706A8FFF79AFDEB780446BA
:10278400012B0AD100F022FE07466FF080011030C1
:1027940008F01BFD384608F062FF002CD8D0204614
:1027A4000022B5F8013006A920F8883B08F0D1FCD6
:1027B400B5F81730A4F89E30B5F81930A4F8A43051
:1027C400B5F81B30A4F8A630EB786272012BE370E5
:1027D40015D104A904F18F0008F0BBFC00F0F6FD4C
:1027E400217A324AC1EBC101114404F1960008F088
:1027F400B0FCD2F8E4305D0601D500F0EBFD072112
:10280400204601F093F81EB10121204601F08EF814
:10281400204608F0CCFFA37A072B40D1231DD3E830
:10282400AF3F13F4805F214E18D1E3781BB196F8C3
:10283400D830180712D5022142F21600FFF770FEB5
:10284400054658B102210C300AF01BFA23880022F5
:102854000380294642F21600FFF79CFE96F8D93011
:10286400D90706D50021022320461A46009108F014
:10287400CAFD96F8D8309A0611D5D6F85C319B6813
:102884009B070CD50DF10E0103A808F06BFD30B9C0
:102894002046BDF80E20BDF80C1008F096FD204629
:1028A40008F04FFF58E700BF0C1C00200000002078
:1028B40000B5C16889B00B7801A88DF80030B1F873
:1028C40001300431ADF8013011F8013C8DF80330CA
:1028D400B1F80730ADF81730B1F80930ADF8193058
:1028E400B1F80B30ADF81B304B7B8DF81D3008F080
:1028F40030FC07490DF10B0008F026FC0DF1110026
:1029040008F022FC6846FFF7DDFE09B05DF804FB21
:102914009EF60000024BD3F85C315B69184700BF98
:102924000000002038B505460C4619B9FFF7F8FD3C
:10293400044698B140F635439D4209D12046FFF73D
:10294400E9FF054640B1204602F002FF284638BDA3
:10295400214604480AF069F90025F7E76FF0680595
:10296400F4E700BF44010020F8B50446458B477ED8
:10297400807A02F043FE6169064649B1637ADA0758
:1029840004D4436A20461B689B689847002363610C
:10299400214630460BF01FFC184B93F88A309B06F7
:1029A4002BD5384601F02AFA38B3837A073B012B3A
:1029B40003D9BDE8F84008F0C4BE08F0C2FE052102
:1029C40040F63540FFF7ACFD0446B0B100F10C070A
:1029D400012138460AF055F90126042106703846CB
:1029E4000AF04FF9002305808670C3702146BDE8C4
:1029F400F84040F63540FFF795BFF8BD00000020D1
:102A04002DE9F041044600F10C0630460AF081F944
:102A1400B4F810800546B8F1010F04D82046BDE88B
:102A2400F04102F095BE304602210AF05AF90746F9
:102A3400007808F038FBC20706460CD440F6CA6397
:102A44000D4A0E490E4807F0D2FB404080F311882E
:102A54004FF0030002DF052321460A4A387808F0C4
:102A64009DFBB307DAD56369A4F8108013FA85F5E2
:102A7400E560BDE8F08100BFBEF6000072F700001B
:102A840020F700006CF0000038B5037E0446012BEB
:102A94000AD0032B16D121460D480AF099F80D49A6
:102AA4000D480BF055FC0BE0C368187808F0FBFAEE
:102AB400C207054602D52046FFF7A2FFAB07EAD4BA
:102AC400002038BD02F044FE6FF01500F9E700BFA6
:102AD4003C010020BC020020E80B0020084A034609
:102AE400D2F85C0130B9D96839B1596929B1C2F851
:102AF4005C3170476FF0770070476FF015007047D6
:102B04000000002008B50421034808F00EFBBDE8CE
:102B14000840002000F0FABCD4000020F7B55A4D5C
:102B2400D5F85C31996811F001011DD140F60340DC
:102B340001AAFFF72FFD0446002840F0A280019C63
:102B4400E3681B786BB900F0DBFC05F1D403D3E830
:102B5400AF2F02F00902D3E8EF1FC3E8E02F0028EB
:102B6400F9D1204602F0F4FD002141F2030001AA4C
:102B7400FFF710FD0446002840F08380019B434E7C
:102B8400DA68D2F80100D2F8051003C6184602F03C
:102B9400DFFD214641F2010001AAFFF7FBFC0446D8
:102BA40000286ED10198C3685A7885F870205A8835
:102BB400A5F872201A7985F87120B3F80720A5F8D2
:102BC4007420B3F80530A5F8763002F0C1FD214633
:102BD40041F2020001AAFFF7DDFC0446002850D1AF
:102BE400019FFA68531C4132344618685968083307
:102BF40003C493422646F7D1384602F0A9FD00F0FB
:102C04007DFD044600283CD195F88A309F0632D5D4
:102C1400072140F63340FFF783FC0646002800F006
:102C24001F8107210C300AF02CF81B2303700623A4
:102C3400C0F802408471447004712246C370314666
:102C440040F63340FFF7A6FC0446D0B9012140F614
:102C54003140FFF765FC0646002800F001810121A0
:102C64000C300AF01DF82246314640F63140FFF799
:102C740091FC044628B995F87C305E0608D46FF0C0
:102C84001204204603B0F0BD0000002078000020AC
:102C9400002142F2030001AAFFF77CFC044600284D
:102CA400EFD1019B9D4EDA68D2F80100D2F80510ED
:102CB40003C6184602F04CFD214642F2020001AA66
:102CC400FFF768FC04460028DBD1019CE368B3F8F5
:102CD400012091B249B1D97839B1A5F80421DA7843
:102CE400114606F128000BF080FA204602F030FD70
:102CF40095F87C6016F0200618D1022140F66D404C
:102D0400FFF70EFC0446002800F0AA8002210C30D4
:102D140009F0B7FF0123214603704670324640F69E
:102D24006D40FFF737FC04460028AAD195F89C3083
:102D34001C0712D5002142F21C0001AAFFF72AFC4D
:102D4400044600289DD10198C368D3F80120D3F824
:102D54000530C5E9382302F0FBFC95F8D830980615
:102D640023D568460DF1020108F0FCFA0446002858
:102D740087D1042142F22400FFF7D2FB0646002843
:102D84006ED004210C3009F07CFFBDF800302246DF
:102D94000380BDF802303146438042F22400FFF73D
:102DA400F9FB044600287FF46CAF082142F20100CD
:102DB400FFF7B6FB0446002852D008210C3009F076
:102DC40060FF95F8D82012F0020F14BF2F230F23B1
:102DD400910695F8D92048BF43F0400312F0090F3B
:102DE4004FF0000218BF43F400630370C3F30723DA
:102DF400214643708270C270027142718271C27145
:102E040042F20100FFF7C6FB044600287FF439AF05
:102E140095F87C30B5F804119A0624D4C9B941F266
:102E2400050001AAFFF7B6FB044600287FF429AF8A
:102E3400B5F80431019C4BB9E368B3F80120A5F857
:102E440004219A88364811460BF0CFF9204602F047
:102E54007FFC082140F60140FFF762FB044638B9C5
:102E64006FF068040DE70029F3D16FF0040408E75C
:102E740008210C3009F005FF1023037088234370E8
:102E840002230022C3702023214682700271427102
:102E94008271C37140F60140FFF77CFB04460028B1
:102EA4007FF4EFAE014601AA4FF60140FFF772FB33
:102EB400044620BB019802F04BFC21464FF6024029
:102EC40001AAFFF767FB0446C8B90198C368B3F8C1
:102ED4000130A5F8C13002F03BFC95F8C1305B0726
:102EE4000DD521464FF6034001AAFFF753FB30B935
:102EF4000198C3685B7885F8C03002F029FC00F0C3
:102F040011FA044600287FF4BCAE00F07FFF0446AB
:102F140000287FF4B6AEFFF7F5FDB2E6D800002036
:102F24000801002010B5FFF7F9FD034B1B6813B12E
:102F3400BDE81040184710BD2C17002038B50546D1
:102F4400FDF780FA1C28044610D829460948FDF7E5
:102F540067FA48B12246294606480BF0CEFC002207
:102F6400054B234483F86021002038BD6FF00B002B
:102F7400FBE700BF6001002000000020004870470C
:102F840060010020F8B506460024094DEF79E3B24C
:102F94009F4202D86FF0010007E02946304608F04E
:102FA400F0FA0735631C08B12046F8BD1C46EEE76D
:102FB4000000002037B504460D4671B12846124979
:102FC40008F0DFFA48B929461048C4EBC404204489
:102FD40008F0E7FA002003B030BD684608F046F870
:102FE4000028F8D16846FFF7CDFF0028F5DA074B33
:102FF400C4EBC4006946184408F0D3FA002DE9D0A4
:1030040001462846E4E700BF91F6000000000020D6
:1030140038B50622114905460BF084FCC8B10621D7
:1030240042F20500FFF77CFA0446A0B106222946C5
:103034000C3009F02CFE0022214642F20500FFF775
:10304400A9FA38B90548294608F0A6FA012300F878
:10305400013C002038BD6FF06800FBE769000020E8
:1030640070B50D46044698B11D4908F08AFA78B93E
:103074002378012B02D06FF0150070BDA37903F003
:10308400C003C02BF7D12046FFF77CFF002821DACC
:10309400002DF0D1134DEB79012B1ED005F1D40096
:1030A40008F077FAC30707D4002CE4D020460C4973
:1030B40008F067FA0028DED1EE792146731C304609
:1030C400EB71FFF777FF08B93046D6E7EB79013BA0
:1030D400EB71D2E76FF07700CFE76FF00B00CCE72E
:1030E40091F6000000000020F7B50446C8B10021A5
:1030F40041F2090001AAFFF74DFA064688B9019F7B
:103104000622FD680D49013528460BF00BFC28B159
:10311400062228460A490BF005FC28B9384602F075
:1031240017FB002003B0F0BD2946601C08F034FAF8
:103134003846267002F00CFB0120F3E79EF60000EF
:1031440098F6000007B56846FFF7CEFF044BD87128
:1031540018B169460020FFF72DFF03B05DF804FBAA
:1031640000000020F7B5184B054693F8C2300E4610
:10317400DB0703D40024204603B0F0BD00214FF642
:10318400094001AAFFF706FA03460028F2D1019884
:103194001627C26854780232B44228BF34469C428F
:1031A40002DC02F0D5FAE6E7114607FB035602F10A
:1031B400140C51F804EB614546F804EBF9D1098885
:1031C400013331801632EAE70000002070B5154D56
:1031D40088B0EC792CB9012102A8FFF7C3FFE8718C
:1031E400C0B90021084608B0BDE87040FFF738BFF9
:1031F40002AB06FB02310DF1010008F0CDF9012309
:10320400694610468DF80030FFF7D4FE013410B142
:1032140008B070BD1626EB79E2B29342E8D80020DC
:10322400F6E700BF000000202DE9F8430F46914661
:103234001E46044600286ED0002B6CD03903057856
:1032440008D57A0767D408F0C0F90446A0BB012367
:10325400337030E0FB0732D5DFF8C080A2B1B80686
:103264000BD4C5EBC50318F80330012B12D033700F
:10327400BA0620D543F00203EAE798F8D830590695
:10328400EFD46FF0850417E0C5EBC50318F80330DD
:10329400012BDDD1072101FB05812046013108F016
:1032A4008CF9044640B9C5EBC50518F805303370F0
:1032B400B9F1000FDCD100242046BDE8F88317F0F3
:1032C400040711D0154FC5EBC50817F80830012BBA
:1032D400BED1072111FB0531394408F06EF90446CB
:1032E40017F808303370E7E70D4808F052F9430641
:1032F4000BD5384608F0B6F9204608F066F90446BE
:103304000120307008F0AEF9D6E7204608F05DF9E8
:1033140001230446E6E76FF01504CDE70000002022
:10332400D400002010B50A4CE3790BB1002010BD85
:10333400FFF708FF0028FAD1E379002BF6D1FFF755
:1033440045FF0028F3D1601CBDE81040FFF760BEC4
:1033540000000020072208B5034909300BF0E2FA07
:10336400003818BF012008BD91F60000F8B5154BD0
:10337400067804460D4683F86F60FFF7EBFF70B9DB
:103384003046114900F040FC044610B96FF00B00C0
:10339400F8BD042100F0CAFA00202C60F8E704F11B
:1033A40009073946304608F02BFA40B920783946E7
:1033B40000F02AFC04460028E8D00521EAE76FF073
:1033C4001500E5E7000000208AF600000048704779
:1033D4001800002073B5304808F00EF910F4804F3F
:1033E4002D4C56D0204608F007F9030651D4204648
:1033F40008F002F946054CD501A9A4F11000FFF725
:10340400B5FF002845D1A4F11000FFF7A3FF024641
:10341400204608F0F1F8C0F38031204608F0ECF8BB
:1034240081F0010145054FEA41011B4848BF41F0C5
:10343400010108F0E1F8800448BF41F00401174895
:103444000DF10303FFF7F0FE054610BB01211348FD
:1034540008F0E0F8019E28B9304602B0BDE870409B
:1034640008F06FB92946304600F060FA6FF48041E5
:10347400094808F0C4F80546304608F062F96B04C0
:1034840007D5D4E8EF3F43F48043C4E8E23F002A81
:10349400F7D102B070BD00BF280000201800002042
:1034A40030B50221044687B042F20C00FFF738F829
:1034B400054600B302210C3009F0E3FB012C18D1BE
:1034C4000E4BD3E8AF3FC3F340234370631E047035
:1034D4005C425C412846094A03A906230094FFF78D
:1034E4000DF80022294642F20C00FFF753F807B00A
:1034F40030BD0023E9E76FF06800F8E7D40000204E
:103504000022014B1A60704738170020074BD3E89C
:10351400AF2FC2F3C010120605D4D3E8AF3F5B0649
:1035240001D5FFF7BDBF0020704700BFD4000020C5
:103534002DE9F04F00F10C06044689B0304609F03D
:10354400D8FB8046DFF850B1B8F1000F02D109B0C2
:10355400BDE8F08F238A082BF9D90921304609F0F8
:10356400C0FB037A228A01339A420546EFD3012332
:10357400ADF81C307F238DF81630037A471C0344C2
:103584005B7A8DF81530FF238DF814300023ADF8E5
:103594001A300278042A98BF404B8DF8172098BF40
:1035A4009B5CADF8183090F808A03D4BD3E8AF3FD2
:1035B4001A0603D5BDF818305B0763D4384607F004
:1035C4006EFD002848D0394602A807F05DFDDBF8FF
:1035D4000030A3B1304609F09CFB8146278A33466C
:1035E4009DF817209DF91510DBF800C0A4F810A071
:1035F40002A8E0476369278213FA89F3E36002AB08
:103604000493284B1B68002B3AD01A6802B1083A7D
:1036140053F8081CB9B11746A3F1080230460192C9
:1036240009F077FB8146019A238AA4F810A0126856
:10363400314604A8009390476269009B12FA89F20C
:10364400E2603A462382DAB197681368B7B1083F5B
:10365400002BE3D13A46F7E76B78FF2B09D1124BE5
:10366400186802909A889B79ADF80C208DF80E307A
:10367400ADE7394607F09CFF0346F1E7002BCDD1B7
:1036840000230493297A3046013108F1FF3809F008
:1036940020FB5FFA88F857E7381700208BF7000003
:1036A400D40000203017002091F6000030B58DB012
:1036B400202104A8FEF7DAFF0446C8B90BF03AF853
:1036C4004FF47A75A0FB053205FB0121DB0B43EABD
:1036D4004143C90BCDE90231082320220093064857
:1036E4006B4404A907F0D5FB002808BF6FF004045D
:1036F40020460DB030BD00BF880C002007B508215E
:103704006846FEF7B3FF38B908226946054807F052
:10371400A0FB20B1FFF7CAFF03B05DF804FB6FF014
:103724000400F9E7880C002038B50D46044698B12A
:1037340091B10B4A07F0C6FB431C07D1FFF7B6FF54
:1037440048B929462046064A07F0BCFB01280CBFAD
:1037540000206FF0040038BD6FF01500FBE700BFD8
:10376400880C002070B504460A4B1D6825B90A4D23
:103774000A4EB54207D370BD2B6813B12046617A57
:1037840098472D69F2E72B6813B12046617A984770
:103794001435EEE76C170020D0ED0000D0ED0000EA
:1037A4002DE9F04104464FF00008144F4FF0200279
:1037B400EFF3118382F31288BFF36F8F216A29B963
:1037C40083F31188BFF36F8FBDE8F081606A0A68E4
:1037D400814208BF6262226283F31188BFF36F8F54
:1037E400D1E901563846C1E90188C1F80C800AF0D4
:1037F400E7FC002231462046A847D7E78806002088
:10380400002270B50446D1E90156CA60C1E901221B
:1038140005480AF0D5FC314620462B46BDE87040E9
:103824006FF06D02184700BF880600200448B0F806
:10383400043100F58470002B08BF0020704700BFDE
:103844000000002038B5002204468A4202D1002438
:10385400204638BD012004F1BC03D3E8EF5F002DFE
:1038640004D1C3E8EC0FBCF1000FF6D102D0C03490
:103874000244EAE7002CEAD0BC22002120460BF0E7
:1038840049F804F1580004490AF095FD034904F18C
:1038940028000AF030FDDBE7253D00006DB600008E
:1038A400F8B51F46CB7A0646072B0D46144631D988
:1038B400837A072B1CD15AB30BF0D0F8184B1A5843
:1038C400184B9A42184807BF002200234FF0FF32DA
:1038D4004FF0FF3304F072FCF8B1B37A0022072BE7
:1038E40009D00146C0E90122C2600F480AF068FC11
:1038F4006FF07F00F8BDC0E90147C2600024A861F1
:10390400294606F138002C7709F08FF92046F1E7B3
:103914001046F3E76FF01500ECE76FF06800E9E795
:103924000800000060100020880600202DE9F04106
:10393400857A04468D4200F09480817225B983789B
:10394400082B01D007F0E9FEA37A012B1DD1002733
:10395400534D05F584764FF02002EFF3118382F383
:103964001288BFF36F8FE269002A74D0013AE261D2
:1039740083F31188BFF36F8FB5F80431002B14BFA4
:103984003046002004F04EFCE5E7072B09D0002B5D
:1039940067D1A378042B24D12046BDE8F04107F079
:1039A400D0BEA378042B5CD004F138000AF0FCFBF1
:1039B40000213C4805F0ECFB0023C4E91433E37810
:1039C400012B4ED1A37804F15800012B04BF03232B
:1039D40084F8AC304FF42032BDE8F041002304F009
:1039E40085BE013D052D3CD801A353F825F000BF49
:1039F4000D3A00004D3A00009D3900009D39000049
:103A04004D3A00004D3A00002046FFF7C9FEA37866
:103A1400012B0AD104F1580528460AF0D8FC10F00D
:103A24000C0F02D028460AF0D4FC0434D4E8EF3F4B
:103A340043F04003C4E8E23F002AF7D1BDE8F04177
:103A44000021184805F0A4BB637A002BA4D02046BB
:103A5400FFF788FEA0E7616929B983F31188BFF3F2
:103A64006F8FBDE8F081A0690A68814208BFA26136
:103A7400626183F31188BFF36F8F4FF02002EFF37D
:103A8400118382F31288BFF36F8FCA68E261CF603B
:103A940083F31188BFF36F8F2046FFF7B1FE6BE706
:103AA40000000020CC020020024610B507480C4656
:103AB400012107F05AFE034610B90023184610BD31
:103AC40082781442FAD107F03CFEF6E7C00D0020DC
:103AD400034BC01A034B80115843C0B2704700BF58
:103AE400C00D0020ABAAAAAA38B50D460649002885
:103AF40008BF084609F065F8044618B1691D0C3082
:103B040009F0BBF8204638BDCC060020F8B50446C1
:103B1400031DD3E8AF2F920515D5B0F89E20B0F859
:103B2400A01091420FD8B0F8A21091420BD3D0E963
:103B34002912914207D1D3E8EF1F21F40071C3E8A1
:103B4400E21F002AF7D1104B1D6825B90F4D104F05
:103B5400BD420CD3F8BDEE683EB12046B4F8A630A1
:103B6400B4F8A420B4F89E10B0472D69EDE7EE68D0
:103B74003EB12046B4F8A630B4F8A420B4F89E10A0
:103B8400B0471435E4E700BF6C170020D0ED000007
:103B9400D0ED00002DE9F041074608460C4607F039
:103BA4005DFC054618B900252846BDE8F081134B95
:103BB4001E6846B9124EDFF84C804645F4D2B3680D
:103BC40083B91436F9E7B3680BB93669F1E72146CE
:103BD400384698470028E6D0204607F03FFC0028E6
:103BE400F3D1E0E72146384698470028DBD0204649
:103BF40007F034FC0028E4D1D5E700BF6C1700209F
:103C0400D0ED0000D0ED000038B505460C460A485A
:103C14000121FFF717FE70B105722368C0F88830E0
:103C2400A388A0F88C30A37980F88E3001238370A8
:103C3400024BC0F8A03038BDC00D00201800280089
:103C440070B505460A480E4607F067FD044620B1E4
:103C54008378012B04D007F074FD0024204670BD46
:103C64003246294607F0ACFD0028F7D12046F2E79A
:103C7400C00D0020F8B505460E480E46174607F05D
:103C84004CFD044620B18378012B03D007F059FD85
:103C940000240DE036B13246294607F091FD08B9FB
:103CA4002046F3E7A37ABB42FAD1237AAB42F7D199
:103CB4002046F8BDC00D002038B5044608460D4620
:103CC40007F0CCFB38B3154B93F8D830990707D4D9
:103CD400E37873B129462046BDE8384000F00CB9BA
:103CE40094F8AD309A07F3D5231DD3E8AF3F5B05B5
:103CF400EED42946204607F08DFD58B92B88A4F848
:103D0400A0306B88A4F8A230AB88A4F8A830EB8864
:103D1400A4F8AA3038BD6FF01500FBE700000020BE
:103D2400F7B510F84E3C0446A0F15806FBB93046EE
:103D340007F0C5FD2D4B1D684DB92D4D2D4FBD42CE
:103D44000DD3304603B0BDE8F04007F0FABC6B6811
:103D54001BB1304614F84F1C98472D69ECE76B688B
:103D64001BB1304614F84F1C98471435E7E710F898
:103D7400563C012B24D1A0F15405D5E8EF3F23F4A0
:103D84000072C5E8E12F0029F7D19B051AD5A36C71
:103D940069460093236D30460193FFF78DFF38B9D0
:103DA400D5E8EF3F23F48073C5E8E23F002AF7D15A
:103DB400D5E8EF3F43F08003C5E8E23F002AF7D19E
:103DC40003B0F0BD6B460C4A1068516803C36946E2
:103DD4003046FFF771FF0028EAD1D5E8EF3F43F4FE
:103DE4008073C5E8E23F002AE2D0F6E76C170020B2
:103DF400D0ED0000D0ED000020EE000010B9024824
:103E040007F08BBC00207047C00D002010B50C4893
:103E14000AF0CAF90B490A480AF0D2F90A490848D3
:103E24000AF0CEF9094906480AF0CAF900F0CAFDB9
:103E340008F0C4FE044608B907F0CAFD204610BDC8
:103E4400880600203C1700204C1700205C17002037
:103E5400044B186818B9044A5A600B6070476FF035
:103E64000B0070477017002024F10000F7B50446DA
:103E740000261F4D1F4FBD4201D303B0F0BD2046A5
:103E84006B6801A9984700282CDB019B2A889A8239
:103E94009A84A86803F11002D2E8EF1FC2E8EC6F1D
:103EA400BCF1000FF8D19E60616D03F10802D9B92D
:103EB400C4E914221C60D860019843681B6803B1EC
:103EC4009847019B1033D3E8EF1F41F00101C3E889
:103ED400E21F002AF7D101984368DB6913B100F1AE
:103EE400100198470C35C6E70A606265E2E700BF37
:103EF400ACED0000D0ED000073B5174B0E461978F9
:103F040005460131C9B2012938BF01210822122016
:103F1400197007F0A8FC0446D0B108210C3008F051
:103F2400B0FE338822460380738805214380B3881A
:103F34008380F388C38000232846009307F0DAFCCB
:103F4400054610B1204601F003FC284602B070BDBE
:103F54006FF00B05F9E700BF231C002023281FD8AE
:103F64001A2804D8431E182B0ED906207047A0F136
:103F74001B03082B1ED8DFE803F0051D1B231D19A6
:103F8400251D05000320704701230F4A83401A4072
:103F9400C2B90E4A1A40002A14BF012006207047F5
:103FA40000F07F03522B05D1002070470120704799
:103FB4000520704710F0400F0CBF0620002070470A
:103FC4000420704702207047AAAA8A02545545016A
:103FD400011F01480AF02AB8BC05002010B50446A8
:103FE400002114220AF096FC2146BDE81040014845
:103FF4000AF0E6B87006002010B5044600F130035C
:10400400D3E8EF1F41F00401C3E8E21F002AF7D10F
:10401400201F07F0F5FD04F1540004490AF0CBF920
:104024002068BDE8104001F077BA00BFB14B000032
:104034002DE9FF414FF000084FF4205305460E468A
:10404400006802A9144617688DF80880ADF80A3094
:1040540006F0BEFFA0B142F60103286803A98DF85B
:104064000C80ADF80E3006F0B3FF48B123691BB1E4
:104074005A88B24200D25E80012004B0BDE8F081CB
:104084006168286806F0A4FF10B100232361F3E7F8
:10409400E368A0681A786AB1B7F81AC0798D038A00
:1040A4008C4594BFC3EB0C03C3EB0103934201DAC9
:1040B4000020E2E704210C3008F0E3FD20610680D3
:1040C400236929465E80074B0194009338460023F8
:1040D400A26807F034FE0028EADB2069003818BF24
:1040E4000120CAE76BBC000000B502460AF0B6FC2A
:1040F4000B460649085806498842064804BF002270
:1041040000235DF804EB04F059B800BF0800000078
:1041140060100020700600202DE9F743176805465B
:1041240088460068516814467E6806F051FF81464F
:10413400002842D130469522294608F0FBFB06466A
:10414400207540B1E3681B780BB184F8149000200B
:1041540003B0BDE8F083A06808F06DFD02210C30C7
:1041640008F08FFD164B2061A0F8008000930194A5
:10417400334629463846A26807F0E1FD002807DAED
:1041840010F1FF0F32BF0E204042C0B22075DEE7AF
:104194002369002BDBD0A06807F025FC7B8B7A8D8C
:1041A4009A4294BFC0EB0200C0EB0300E3681B78A3
:1041B400984294BF00200120CAE70120C8E700BF4D
:1041C400FBB90000F7B5002304460E4600226946F9
:1041D400284803F059FE0546D0B90AF03FFC264BA7
:1041E400009F1A58254B29461A60381D28220AF0C8
:1041F40091FB3C60009C0022C4E90155C4E90955C7
:1042040000231F4801A9019503F03EFE054620B195
:104214006FF00B05284603B0F0BD019B01469022C8
:1042240018460AF077FB174A82603C3009F0BCFF5D
:10423400019B3433D3E8EF2FC3E8E15F0029F9D1C0
:10424400019B1C60636A019F1BB904F10C0009F017
:10425400ABFF626A07F18803C7F88820A26A636229
:1042640002B9A3621722019B5A855A83043333602F
:10427400D0E700BFA005002008000000DC170020E4
:10428400BC050020DC0200202DE9F347D1F818809A
:1042940006460C46D8F80090CB6800F13402D2E808
:1042A400AF2F52073BD51B78D22B0FD10368186868
:1042B40008F081FC054648B1A069FFF78FFE20464F
:1042C40001F046FA284602B0BDE8F08704F10C007C
:1042D40008F01FFDB4F810A0C8F800603368074662
:1042E4001D68E36804211878FFF738FE052898BF95
:1042F4000C4B224694BF53F820300B4B2846CDF884
:10430400008007F0F7FA05460028DBD06369A4F8BB
:1043140010A013FA87F7E760C8F80090D2E76FF0AF
:104324001505CFE74CF100005DC200002DE9F84F00
:104334000B8A05460C460668002B60D0012104F167
:104344000C0008F0CEFCB37A8046072B57D155F801
:10435400043C002B53D0002301782B4E2F1F16F85A
:1043640033204FEAC30A8A4206EBC30B1ED19BF8E3
:104374000290B9F1010F29D1002105F1300007F0B5
:10438400E4FD00283BD1228A9BF801309A4239D3BC
:1043940056447368214638469847B9F1010F0346DD
:1043A4002DD160B398F8001049B30AE001330E2B05
:1043B400D5D10846FFF7D2FD08B305281FD0F1B1C7
:1043C40006230022384607F0FDFE18E0B9F1050F78
:1043D4000AD0228A9BF801309A4210D321463846EB
:1043E400DBF8043098470AE0012105F1300007F0BA
:1043F400ACFD20B99BF80120238A9A42C8D9002039
:10440400BDE8F88F0423CDE764F10000F0B51E4643
:1044140003680D460039044618BF012187B01868A7
:10442400174608F065FB48B9052104F1340007F08C
:104434008CFD002848D0002007B0F0BD002E45D0E8
:104444001822002168460AF065FA67BB23683146E2
:104454001B68304600930023ADF812300C9B1C4AB5
:104464000393BDF834308DF80850ADF810300123B3
:104474008DF814306B4607F015FB9DF81430E3B14A
:10448400002FD8D0019B9869FFF7A8FD019801F08F
:104494005FF99DF81430002DCDD0324629462046D0
:1044A40007F090FEC7E700223946204607F014FDC6
:1044B40001900028CAD11120BEE701990029BAD081
:1044C400204607F071FEB6E71220B5E70120B3E7F6
:1044D40047BA00002DE9F0410E8A0446043EF6B2C4
:1044E400022E08468CB001D0102E6BD104210C3062
:1044F40008F0F7FB0DF1080805884788011D3246CE
:10450400404606F093FD00285ED0002D39D00026E9
:10451400002F35D0BD4234D84FF42053404601A972
:104524008DF80460ADF8063006F052FD68BB142225
:10453400002107A80AF0EEF901221121204607F014
:104544000BFF099000283BD001210C30CDE907482E
:1045540008F097FB00230A90394603701B4A0B931B
:10456400284607AB07F09EFA0A9B1B781BBB099BE6
:104574009869FFF733FD099801F0EAF80A2301E08E
:104584003D4601232A4610210EE042F6010340462F
:1045940007A98DF81C60ADF81E3006F019FD00283F
:1045A400C5D010232A461946204607F00BFE0020EA
:1045B4000CB0BDE8F0812046099907F0F5FDF6E757
:1045C4001120F5E70420F3E70E20F1E73540000061
:1045D4002DE9F043036804460D4685B001211868AF
:1045E40008F086FA50B9052104F1340007F0ADFC57
:1045F40000283BD1122005B0BDE8F0831022002131
:1046040068460AF087F900222121204607F0A4FE1B
:10461400029068B34FF00108DFF85890009405F158
:104624000C072B8A012B04D82046029907F0BCFD05
:104634001CE0384608F065FB6B464A4601460646D0
:104644008DF80C8007F02EFA9DF80C30002BE8D082
:10465400029B9869FFF7C2FC029801F079F8324690
:10466400202120469DF80C3007F0ACFD0020C2E765
:104674001120C0E7B7BF00002DE9F04303680446EA
:104684000D4685B00121186808F032FA50B90521A9
:1046940004F1340007F059FC00283BD1122005B086
:1046A400BDE8F0831022002168460AF033F90022A5
:1046B4000F21204607F050FE029068B34FF0010826
:1046C400DFF85890009405F10C072B8A012B04D8CD
:1046D4002046029907F068FD1CE0384608F011FBFB
:1046E4006B464A46014606468DF80C8007F0DAF917
:1046F4009DF80C30002BE8D0029B9869FFF76EFC04
:10470400029801F025F832460E2120469DF80C301F
:1047140007F058FD0020C2E71120C0E771BF000078
:10472400F0B51D46036804460E4685B0012118689D
:10473400174608F0DDF940B9052104F1340007F00B
:1047440004FC70BB122005B0F0BD8DB31022002113
:1047540068460AF0DFF800223946204607F0FCFDDF
:10476400029038B3BDF828302946ADF8043001234F
:1047740028468DF80C30104A6B46009407F092F9E5
:104784009DF80C307BB1029B9869FFF727FC0298D7
:1047940000F0DEFF2A46314620469DF80C3007F033
:1047A40011FD0020CFE72046029907F0FDFCF8E751
:1047B4000120C8E71120C6E771BF00002DE9F041D0
:1047C4000D8A0446043DEDB2022D08468CB001D09A
:1047D400102D50D104210C3008F083FA0DF1040897
:1047E40006884788011D2A46404606F01FFC00281B
:1047F40043D096B187B1B7420FD3182200210DEBF5
:1048040002000AF087F801220921204607F0A4FDDE
:10481400089060B9112007E03E4601233246082182
:10482400204607F0CFFC00200CB0BDE8F081012148
:104834000C30CDE9064808F024FA002309900370EF
:104844000A2339468DF82C30304606AB0C4A07F063
:1048540029F99DF82C304BB1089B9869FFF7BEFBF2
:10486400089800F075FF9DF82C30D7E7204608998A
:1048740007F09AFCD7E70420D6E70E20D4E700BF60
:104884001D4100002DE9F0430F460446062187B080
:1048940007F10C0008F025FA0588B0F80280828838
:1048A400D7F80C90C5B10023B8F1000F13D04545DB
:1048B40012D88DF800308DF804304FF42053684638
:1048C40001A9ADF80220ADF8063006F081FB0646DA
:1048D40060B10A2301E0454601232A460621204609
:1048E40007F070FC002007B0BDE8F08301461422F5
:1048F40001A83F7C0AF00EF832460721204607F053
:104904002BFD0290F8B10A2341468DF81530284654
:1049140001AB0E4ACDE9036901948DF8147007F0D8
:10492400C1F89DF815304BB1029B9869FFF756FB0F
:10493400029800F00DFF9DF81530CEE7204602994D
:1049440007F032FCCEE71120CDE700BFBFBA00006C
:104954007FB5CB6804461D885E888DB17EB1B542B3
:104964000ED810220021684609F0D4FF0022052148
:10497400204607F0F1FC019058B9112007E03546B4
:1049840001232A460421204607F01CFC002004B021
:1049940070BD6B4631462846094A009407F082F8F8
:1049A400029B43B9019B9869FFF718FB019800F03B
:1049B400CFFE0A23E5E72046019907F0F5FBE5E77A
:1049C4008BBC000038B50B4C0B4D204609F0ECFBBA
:1049D4002946204609F0F4FB204605F1140109F0AC
:1049E400EFFB204605F1280109F0EAFBBDE8384059
:1049F40000F074BA70060020A017002013B50B460F
:104A0400002102460AF02AF801910D490C680D496B
:104A140009580D488C4208BF002201A908BF13465B
:104A240003F032FA014640B9019B1022184609F0FE
:104A340071FF0346184602B010BD0023FAE700BF19
:104A4400DC17002008000000D805002010B583689A
:104A540004463BB19869FFF7C1FAA06800F078FEFC
:104A64000023A3602146BDE81040014809F0DEBAE6
:104A7400D80500202DE9F347044658300E46174662
:104A84001D4609F0A6FCA06B30B9206807F018FB9E
:104A9400002002B0BDE8F087104B4FF000089842A8
:104AA40002D1C4F83880F0E7D0F80490C0F804804C
:104AB400A06BD0F80CA0FFF7C9FF2068C4F83880B9
:104AC40007F0FEFAB9F1000FE2D02068CDF800A09B
:104AD4003B46324629460068C847D9E7E01700201C
:104AE4002DE9F34150F8044C0546002C59D000F14F
:104AF400840104F1240007F0C9F92F1F05F13808D7
:104B040000220023404608F061F8064640BB6B6B68
:104B14002BB1024601460E233846FFF7ABFF0023B4
:104B2400022145F8043C05F1300007F0C8F9636A36
:104B3400002B36D104F10C0700220023384608F07C
:104B440045F8064698B96668C6B9214616482660EF
:104B540009F06CFA286802B0BDE8F04100F000BD2D
:104B6400B069FFF73BFA304600F0F2FDC8E7B069E0
:104B7400FFF734FA304600F0EBFDDDE7A268336856
:104B84009642636008BFA360776837B1F3680E216B
:104B94000093002320681A46B8473046FFF756FFB3
:104BA400D1E702B0BDE8F081A005002070B550F84F
:104BB400583C92B00646186806F02AFE037804466C
:104BC40007AD032B24D8DFE803F0021D1F2113498E
:104BD4002846FBF72FFCA379059562781E210492E1
:104BE400A2780AA80392E278029222790192627969
:104BF40000920B4A04F0B2FCA6F15400FFF770FFD8
:104C040012B070BD0749E3E70749E1E70749DFE769
:104C14000A212846064A04F0A1FCDCE790F70000CC
:104C2400B9F7000097F700009EF70000A8F700000E
:104C3400B2F7000008B530B90749084807F0E0FCAE
:104C440038B1074808BD054A12F8011C06F0B8FD42
:104C5400F6E70020F6E700BF91F6000009180020EF
:104C64000818002010B5074C2378834207D1601C34
:104C740007F0C6FC002814BF2046002010BD002009
:104C8400FCE700BF121C002010B54A1C0C4638B1CA
:104C9400097806F095FD08B1204610BD0020FCE718
:104CA4001046024907F0ACFCF5E700BF91F600009E
:104CB4002DE9F8431E46BDF8203081460F46D1F851
:104CC4000C80002B3DD1731E012B3DD8012E414693
:104CD400157818BF1588FFF7D7FF044680B915B9B2
:104CE4003046BDE8F8834146FFF7CEFF044670B373
:104CF40009F18801013007F0B8FC99F808302370F5
:104D0400D8F810308BB92581B8F80A30AB4203D0FB
:104D14004146384607F000FC002DE1D10D49601CE6
:104D240007F0A3FC25702581DAE72A463946484670
:104D340098470028D5DB01380128E4D96FF00D002D
:104D4400CFE76FF00600CCE76FF00C00C9E76FF017
:104D54001000C6E791F600001FB519464FF428135A
:104D64001046064ACDE902230823BDF81820009313
:104D74006B4407F098FC05B05DF804FB18002800AC
:104D8400024608B50749013007F06FFC00230C32D6
:104D940002F8043CD2E8EF1FC2E8E03F0028F9D152
:104DA40008BD00BF91F600002DE9F04180460F4692
:104DB40016461D46FFF756FF044648B90B49FFF750
:104DC40051FF044680B1394600F8018B07F04DFCD1
:104DD400228963891AB92BB92681658104E0964238
:104DE40038BF26819D42F8D8BDE8F08191F60000D5
:104DF4002DE9F041234B1546826807469A4202D1B9
:104E0400C468638933BB0120BDE8F08106F099FCD6
:104E14000021E3686181002BF5D038469847F2E71A
:104E240005F188084146287A06F0A9FB68B9164BB3
:104E34009C4202D1284607F024FC3046134907F06F
:104E440014FC002323702381E2E74146304607F037
:104E54000CFCDDE72389002BDAD0264616F8011B6B
:104E64002846324606F0ACFC0028D9D131462078D9
:104E7400FEF7E6FE0028CBD0837A072BC6D106F0D6
:104E840060FCC0E7B54C00001C03002091F6000054
:104E940010B504461048D0E8EF3F23F00203C0E801
:104EA400E23F002AF7D1D0E8AF3FDA0704D5002269
:104EB4000023303803F04EFC204607F006FB50B1C7
:104EC4002046FFF7B7FE30B1037ADB0703D5BDE810
:104ED400104007F07FBC10BD380F0020012110B531
:104EE400144807F095FBC30723D40221114807F0A7
:104EF4008FFB084007D11049104A0B88104CA2427E
:104F040011D300B10B800F490F4809F054FA4FF444
:104F1400A47200230C48FDF70BF9BDE810400B49BF
:104F24000B4809F048BA5068083203449BB2012088
:104F3400E5E710BD181800201E1C0020D0ED00006D
:104F4400E0ED000035510000900E002009530000F0
:104F5400080F002003462DE9F04148B1008A38B912
:104F640001244FF0140C1149DFF844E0714501D3DA
:104F7400BDE8F081D1E90076BB4204D30CFB067294
:104F8400143A93420ED93444A2B214460831EDE7E0
:104F94000CFB0578434507D001356219B54292B23E
:104FA400F6D1F2E70025F8E71046E1E7D0ED00007E
:104FB400E0ED00002DE9F74F99464FF6FF73BDF879
:104FC40030500746002D08BF1D46244B90461B88D1
:104FD400009183423CD203B0BDE8F08F7368234450
:104FE400BB4232D29CB208361D4B9E42F6D3F2E746
:104FF40040468958019305F0EBFF019B90B10134C1
:105004000AF1010AA4B273685345ECD9009B9C428F
:10501400E1D8BC423168F2D30BFB0AF28B18B8F129
:10502400000FE5D1B9F1000F0BD1013D1846ADB227
:1050340021460E9A0D9B9847002DCCD00028DED136
:10504400C9E7DA689145DAD1EFE74FF0000ADAE709
:1050540001244FF0140B034EC6E700BF1E1C0020B2
:10506400E0ED0000D0ED0000002310B5C8B06946A3
:105074001CAA04A8CDE90033CDE9023305F075FC80
:10508400D8B14FF6FF7101200D4A04AB07F047FC7D
:105094000C4804A905F0FEFC78B10822094B03F181
:1050A4001001187811F8014D013A03F8014B08700A
:1050B400F7D10821044807F0ABFA48B010BD00BF8F
:1050C4005FC50000800E0020380F00202DE9F0415C
:1050D40014490646A1F1300014461D46BDF8187067
:1050E40009F08BF9104BD3E8AF3F190701D4FFF750
:1050F400BBFF3046FFF79EFD50B1037ADA0707D5B0
:105104000C30D0E8AF3FDB0702D4022107F080FA6D
:1051140010233A46069329462046BDE8F041034B46
:1051240007F0C1BAC00E0020380F0020800E002006
:10513400034BD3E8AF3F1B0701D4FFF795BF70477C
:10514400380F0020002307B50193FFF703FF411C2C
:1051540089B20846034A01AB07F0E1FB019803B0AA
:105164005DF804FB17C500002DE9F0478946516836
:1051740080464F8A154617F0140742D1022207F0E1
:10518400F5FB002840D04FF470200021AE8AFFF7D1
:1051940035FC0236044660B11D4B32464360C5609F
:1051A4001D21404607F0B3F8064638B92046FFF7FC
:1051B4004DFC6FF00B052846BDE8F08701233A4605
:1051C400394606F10C0A07F09DF90221504607F012
:1051D40058FD074627F8029BA98A504607F051FD5F
:1051E400AA8A2969384609F088FB21464046A66008
:1051F40007F04EF905460028DDD02046FFF726FCCF
:10520400D9E74FF0FF35D6E76FF01505D3E700BFB8
:1052140031C5000030B504460D468BB0364BD3E89B
:10522400AF3F5A0761D510B1837A072B60D1686804
:105234000590FFF78FFE2A68ADF818003AB305A968
:1052440002912E4900230191012100914FF6FF7133
:105254000593FFF7AFFE059B1BB96FF001000BB080
:1052640030BD6B60059B04A9186800238DF81030CD
:1052740042F60303ADF8123005F0AAFE70B90598A2
:10528400C3689B799B0605D46FF01500E7E70028F7
:10529400E8D1E2E707F0FCFAADF81800BDF8180011
:1052A4003CB1012301462A462046AB75FFF75CFF5B
:1052B400D5E76FF07F0307930223ADF8203042F661
:1052C4000213ADF8123005ABAC7502930C4B4FF6DC
:1052D400FF710193012304AA0093234609958DF8D5
:1052E4001040FFF767FE0798B9E76FF00A00B6E7CA
:1052F4006FF07F00B3E700BFD400002057C5000063
:1053040021540000034613B550F8082CA0F12001E5
:10531400019200F13004D4E8EF2F22F00102C4E836
:10532400E02F0028F7D10D4A002043F81C2C0C4A2A
:1053340023F8080C43F8182C01AA43F8102C042273
:1053440023F8060C23F80C2CFFF764FF18B902218C
:10535400204607F05DF902B010BD00BFFCF100006B
:10536400954E000070B5274B1568826804469A4232
:1053740045D1C6683389002B41D03246284612F8FD
:10538400011B06F01DFA002839D04FF4957221460E
:10539400284607F0CFFA032831D03146204607F0DB
:1053A400BBF8194B9E422AD1287A05F18801FFF7F0
:1053B40059FC044618B303890BB94389FBB1284649
:1053C400FEF786FB2389114A618922F8203002EB1B
:1053D4008003598018230E490E4C03FB001300B2BE
:1053E40002EB80021A61042200EB40005C600A4C6C
:1053F40001EBC00128469C609A82FFF70BFF012055
:1054040070BD00BFB54C00001C0300200E1C002022
:10541400F0170020FCF1000065C80000F8B5144640
:10542400394B826807469A4201D00120F8BDC6680C
:10543400364B9E424FD03289A389711C9A42F4D1D3
:105444003078FEF7FDFB05460028EED0837A072B63
:1054540005D006F076F9E8E706F073F9EBE773692F
:1054640023B13946984708B92846F2E77B8A13F0F6
:105474001407F9D1A389022B14D1338913F002063E
:1054840004D1284606F05DF9A660CEE728462269D5
:10549400A188FFF769FE0646A8B92269937D013306
:1054A4009375EEE7012B04D0284606F04AF9A7606D
:1054B400BBE7338913F00106E3D028462269A188AB
:1054C40007F0D8FA0646284606F03BF9002EA660F7
:1054D400ABDA0020AAE70E4D0E49284607F090F8F3
:1054E4000028A8D10722294615F8010CFEF7C2FBB3
:1054F4000028B1D1236929461A6915F8010C53888B
:105504001288FFF751FC96E7B54C00001C030020FD
:10551400131C002091F6000007B5009001206B4693
:105524004FF6FF71034A8DF8040007F0F8F903B051
:105534005DF804FB69530000F8B505460E461746AE
:10554400064B1C684CB154F8043C043C1BB13A466D
:105554003146284698476468F4E7F8BD1C180020D3
:1055640070B5044603464FF6FF7101200D4A07F05B
:10557400D6F92046FFF75EFB054688B104F188069C
:105584003146207A05F0FBFF20B92846BDE870407B
:10559400FFF7F6BB3146681CBDE8704007F065B8FC
:1055A40070BD00BFF54D0000044B186818B9044ADB
:1055B4005A600B6070476FF00B007047241800208E
:1055C40000F3000070B541690446867A0A4D59B16A
:1055D400437ADB0706D42C2303FB06535B6A1B6860
:1055E4009B689847002363612C20214606FB0050EA
:1055F400BDE8704008F0EFBDA00600202C22024B4D
:1056040002FB0030704700BFA00600202C21827AE4
:10561400054B01FB02339A6A1B7F801A1B3323F06C
:105624000303B0FBF3F07047A006002038B52C2428
:10563400827A094B04FB02335B6A0C685B681A6864
:10564400944294BF0C600A60D3E90054FFF7DEFF74
:1056540005FB004038BD00BFA00600202DE9F04343
:1056640085B00546684690461C46039109F064F8E7
:10567400DDE900674FF02003EFF3118983F312880B
:10568400BFF36F8F6B8B002B41D02A8B9A4225D9A5
:1056940000220023284602F091FD0446F0B189F36C
:1056A4001188BFF36F8F039B002B41D032463B46DA
:1056B400684609F065F82C21A27A234B204601FBA9
:1056C40002335B6A03A91B681D68DDE90023A84750
:1056D400606170BB2046FFF775FF24E0698B4B1EA9
:1056E4006B8389F31188BFF36F8F2B7F2A8BAC6A8E
:1056F4001B3323F00303521A02FB0344124B134AD5
:10570400EB1A9B105343A3722B7FE372CBE789F30D
:105714001188BFF36F8F23464246284602F04EFDA0
:1057240004460028BFD10024204605B0BDE8F0831C
:10573400636100230122636022812382039A6369E7
:105744006282E360F0E700BFA0060020A38B2EBABC
:1057540070B52C250B4C00B970BD037A4668013B2B
:10576400DBB20372002BF7D1C3604360837A05FB7D
:1057740003431B6A13B198473046ECE7FFF722FF57
:10578400FAE700BFA006002013280ED8084A12F832
:10579400103053B102EB4002527832B108684343EF
:1057A40093FBF2F300200B6070476FF01500704715
:1057B400DCF700000122054BC3F8002590F88610A1
:1057C40009B1DA6070471A605A60704700E000500F
:1057D400087970B500F01F04072C20D80B780B2B28
:1057E4001DD8DFE803F0070707071C061C1C1F2150
:1057F4001C2304234A78032A1AD0042A0FD1002533
:1058040044F20A064A88B24246D013D844F2030648
:10581400B2423DD044F20506B2423BD0E2B36FF04F
:10582400150034E00523E5E70623E3E70723E1E772
:105834000125E5E744F21406B2422FD044F22806CB
:10584400B2422DD044F20F06B242E8D10322C0F393
:1058540040101B0243EA0053002043EA053343EAA5
:105864000243220102F1A04202F56042C2F8183557
:1058740023018A7903F1A04303F56043C3F8142597
:10588400C3F81005074B4A79234483F8A02070BD60
:105894000022DCE70122DAE70222D8E70422D6E775
:1058A4000522D4E780010020F7B50D464FF0FF3301
:1058B4004FF0FF32544802F0DBFC6E68731EFE2B7F
:1058C4003CD800231A465148514F26FA03F111F0EF
:1058D400010126D017F803C0BCF1000F2ED06C7C58
:1058E40000EB031E003C18BF0124DEF8181501323A
:1058F40021F0807141EA0461CEF8181503F15101D9
:10590400090140F801C0D2B20133082BDDD12B7C50
:10591400083B062B12D8DFE803F009111D111911F9
:105924001B0003F1510424010151EDE70023374921
:10593400012AC1F8F0356B7C0ED97BB16FF01504E8
:10594400314802F06FFC204603B0F0BD0223EEE7BD
:105954000323ECE70123EAE7082BEFD8C1F8F43579
:105964002968530011B1898901FB0333E96899421D
:1059740046D32F46A968254B264CC3F82C1604F1B0
:105984007406C3F830260FCF0FC63B682746336032
:10599400002626672B687BB30FCB04F1880585E8C6
:1059A4000F006567A4F8986030B3D7E8EF3FC7E805
:1059B400E26F002AF9D118494FF400400F463146EE
:1059C400D4F888500023E5FB0071144A3846FAF7EE
:1059D400BFFB0022CDE90001002304F1080003F01D
:1059E4009DFB4FF0FF324FF0FF330D4802F040FCB7
:1059F40000B12067246FA3E70648FFF7DBFEF0E75A
:105A04006FF00B049CE700BFC001002000E00050D1
:105A140020020020800100203F420F0040420F007E
:105A2400D801002010B500240D4B0E20C3F804410A
:105A3400D3F80421C3F81041D3F810211222C3F87B
:105A44000423FBF789FF224601210E20FBF7B4FF54
:105A54000448836C13B9403002F0E4FB002010BD0D
:105A640000E000508001002038B52D4BD3F804210C
:105A7400002A48D00022C3F80421D3F804110121DC
:105A8400284C9960C3F80025636F2546B3B3D4F856
:105A94008C30B4F8982033B104F17401984701288C
:105AA40014D0022824D0B4F89830B4F894209A4240
:105AB4001ED90133A4F89830194BD3F82C26D3F807
:105AC400341689B202EB4102C3F82C26D4F888308C
:105AD40023B9BDE838401348FFF76CBED5E8EF3F63
